{
  "contractName": "Crowdsale",
  "abi": [
    {
      "constant": true,
      "inputs": [],
      "name": "rate",
      "outputs": [
        {
          "name": "",
          "type": "uint256"
        }
      ],
      "payable": false,
      "stateMutability": "view",
      "type": "function"
    },
    {
      "constant": true,
      "inputs": [],
      "name": "weiRaised",
      "outputs": [
        {
          "name": "",
          "type": "uint256"
        }
      ],
      "payable": false,
      "stateMutability": "view",
      "type": "function"
    },
    {
      "constant": true,
      "inputs": [],
      "name": "tokensSold",
      "outputs": [
        {
          "name": "",
          "type": "uint256"
        }
      ],
      "payable": false,
      "stateMutability": "view",
      "type": "function"
    },
    {
      "constant": true,
      "inputs": [],
      "name": "wallet",
      "outputs": [
        {
          "name": "",
          "type": "address"
        }
      ],
      "payable": false,
      "stateMutability": "view",
      "type": "function"
    },
    {
      "constant": true,
      "inputs": [],
      "name": "token",
      "outputs": [
        {
          "name": "",
          "type": "address"
        }
      ],
      "payable": false,
      "stateMutability": "view",
      "type": "function"
    },
    {
      "inputs": [
        {
          "name": "_rate",
          "type": "uint256"
        },
        {
          "name": "_wallet",
          "type": "address"
        },
        {
          "name": "_token",
          "type": "address"
        }
      ],
      "payable": false,
      "stateMutability": "nonpayable",
      "type": "constructor"
    },
    {
      "payable": true,
      "stateMutability": "payable",
      "type": "fallback"
    },
    {
      "anonymous": false,
      "inputs": [
        {
          "indexed": true,
          "name": "purchaser",
          "type": "address"
        },
        {
          "indexed": true,
          "name": "beneficiary",
          "type": "address"
        },
        {
          "indexed": false,
          "name": "value",
          "type": "uint256"
        },
        {
          "indexed": false,
          "name": "amount",
          "type": "uint256"
        }
      ],
      "name": "TokenPurchase",
      "type": "event"
    },
    {
      "constant": false,
      "inputs": [
        {
          "name": "_beneficiary",
          "type": "address"
        }
      ],
      "name": "buyTokens",
      "outputs": [],
      "payable": true,
      "stateMutability": "payable",
      "type": "function"
    }
  ],
  "bytecode": "0x608060405234801561001057600080fd5b506040516060806104778339810160409081528151602083015191909201516000831161003c57600080fd5b600160a060020a038216151561005157600080fd5b600160a060020a038116151561006657600080fd5b60029290925560018054600160a060020a03928316600160a060020a031991821617909155600080549390921692169190911790556103cd806100aa6000396000f3006080604052600436106100775763ffffffff7c01000000000000000000000000000000000000000000000000000000006000350416632c4e722e81146100825780634042b66f146100a9578063518ab2a8146100be578063521eb273146100d3578063ec8ac4d814610104578063fc0c546a14610118575b6100803361012d565b005b34801561008e57600080fd5b506100976101e3565b60408051918252519081900360200190f35b3480156100b557600080fd5b506100976101e9565b3480156100ca57600080fd5b506100976101ef565b3480156100df57600080fd5b506100e86101f5565b60408051600160a060020a039092168252519081900360200190f35b610080600160a060020a036004351661012d565b34801561012457600080fd5b506100e8610204565b34600061013982610213565b9050610146838383610230565b600354610159908363ffffffff61025116565b60035560045461016f908263ffffffff61025116565b60045561017c838261025e565b60408051838152602081018390528151600160a060020a0386169233927f623b3804fa71d67900d064613da8f94b9617215ee90799290593e1745087ad18929081900390910190a36101cf8383836101de565b6101d761026c565b6101de8383835b505050565b60025481565b60035481565b60045481565b600154600160a060020a031681565b600054600160a060020a031681565b600061022a600254836102a890919063ffffffff16565b92915050565b600160a060020a038316151561024557600080fd5b8115156101de57600080fd5b8181018281101561022a57fe5b61026882826102d1565b5050565b600154604051600160a060020a03909116903480156108fc02916000818181858888f193505050501580156102a5573d6000803e3d6000fd5b50565b60008215156102b95750600061022a565b508181028183828115156102c957fe5b041461022a57fe5b60005461026890600160a060020a0316838363ffffffff6102ee16565b82600160a060020a031663a9059cbb83836040518363ffffffff167c01000000000000000000000000000000000000000000000000000000000281526004018083600160a060020a0316600160a060020a0316815260200182815260200192505050602060405180830381600087803b15801561036a57600080fd5b505af115801561037e573d6000803e3d6000fd5b505050506040513d602081101561039457600080fd5b505115156101de57600080fd00a165627a7a723058206acff969a876ec540d90486afc26e33cee04930e9fd0d4e7a8aa91743147c4850029",
  "source": "pragma solidity ^0.4.24;\n\nimport \"openzeppelin-solidity/contracts/token/ERC20/ERC20.sol\";\nimport \"openzeppelin-solidity/contracts/math/SafeMath.sol\";\nimport \"openzeppelin-solidity/contracts/token/ERC20/SafeERC20.sol\";\n\n\n/**\n * @title Crowdsale\n * @dev Crowdsale is a base contract for managing a token crowdsale,\n * allowing investors to purchase tokens with ether. This contract implements\n * such functionality in its most fundamental form and can be extended to provide additional\n * functionality and/or custom behavior.\n * The external interface represents the basic interface for purchasing tokens, and conform\n * the base architecture for crowdsales. They are *not* intended to be modified / overridden.\n * The internal interface conforms the extensible and modifiable surface of crowdsales. Override\n * the methods to add functionality. Consider using 'super' where appropriate to concatenate\n * behavior.\n */\ncontract Crowdsale {\n    using SafeMath for uint256;\n    using SafeERC20 for ERC20;\n\n    // The token being sold\n    ERC20 public token;\n\n    // Address where funds are collected\n    address public wallet;\n\n    // How many token units a buyer gets per wei.\n    // The rate is the conversion between wei and the smallest and indivisible token unit.\n    // So, if you are using a rate of 1 with a DetailedERC20 token with 3 decimals called TOK\n    // 1 wei will give you 1 unit, or 0.001 TOK.\n    uint256 public rate;\n\n    // Amount of wei raised\n    uint256 public weiRaised;\n\n    // Amount tokens Sold\n    uint256 public tokensSold;\n    \n    /**\n    * Event for token purchase logging\n    * @param purchaser who paid for the tokens\n    * @param beneficiary who got the tokens\n    * @param value weis paid for purchase\n    * @param amount amount of tokens purchased\n    */\n    event TokenPurchase(\n        address indexed purchaser,\n        address indexed beneficiary,\n        uint256 value,\n        uint256 amount\n    );\n\n    /**\n    * @param _rate Number of token units a buyer gets per wei\n    * @param _wallet Address where collected funds will be forwarded to\n    * @param _token Address of the token being sold\n    */\n    constructor(uint256 _rate, address _wallet, ERC20 _token) public {\n        require(_rate > 0);\n        require(_wallet != address(0));\n        require(_token != address(0));\n\n        rate = _rate;\n        wallet = _wallet;\n        token = _token;\n    }\n\n    // -----------------------------------------\n    // Crowdsale external interface\n    // -----------------------------------------\n\n    /**\n    * @dev fallback function ***DO NOT OVERRIDE***\n    */\n    function () external payable {\n        buyTokens(msg.sender);\n    }\n\n    /**\n    * @dev low level token purchase ***DO NOT OVERRIDE***\n    * @param _beneficiary Address performing the token purchase\n    */\n    function buyTokens(address _beneficiary) public payable {\n\n        uint256 weiAmount = msg.value;\n\n        // calculate token amount to be created\n        uint256 tokens = _getTokenAmount(weiAmount);\n\n        _preValidatePurchase(_beneficiary, weiAmount, tokens);\n\n        // update state\n        weiRaised = weiRaised.add(weiAmount);\n        tokensSold = tokensSold.add(tokens);\n\n        _processPurchase(_beneficiary, tokens);\n        emit TokenPurchase(\n            msg.sender,\n            _beneficiary,\n            weiAmount,\n            tokens\n        );\n\n        _updatePurchasingState(_beneficiary, weiAmount, tokens);\n\n        _forwardFunds();\n        _postValidatePurchase(_beneficiary, weiAmount, tokens);\n    }\n\n    // -----------------------------------------\n    // Internal interface (extensible)\n    // -----------------------------------------\n\n    /**\n    * @dev Validation of an incoming purchase. Use require statements to revert state when conditions are not met. Use `super` in contracts that inherit from Crowdsale to extend their validations.\n    * Example from CappedCrowdsale.sol's _preValidatePurchase method: \n    *   super._preValidatePurchase(_beneficiary, _weiAmount);\n    *   require(weiRaised.add(_weiAmount) <= cap);\n    * @param _beneficiary Address performing the token purchase\n    * @param _weiAmount Value in wei involved in the purchase\n    * @param _tokenAmount Value in token involved in the purchase\n    */\n    function _preValidatePurchase(\n        address _beneficiary,\n        uint256 _weiAmount,\n        uint256 _tokenAmount\n    )\n        internal\n    {\n        require(_beneficiary != address(0));\n        require(_weiAmount != 0);\n    }\n\n    /**\n    * @dev Validation of an executed purchase. Observe state and use revert statements to undo rollback when valid conditions are not met.\n    * @param _beneficiary Address performing the token purchase\n    * @param _weiAmount Value in wei involved in the purchase\n    * @param _tokenAmount Value in token involved in the purchase\n    */\n    function _postValidatePurchase(\n        address _beneficiary,\n        uint256 _weiAmount,\n        uint256 _tokenAmount\n    )\n        internal\n    {\n        // optional override\n    }\n\n    /**\n    * @dev Source of tokens. Override this method to modify the way in which the crowdsale ultimately gets and sends its tokens.\n    * @param _beneficiary Address performing the token purchase\n    * @param _tokenAmount Number of tokens to be emitted\n    */\n    function _deliverTokens(\n        address _beneficiary,\n        uint256 _tokenAmount\n    )\n        internal\n    {\n        token.safeTransfer(_beneficiary, _tokenAmount);\n    }\n\n    /**\n    * @dev Executed when a purchase has been validated and is ready to be executed. Not necessarily emits/sends tokens.\n    * @param _beneficiary Address receiving the tokens\n    * @param _tokenAmount Number of tokens to be purchased\n    */\n    function _processPurchase(\n        address _beneficiary,\n        uint256 _tokenAmount\n    )\n        internal\n    {\n        _deliverTokens(_beneficiary, _tokenAmount);\n    }\n\n    /**\n    * @dev Override for extensions that require an internal state to check for validity (current user contributions, etc.)\n    * @param _beneficiary Address receiving the tokens\n    * @param _weiAmount Value in wei involved in the purchase\n    * @param _tokenAmount Value in token involved in the purchase\n    */\n    function _updatePurchasingState(\n        address _beneficiary,\n        uint256 _weiAmount,\n        uint256 _tokenAmount\n    )\n        internal\n    {\n        // optional override\n    }\n\n    /**\n    * @dev Override to extend the way in which ether is converted to tokens.\n    * @param _weiAmount Value in wei to be converted into tokens\n    * @return Number of tokens that can be purchased with the specified _weiAmount\n    */\n    function _getTokenAmount(uint256 _weiAmount)\n        internal view returns (uint256)\n    {\n        return _weiAmount.mul(rate);\n    }\n\n    /**\n    * @dev Determines how ETH is stored/forwarded on purchases.\n    */\n    function _forwardFunds() internal {\n        wallet.transfer(msg.value);\n    }\n}\n",
  "sourcePath": "/Users/igor.montella/workspace/go2chain/FoodNation/migrations/contracts/crowdsale/Crowdsale.sol",
  "compiler": {
    "name": "solc",
    "version": "0.4.24+commit.e67f0147.Emscripten.clang"
  },
  "schemaVersion": "2.0.1",
  "updatedAt": "2018-09-26T01:06:54.450Z"
}