{
  "contractName": "ETHUSDPricing",
  "abi": [
    {
      "constant": true,
      "inputs": [],
      "name": "updatedTime",
      "outputs": [
        {
          "name": "",
          "type": "uint256"
        }
      ],
      "payable": false,
      "stateMutability": "view",
      "type": "function"
    },
    {
      "constant": false,
      "inputs": [],
      "name": "renounceOwnership",
      "outputs": [],
      "payable": false,
      "stateMutability": "nonpayable",
      "type": "function"
    },
    {
      "constant": true,
      "inputs": [],
      "name": "ETHUSD",
      "outputs": [
        {
          "name": "",
          "type": "uint256"
        }
      ],
      "payable": false,
      "stateMutability": "view",
      "type": "function"
    },
    {
      "constant": true,
      "inputs": [],
      "name": "owner",
      "outputs": [
        {
          "name": "",
          "type": "address"
        }
      ],
      "payable": false,
      "stateMutability": "view",
      "type": "function"
    },
    {
      "constant": true,
      "inputs": [
        {
          "name": "",
          "type": "uint256"
        }
      ],
      "name": "priceHistory",
      "outputs": [
        {
          "name": "",
          "type": "uint256"
        }
      ],
      "payable": false,
      "stateMutability": "view",
      "type": "function"
    },
    {
      "constant": false,
      "inputs": [
        {
          "name": "_newOwner",
          "type": "address"
        }
      ],
      "name": "transferOwnership",
      "outputs": [],
      "payable": false,
      "stateMutability": "nonpayable",
      "type": "function"
    },
    {
      "inputs": [],
      "payable": false,
      "stateMutability": "nonpayable",
      "type": "constructor"
    },
    {
      "anonymous": false,
      "inputs": [
        {
          "indexed": false,
          "name": "price",
          "type": "uint256"
        }
      ],
      "name": "PriceUpdated",
      "type": "event"
    },
    {
      "anonymous": false,
      "inputs": [
        {
          "indexed": true,
          "name": "previousOwner",
          "type": "address"
        }
      ],
      "name": "OwnershipRenounced",
      "type": "event"
    },
    {
      "anonymous": false,
      "inputs": [
        {
          "indexed": true,
          "name": "previousOwner",
          "type": "address"
        },
        {
          "indexed": true,
          "name": "newOwner",
          "type": "address"
        }
      ],
      "name": "OwnershipTransferred",
      "type": "event"
    },
    {
      "constant": true,
      "inputs": [
        {
          "name": "time",
          "type": "uint256"
        }
      ],
      "name": "getPrice",
      "outputs": [
        {
          "name": "price",
          "type": "uint256"
        }
      ],
      "payable": false,
      "stateMutability": "view",
      "type": "function"
    },
    {
      "constant": false,
      "inputs": [
        {
          "name": "time",
          "type": "uint256"
        },
        {
          "name": "price",
          "type": "uint256"
        }
      ],
      "name": "updatePrice",
      "outputs": [],
      "payable": true,
      "stateMutability": "payable",
      "type": "function"
    }
  ],
  "bytecode": "0x608060405234801561001057600080fd5b5060008054600160a060020a03191633179055610462806100326000396000f30060806040526004361061008d5763ffffffff7c010000000000000000000000000000000000000000000000000000000060003504166343bdfb728114610092578063715018a6146100b957806373db0844146100d057806382367b2d146100e55780638da5cb5b146100f3578063b27a048414610124578063e75722301461013c578063f2fde38b14610154575b600080fd5b34801561009e57600080fd5b506100a7610175565b60408051918252519081900360200190f35b3480156100c557600080fd5b506100ce61017b565b005b3480156100dc57600080fd5b506100a76101e7565b6100ce6004356024356101ed565b3480156100ff57600080fd5b50610108610363565b60408051600160a060020a039092168252519081900360200190f35b34801561013057600080fd5b506100a7600435610372565b34801561014857600080fd5b506100a7600435610384565b34801561016057600080fd5b506100ce600160a060020a0360043516610396565b60025481565b600054600160a060020a0316331461019257600080fd5b60008054604051600160a060020a03909116917ff8df31144d9c2f0f6b59d69b8b98abd5459d07f2742c4df920b25aae33c6482091a26000805473ffffffffffffffffffffffffffffffffffffffff19169055565b60015481565b600054600160a060020a0316331461020457600080fd5b600254821161029a57604080517f08c379a000000000000000000000000000000000000000000000000000000000815260206004820152602560248201527f54696d65206d7573742062652067726561746572207468616e206c617374207560448201527f7064617465000000000000000000000000000000000000000000000000000000606482015290519081900360840190fd5b6000811161030957604080517f08c379a000000000000000000000000000000000000000000000000000000000815260206004820152601860248201527f455448555344207072696365206973206e6f6e2d7a65726f0000000000000000604482015290519081900360640190fd5b60018054600280546000908152600360209081526040918290209390935592849055849055815183815291517f66cbca4f3c64fecf1dcb9ce094abcf7f68c3450a1d4e3a8e917dd621edb4ebe09281900390910190a15050565b600054600160a060020a031681565b60036020526000908152604090205481565b60009081526003602052604090205490565b600054600160a060020a031633146103ad57600080fd5b6103b6816103b9565b50565b600160a060020a03811615156103ce57600080fd5b60008054604051600160a060020a03808516939216917f8be0079c531659141344cd1fd0a4f28419497f9722a3daafe3b4186f6b6457e091a36000805473ffffffffffffffffffffffffffffffffffffffff1916600160a060020a03929092169190911790555600a165627a7a72305820d56da5b121d1a82f49112e068effcb30e635cc9050c47a18f75cd53c423d18540029",
  "source": "pragma solidity ^0.4.22;\n\nimport \"openzeppelin-solidity/contracts/ownership/Ownable.sol\";\n\ncontract ETHUSDPricing is Ownable {\n\n    // PRICE of ETH in USD in cents\n    // So, if price is: $271.90, the value in variable will be: 27190\n    uint256 public ETHUSD;\n\n    // Time of Last Updated Price\n    uint256 public updatedTime;\n\n    // Historic price of ETH in USD in cents\n    mapping (uint256 => uint256) public priceHistory;\n\n    event PriceUpdated(uint256 price);\n\n    constructor() public {\n    }\n\n    function getPrice(uint256 time) public view returns (uint256 price) {\n        return priceHistory[time];\n    } \n\n    function updatePrice(uint256 time, uint256 price) public payable onlyOwner {\n        require(time > updatedTime, \"Time must be greater than last update\");\n        require(price > 0, \"ETHUSD price is non-zero\");\n\n        priceHistory[updatedTime] = ETHUSD;\n\n        ETHUSD = price;\n        updatedTime = time;\n\n        emit PriceUpdated(ETHUSD);\n    }\n\n\n    \n}\n\n",
  "sourcePath": "/Users/igor.montella/workspace/go2chain/FoodNation/smart_contracts/contracts/ETHUSDPricing.sol",
  "compiler": {
    "name": "solc",
    "version": "0.4.24+commit.e67f0147.Emscripten.clang"
  },
  "schemaVersion": "2.0.1",
  "updatedAt": "2018-08-23T13:38:21.208Z"
}