{
  "contractName": "FoodNationPreSale1",
  "abi": [
    {
      "constant": true,
      "inputs": [],
      "name": "hasClosed",
      "outputs": [
        {
          "name": "",
          "type": "bool"
        }
      ],
      "payable": false,
      "stateMutability": "view",
      "type": "function"
    },
    {
      "constant": true,
      "inputs": [],
      "name": "rate",
      "outputs": [
        {
          "name": "",
          "type": "uint256"
        }
      ],
      "payable": false,
      "stateMutability": "view",
      "type": "function"
    },
    {
      "constant": true,
      "inputs": [],
      "name": "cap",
      "outputs": [
        {
          "name": "",
          "type": "uint256"
        }
      ],
      "payable": false,
      "stateMutability": "view",
      "type": "function"
    },
    {
      "constant": true,
      "inputs": [],
      "name": "weiRaised",
      "outputs": [
        {
          "name": "",
          "type": "uint256"
        }
      ],
      "payable": false,
      "stateMutability": "view",
      "type": "function"
    },
    {
      "constant": true,
      "inputs": [],
      "name": "closingTime",
      "outputs": [
        {
          "name": "",
          "type": "uint256"
        }
      ],
      "payable": false,
      "stateMutability": "view",
      "type": "function"
    },
    {
      "constant": true,
      "inputs": [],
      "name": "capReached",
      "outputs": [
        {
          "name": "",
          "type": "bool"
        }
      ],
      "payable": false,
      "stateMutability": "view",
      "type": "function"
    },
    {
      "constant": true,
      "inputs": [],
      "name": "wallet",
      "outputs": [
        {
          "name": "",
          "type": "address"
        }
      ],
      "payable": false,
      "stateMutability": "view",
      "type": "function"
    },
    {
      "constant": true,
      "inputs": [],
      "name": "openingTime",
      "outputs": [
        {
          "name": "",
          "type": "uint256"
        }
      ],
      "payable": false,
      "stateMutability": "view",
      "type": "function"
    },
    {
      "constant": false,
      "inputs": [
        {
          "name": "_beneficiary",
          "type": "address"
        }
      ],
      "name": "buyTokens",
      "outputs": [],
      "payable": true,
      "stateMutability": "payable",
      "type": "function"
    },
    {
      "constant": true,
      "inputs": [],
      "name": "token",
      "outputs": [
        {
          "name": "",
          "type": "address"
        }
      ],
      "payable": false,
      "stateMutability": "view",
      "type": "function"
    },
    {
      "inputs": [
        {
          "name": "_rate",
          "type": "uint256"
        },
        {
          "name": "_wallet",
          "type": "address"
        },
        {
          "name": "_token",
          "type": "address"
        },
        {
          "name": "_openingTime",
          "type": "uint256"
        },
        {
          "name": "_closingTime",
          "type": "uint256"
        },
        {
          "name": "_cap",
          "type": "uint256"
        }
      ],
      "payable": false,
      "stateMutability": "nonpayable",
      "type": "constructor"
    },
    {
      "payable": true,
      "stateMutability": "payable",
      "type": "fallback"
    },
    {
      "anonymous": false,
      "inputs": [
        {
          "indexed": true,
          "name": "purchaser",
          "type": "address"
        },
        {
          "indexed": true,
          "name": "beneficiary",
          "type": "address"
        },
        {
          "indexed": false,
          "name": "value",
          "type": "uint256"
        },
        {
          "indexed": false,
          "name": "amount",
          "type": "uint256"
        }
      ],
      "name": "TokenPurchase",
      "type": "event"
    }
  ],
  "bytecode": "0x608060405234801561001057600080fd5b5060405160c0806105bc83398101604090815281516020830151918301516060840151608085015160a090950151929491929091908083838888886000831161005857600080fd5b600160a060020a038216151561006d57600080fd5b600160a060020a038116151561008257600080fd5b60029290925560018054600160a060020a03928316600160a060020a03199182161790915560008054929093169116179055428210156100c157600080fd5b818110156100ce57600080fd5b600491909155600555600081116100e457600080fd5b6006555050505050506104c0806100fc6000396000f3006080604052600436106100a35763ffffffff7c01000000000000000000000000000000000000000000000000000000006000350416631515bc2b81146100ae5780632c4e722e146100d7578063355274ea146100fe5780634042b66f146101135780634b6753bc146101285780634f9359451461013d578063521eb27314610152578063b7a8807c14610183578063ec8ac4d814610198578063fc0c546a146101ac575b6100ac336101c1565b005b3480156100ba57600080fd5b506100c3610263565b604080519115158252519081900360200190f35b3480156100e357600080fd5b506100ec61026b565b60408051918252519081900360200190f35b34801561010a57600080fd5b506100ec610271565b34801561011f57600080fd5b506100ec610277565b34801561013457600080fd5b506100ec61027d565b34801561014957600080fd5b506100c3610283565b34801561015e57600080fd5b5061016761028e565b60408051600160a060020a039092168252519081900360200190f35b34801561018f57600080fd5b506100ec61029d565b6100ac600160a060020a03600435166101c1565b3480156101b857600080fd5b506101676102a3565b3460006101ce83836102b2565b6101d7826102e1565b6003549091506101ed908363ffffffff6102fe16565b6003556101fa838261030b565b60408051838152602081018390528151600160a060020a0386169233927f623b3804fa71d67900d064613da8f94b9617215ee90799290593e1745087ad18929081900390910190a361024c83836102dd565b610254610315565b61025e83836102dd565b505050565b600554421190565b60025481565b60065481565b60035481565b60055481565b600654600354101590565b600154600160a060020a031681565b60045481565b600054600160a060020a031681565b6102bc8282610351565b6006546003546102d2908363ffffffff6102fe16565b11156102dd57600080fd5b5050565b60006102f86002548361037a90919063ffffffff16565b92915050565b818101828110156102f857fe5b6102dd82826103a3565b600154604051600160a060020a03909116903480156108fc02916000818181858888f1935050505015801561034e573d6000803e3d6000fd5b50565b600454421015801561036557506005544211155b151561037057600080fd5b6102dd82826103c0565b600082151561038b575060006102f8565b5081810281838281151561039b57fe5b04146102f857fe5b6000546102dd90600160a060020a0316838363ffffffff6103e116565b600160a060020a03821615156103d557600080fd5b8015156102dd57600080fd5b82600160a060020a031663a9059cbb83836040518363ffffffff167c01000000000000000000000000000000000000000000000000000000000281526004018083600160a060020a0316600160a060020a0316815260200182815260200192505050602060405180830381600087803b15801561045d57600080fd5b505af1158015610471573d6000803e3d6000fd5b505050506040513d602081101561048757600080fd5b5051151561025e57600080fd00a165627a7a723058205b7c76fe07b9dbf38ec9dca59798ff8da5548eded4af84669ef732a1029f4d390029",
  "source": "pragma solidity 0.4.24;\n\nimport \"openzeppelin-solidity/contracts/token/ERC20/ERC20.sol\";\nimport \"openzeppelin-solidity/contracts/crowdsale/Crowdsale.sol\";\nimport \"openzeppelin-solidity/contracts/crowdsale/validation/TimedCrowdsale.sol\";\nimport \"openzeppelin-solidity/contracts/crowdsale/validation/CappedCrowdsale.sol\";\n\n\ncontract FoodNationPreSale1 is Crowdsale, TimedCrowdsale, CappedCrowdsale {\n    constructor(\n        uint256 _rate,\n        address _wallet,\n        ERC20 _token,\n        uint256 _openingTime,\n        uint256 _closingTime,\n        uint256 _cap\n    )\n        Crowdsale(_rate, _wallet, _token)\n        TimedCrowdsale(_openingTime, _closingTime)\n        CappedCrowdsale(_cap)\n        public\n    {\n\n    }\n}",
  "sourcePath": "/Users/igor.montella/workspace/go2chain/FoodNation/smart_contracts/contracts/FoodNationPreSale1.sol",
  "compiler": {
    "name": "solc",
    "version": "0.4.24+commit.e67f0147.Emscripten.clang"
  },
  "schemaVersion": "2.0.1",
  "updatedAt": "2018-08-15T20:36:09.416Z"
}