{
  "contractName": "FoodNationToken",
  "abi": [
    {
      "constant": true,
      "inputs": [],
      "name": "mintingFinished",
      "outputs": [
        {
          "name": "",
          "type": "bool"
        }
      ],
      "payable": false,
      "stateMutability": "view",
      "type": "function"
    },
    {
      "constant": true,
      "inputs": [],
      "name": "name",
      "outputs": [
        {
          "name": "",
          "type": "string"
        }
      ],
      "payable": false,
      "stateMutability": "view",
      "type": "function"
    },
    {
      "constant": false,
      "inputs": [
        {
          "name": "_spender",
          "type": "address"
        },
        {
          "name": "_value",
          "type": "uint256"
        }
      ],
      "name": "approve",
      "outputs": [
        {
          "name": "",
          "type": "bool"
        }
      ],
      "payable": false,
      "stateMutability": "nonpayable",
      "type": "function"
    },
    {
      "constant": false,
      "inputs": [
        {
          "name": "token",
          "type": "address"
        }
      ],
      "name": "recoverTokens",
      "outputs": [],
      "payable": false,
      "stateMutability": "nonpayable",
      "type": "function"
    },
    {
      "constant": true,
      "inputs": [],
      "name": "totalSupply",
      "outputs": [
        {
          "name": "",
          "type": "uint256"
        }
      ],
      "payable": false,
      "stateMutability": "view",
      "type": "function"
    },
    {
      "constant": false,
      "inputs": [
        {
          "name": "_from",
          "type": "address"
        },
        {
          "name": "_to",
          "type": "address"
        },
        {
          "name": "_value",
          "type": "uint256"
        }
      ],
      "name": "transferFrom",
      "outputs": [
        {
          "name": "",
          "type": "bool"
        }
      ],
      "payable": false,
      "stateMutability": "nonpayable",
      "type": "function"
    },
    {
      "constant": true,
      "inputs": [],
      "name": "decimals",
      "outputs": [
        {
          "name": "",
          "type": "uint8"
        }
      ],
      "payable": false,
      "stateMutability": "view",
      "type": "function"
    },
    {
      "constant": true,
      "inputs": [],
      "name": "cap",
      "outputs": [
        {
          "name": "",
          "type": "uint256"
        }
      ],
      "payable": false,
      "stateMutability": "view",
      "type": "function"
    },
    {
      "constant": false,
      "inputs": [],
      "name": "unpause",
      "outputs": [],
      "payable": false,
      "stateMutability": "nonpayable",
      "type": "function"
    },
    {
      "constant": false,
      "inputs": [
        {
          "name": "_to",
          "type": "address"
        },
        {
          "name": "_amount",
          "type": "uint256"
        }
      ],
      "name": "mint",
      "outputs": [
        {
          "name": "",
          "type": "bool"
        }
      ],
      "payable": false,
      "stateMutability": "nonpayable",
      "type": "function"
    },
    {
      "constant": false,
      "inputs": [
        {
          "name": "value",
          "type": "uint256"
        }
      ],
      "name": "upgrade",
      "outputs": [],
      "payable": false,
      "stateMutability": "nonpayable",
      "type": "function"
    },
    {
      "constant": true,
      "inputs": [
        {
          "name": "",
          "type": "address"
        }
      ],
      "name": "reservedTokensList",
      "outputs": [
        {
          "name": "amount",
          "type": "uint256"
        },
        {
          "name": "isReserved",
          "type": "bool"
        },
        {
          "name": "isDistributed",
          "type": "bool"
        }
      ],
      "payable": false,
      "stateMutability": "view",
      "type": "function"
    },
    {
      "constant": true,
      "inputs": [],
      "name": "paused",
      "outputs": [
        {
          "name": "",
          "type": "bool"
        }
      ],
      "payable": false,
      "stateMutability": "view",
      "type": "function"
    },
    {
      "constant": true,
      "inputs": [],
      "name": "upgradeAgent",
      "outputs": [
        {
          "name": "",
          "type": "address"
        }
      ],
      "payable": false,
      "stateMutability": "view",
      "type": "function"
    },
    {
      "constant": true,
      "inputs": [],
      "name": "upgradeMaster",
      "outputs": [
        {
          "name": "",
          "type": "address"
        }
      ],
      "payable": false,
      "stateMutability": "view",
      "type": "function"
    },
    {
      "constant": false,
      "inputs": [
        {
          "name": "_spender",
          "type": "address"
        },
        {
          "name": "_subtractedValue",
          "type": "uint256"
        }
      ],
      "name": "decreaseApproval",
      "outputs": [
        {
          "name": "success",
          "type": "bool"
        }
      ],
      "payable": false,
      "stateMutability": "nonpayable",
      "type": "function"
    },
    {
      "constant": true,
      "inputs": [
        {
          "name": "_owner",
          "type": "address"
        }
      ],
      "name": "balanceOf",
      "outputs": [
        {
          "name": "",
          "type": "uint256"
        }
      ],
      "payable": false,
      "stateMutability": "view",
      "type": "function"
    },
    {
      "constant": false,
      "inputs": [],
      "name": "renounceOwnership",
      "outputs": [],
      "payable": false,
      "stateMutability": "nonpayable",
      "type": "function"
    },
    {
      "constant": true,
      "inputs": [
        {
          "name": "",
          "type": "uint256"
        }
      ],
      "name": "reservedTokensDestinations",
      "outputs": [
        {
          "name": "",
          "type": "address"
        }
      ],
      "payable": false,
      "stateMutability": "view",
      "type": "function"
    },
    {
      "constant": false,
      "inputs": [],
      "name": "finishMinting",
      "outputs": [
        {
          "name": "",
          "type": "bool"
        }
      ],
      "payable": false,
      "stateMutability": "nonpayable",
      "type": "function"
    },
    {
      "constant": true,
      "inputs": [],
      "name": "getUpgradeState",
      "outputs": [
        {
          "name": "",
          "type": "uint8"
        }
      ],
      "payable": false,
      "stateMutability": "view",
      "type": "function"
    },
    {
      "constant": false,
      "inputs": [],
      "name": "pause",
      "outputs": [],
      "payable": false,
      "stateMutability": "nonpayable",
      "type": "function"
    },
    {
      "constant": true,
      "inputs": [],
      "name": "owner",
      "outputs": [
        {
          "name": "",
          "type": "address"
        }
      ],
      "payable": false,
      "stateMutability": "view",
      "type": "function"
    },
    {
      "constant": true,
      "inputs": [],
      "name": "symbol",
      "outputs": [
        {
          "name": "",
          "type": "string"
        }
      ],
      "payable": false,
      "stateMutability": "view",
      "type": "function"
    },
    {
      "constant": true,
      "inputs": [],
      "name": "canUpgrade",
      "outputs": [
        {
          "name": "",
          "type": "bool"
        }
      ],
      "payable": false,
      "stateMutability": "pure",
      "type": "function"
    },
    {
      "constant": false,
      "inputs": [
        {
          "name": "_to",
          "type": "address"
        },
        {
          "name": "_value",
          "type": "uint256"
        }
      ],
      "name": "transfer",
      "outputs": [
        {
          "name": "",
          "type": "bool"
        }
      ],
      "payable": false,
      "stateMutability": "nonpayable",
      "type": "function"
    },
    {
      "constant": true,
      "inputs": [],
      "name": "reservedTokensDestinationsLen",
      "outputs": [
        {
          "name": "",
          "type": "uint256"
        }
      ],
      "payable": false,
      "stateMutability": "view",
      "type": "function"
    },
    {
      "constant": true,
      "inputs": [
        {
          "name": "token",
          "type": "address"
        }
      ],
      "name": "tokensToBeReturned",
      "outputs": [
        {
          "name": "",
          "type": "uint256"
        }
      ],
      "payable": false,
      "stateMutability": "view",
      "type": "function"
    },
    {
      "constant": true,
      "inputs": [],
      "name": "distributedReservedTokensDestinationsLen",
      "outputs": [
        {
          "name": "",
          "type": "uint256"
        }
      ],
      "payable": false,
      "stateMutability": "view",
      "type": "function"
    },
    {
      "constant": true,
      "inputs": [],
      "name": "totalUpgraded",
      "outputs": [
        {
          "name": "",
          "type": "uint256"
        }
      ],
      "payable": false,
      "stateMutability": "view",
      "type": "function"
    },
    {
      "constant": false,
      "inputs": [
        {
          "name": "_spender",
          "type": "address"
        },
        {
          "name": "_addedValue",
          "type": "uint256"
        }
      ],
      "name": "increaseApproval",
      "outputs": [
        {
          "name": "success",
          "type": "bool"
        }
      ],
      "payable": false,
      "stateMutability": "nonpayable",
      "type": "function"
    },
    {
      "constant": false,
      "inputs": [
        {
          "name": "agent",
          "type": "address"
        }
      ],
      "name": "setUpgradeAgent",
      "outputs": [],
      "payable": false,
      "stateMutability": "nonpayable",
      "type": "function"
    },
    {
      "constant": true,
      "inputs": [
        {
          "name": "_owner",
          "type": "address"
        },
        {
          "name": "_spender",
          "type": "address"
        }
      ],
      "name": "allowance",
      "outputs": [
        {
          "name": "",
          "type": "uint256"
        }
      ],
      "payable": false,
      "stateMutability": "view",
      "type": "function"
    },
    {
      "constant": false,
      "inputs": [
        {
          "name": "_newOwner",
          "type": "address"
        }
      ],
      "name": "transferOwnership",
      "outputs": [],
      "payable": false,
      "stateMutability": "nonpayable",
      "type": "function"
    },
    {
      "constant": false,
      "inputs": [
        {
          "name": "master",
          "type": "address"
        }
      ],
      "name": "setUpgradeMaster",
      "outputs": [],
      "payable": false,
      "stateMutability": "nonpayable",
      "type": "function"
    },
    {
      "inputs": [
        {
          "name": "_name",
          "type": "string"
        },
        {
          "name": "_symbol",
          "type": "string"
        },
        {
          "name": "_decimals",
          "type": "uint8"
        },
        {
          "name": "_cap",
          "type": "uint256"
        }
      ],
      "payable": false,
      "stateMutability": "nonpayable",
      "type": "constructor"
    },
    {
      "anonymous": false,
      "inputs": [
        {
          "indexed": true,
          "name": "_from",
          "type": "address"
        },
        {
          "indexed": true,
          "name": "_to",
          "type": "address"
        },
        {
          "indexed": false,
          "name": "_value",
          "type": "uint256"
        }
      ],
      "name": "Upgrade",
      "type": "event"
    },
    {
      "anonymous": false,
      "inputs": [
        {
          "indexed": false,
          "name": "agent",
          "type": "address"
        }
      ],
      "name": "UpgradeAgentSet",
      "type": "event"
    },
    {
      "anonymous": false,
      "inputs": [],
      "name": "Pause",
      "type": "event"
    },
    {
      "anonymous": false,
      "inputs": [],
      "name": "Unpause",
      "type": "event"
    },
    {
      "anonymous": false,
      "inputs": [
        {
          "indexed": true,
          "name": "to",
          "type": "address"
        },
        {
          "indexed": false,
          "name": "amount",
          "type": "uint256"
        }
      ],
      "name": "Mint",
      "type": "event"
    },
    {
      "anonymous": false,
      "inputs": [],
      "name": "MintFinished",
      "type": "event"
    },
    {
      "anonymous": false,
      "inputs": [
        {
          "indexed": true,
          "name": "previousOwner",
          "type": "address"
        }
      ],
      "name": "OwnershipRenounced",
      "type": "event"
    },
    {
      "anonymous": false,
      "inputs": [
        {
          "indexed": true,
          "name": "previousOwner",
          "type": "address"
        },
        {
          "indexed": true,
          "name": "newOwner",
          "type": "address"
        }
      ],
      "name": "OwnershipTransferred",
      "type": "event"
    },
    {
      "anonymous": false,
      "inputs": [
        {
          "indexed": true,
          "name": "owner",
          "type": "address"
        },
        {
          "indexed": true,
          "name": "spender",
          "type": "address"
        },
        {
          "indexed": false,
          "name": "value",
          "type": "uint256"
        }
      ],
      "name": "Approval",
      "type": "event"
    },
    {
      "anonymous": false,
      "inputs": [
        {
          "indexed": true,
          "name": "from",
          "type": "address"
        },
        {
          "indexed": true,
          "name": "to",
          "type": "address"
        },
        {
          "indexed": false,
          "name": "value",
          "type": "uint256"
        }
      ],
      "name": "Transfer",
      "type": "event"
    },
    {
      "constant": true,
      "inputs": [
        {
          "name": "addr",
          "type": "address"
        }
      ],
      "name": "isAddressReserved",
      "outputs": [
        {
          "name": "isReserved",
          "type": "bool"
        }
      ],
      "payable": false,
      "stateMutability": "view",
      "type": "function"
    },
    {
      "constant": true,
      "inputs": [
        {
          "name": "addr",
          "type": "address"
        }
      ],
      "name": "areTokensDistributedForAddress",
      "outputs": [
        {
          "name": "isDistributed",
          "type": "bool"
        }
      ],
      "payable": false,
      "stateMutability": "view",
      "type": "function"
    },
    {
      "constant": true,
      "inputs": [
        {
          "name": "addr",
          "type": "address"
        }
      ],
      "name": "getReservedTokens",
      "outputs": [
        {
          "name": "amount",
          "type": "uint256"
        }
      ],
      "payable": false,
      "stateMutability": "view",
      "type": "function"
    },
    {
      "constant": false,
      "inputs": [
        {
          "name": "addrs",
          "type": "address[]"
        },
        {
          "name": "amounts",
          "type": "uint256[]"
        }
      ],
      "name": "setReservedTokensListMultiple",
      "outputs": [],
      "payable": false,
      "stateMutability": "nonpayable",
      "type": "function"
    },
    {
      "constant": false,
      "inputs": [],
      "name": "distributeReservedTokens",
      "outputs": [],
      "payable": false,
      "stateMutability": "nonpayable",
      "type": "function"
    }
  ],
  "bytecode": "0x60806040526003805460a060020a60ff02191690556007805461ff00191690556000600c819055600d805461ffff19169055600e553480156200004157600080fd5b5060405162001f8038038062001f808339810160409081528151602083015191830151606084015160038054600160a060020a031916331790559184019392909201919083838383600081116200009757600080fd5b6004558251620000af906005906020860190620000fa565b508151620000c5906006906020850190620000fa565b506007805460ff191660ff92909216919091176201000060b060020a031916336201000002179055506200019f945050505050565b828054600181600116156101000203166002900490600052602060002090601f016020900481019282601f106200013d57805160ff19168380011785556200016d565b828001600101855582156200016d579182015b828111156200016d57825182559160200191906001019062000150565b506200017b9291506200017f565b5090565b6200019c91905b808211156200017b576000815560010162000186565b90565b611dd180620001af6000396000f3006080604052600436106101d45763ffffffff60e060020a60003504166305d2035b81146101d957806306fdde0314610202578063095ea7b31461028c57806316114acd146102b057806318160ddd146102d357806323b872dd146102fa578063313ce56714610324578063355274ea1461034f5780633f4ba83a1461036457806340c10f19146103795780634320f2711461039d57806345977d03146103c957806351ed17a4146103e15780635c975abb146104225780635de4ccb014610437578063600440cb14610468578063612544b31461047d578063661884631461049e57806370a08231146104c2578063715018a6146104e35780637386f0a7146104f85780637d64bcb4146105105780638444b391146105255780638456cb591461055e5780638da5cb5b1461057357806395d89b411461058857806395fe6f1d1461059d5780639738968c146105be578063a9059cbb146105d3578063b4ecb847146105f7578063c331051714610618578063c45d19db1461062d578063c71a7aea1461064e578063c752ff6214610663578063ca1aa5bb14610678578063d73dd6231461068d578063d7e7088a146106b1578063dd62ed3e146106d2578063f2fde38b146106f9578063ffeb7d751461071a575b600080fd5b3480156101e557600080fd5b506101ee61073b565b604080519115158252519081900360200190f35b34801561020e57600080fd5b5061021761074b565b6040805160208082528351818301528351919283929083019185019080838360005b83811015610251578181015183820152602001610239565b50505050905090810190601f16801561027e5780820380516001836020036101000a031916815260200191505b509250505060405180910390f35b34801561029857600080fd5b506101ee600160a060020a03600435166024356107d9565b3480156102bc57600080fd5b506102d1600160a060020a0360043516610802565b005b3480156102df57600080fd5b506102e86108b9565b60408051918252519081900360200190f35b34801561030657600080fd5b506101ee600160a060020a03600435811690602435166044356108c0565b34801561033057600080fd5b506103396108eb565b6040805160ff9092168252519081900360200190f35b34801561035b57600080fd5b506102e86108f4565b34801561037057600080fd5b506102d16108fa565b34801561038557600080fd5b506101ee600160a060020a036004351660243561095d565b3480156103a957600080fd5b506102d1602460048035828101929082013591813591820191013561098c565b3480156103d557600080fd5b506102d1600435610a62565b3480156103ed57600080fd5b50610402600160a060020a0360043516610c8f565b604080519384529115156020840152151582820152519081900360600190f35b34801561042e57600080fd5b506101ee610cb4565b34801561044357600080fd5b5061044c610cc2565b60408051600160a060020a039092168252519081900360200190f35b34801561047457600080fd5b5061044c610cd1565b34801561048957600080fd5b506102e8600160a060020a0360043516610ce6565b3480156104aa57600080fd5b506101ee600160a060020a0360043516602435610d01565b3480156104ce57600080fd5b506102e8600160a060020a0360043516610d23565b3480156104ef57600080fd5b506102d1610d3e565b34801561050457600080fd5b5061044c600435610dac565b34801561051c57600080fd5b506101ee610dd4565b34801561053157600080fd5b5061053a610e58565b6040518082600481111561054a57fe5b60ff16815260200191505060405180910390f35b34801561056a57600080fd5b506102d1610ea3565b34801561057f57600080fd5b5061044c610f09565b34801561059457600080fd5b50610217610f18565b3480156105a957600080fd5b506101ee600160a060020a0360043516610f73565b3480156105ca57600080fd5b506101ee610f94565b3480156105df57600080fd5b506101ee600160a060020a0360043516602435610f99565b34801561060357600080fd5b506101ee600160a060020a0360043516610fbb565b34801561062457600080fd5b506102e8610fe1565b34801561063957600080fd5b506102e8600160a060020a0360043516610fe7565b34801561065a57600080fd5b506102e861107d565b34801561066f57600080fd5b506102e8611083565b34801561068457600080fd5b506102d1611089565b34801561069957600080fd5b506101ee600160a060020a03600435166024356111af565b3480156106bd57600080fd5b506102d1600160a060020a03600435166111d1565b3480156106de57600080fd5b506102e8600160a060020a03600435811690602435166114f9565b34801561070557600080fd5b506102d1600160a060020a0360043516611524565b34801561072657600080fd5b506102d1600160a060020a0360043516611547565b60035460a060020a900460ff1681565b6005805460408051602060026001851615610100026000190190941693909304601f810184900484028201840190925281815292918301828280156107d15780601f106107a6576101008083540402835291602001916107d1565b820191906000526020600020905b8154815290600101906020018083116107b457829003601f168201915b505050505081565b600754600090610100900460ff16156107f157600080fd5b6107fb8383611646565b9392505050565b600354600160a060020a0316331461081957600080fd5b600354600160a060020a038083169163a9059cbb911661083884610fe7565b6040518363ffffffff1660e060020a0281526004018083600160a060020a0316600160a060020a0316815260200182815260200192505050602060405180830381600087803b15801561088a57600080fd5b505af115801561089e573d6000803e3d6000fd5b505050506040513d60208110156108b457600080fd5b505050565b6001545b90565b600754600090610100900460ff16156108d857600080fd5b6108e38484846116ac565b949350505050565b60075460ff1681565b60045481565b600354600160a060020a0316331461091157600080fd5b600754610100900460ff16151561092757600080fd5b6007805461ff00191690556040517f7805862f689e2f13df9f062ff482ad3ad112aca9e0847911ed832e158c525b3390600090a1565b60006004546109778360015461182190919063ffffffff16565b111561098257600080fd5b6107fb8383611834565b60035460009060a060020a900460ff16156109a657600080fd5b600354600160a060020a031633146109bd57600080fd5b600d5460ff16156109ca57fe5b8382146109d357fe5b5060005b83811015610a4e5760008585838181106109ed57fe5b90506020020135600160a060020a0316600160a060020a0316141515610a4657610a46858583818110610a1c57fe5b90506020020135600160a060020a03168484848181101515610a3a57fe5b9050602002013561193e565b6001016109d7565b5050600d805460ff19166001179055505050565b6000811515610ae1576040805160e560020a62461bcd02815260206004820152602160248201527f56616c756520706172616d65746572206d757374206265206e6f6e2d7a65726f60448201527f2e00000000000000000000000000000000000000000000000000000000000000606482015290519081900360840190fd5b610ae9610e58565b90506003816004811115610af957fe5b1480610b1057506004816004811115610b0e57fe5b145b1515610b66576040805160e560020a62461bcd02815260206004820152601e60248201527f46756e6374696f6e2063616c6c656420696e2061206261642073746174650000604482015290519081900360640190fd5b33600090815260208190526040902054610b86908363ffffffff611a5316565b33600090815260208190526040902055600154610ba9908363ffffffff611a5316565b600155600954610bbf908363ffffffff61182116565b600955600854604080517f753e88e5000000000000000000000000000000000000000000000000000000008152336004820152602481018590529051600160a060020a039092169163753e88e59160448082019260009290919082900301818387803b158015610c2e57600080fd5b505af1158015610c42573d6000803e3d6000fd5b5050600854604080518681529051600160a060020a0390921693503392507f7e5c344a8141a805725cb476f76c6953b842222b967edd1f78ddb6e8b3f397ac919081900360200190a35050565b600a602052600090815260409020805460019091015460ff8082169161010090041683565b600754610100900460ff1681565b600854600160a060020a031681565b600754620100009004600160a060020a031681565b600160a060020a03166000908152600a602052604090205490565b600754600090610100900460ff1615610d1957600080fd5b6107fb8383611a65565b600160a060020a031660009081526020819052604090205490565b600354600160a060020a03163314610d5557600080fd5b600354604051600160a060020a03909116907ff8df31144d9c2f0f6b59d69b8b98abd5459d07f2742c4df920b25aae33c6482090600090a26003805473ffffffffffffffffffffffffffffffffffffffff19169055565b600b805482908110610dba57fe5b600091825260209091200154600160a060020a0316905081565b600354600090600160a060020a03163314610dee57600080fd5b60035460a060020a900460ff1615610e0557600080fd5b6003805474ff0000000000000000000000000000000000000000191660a060020a1790556040517fae5184fba832cb2b1f702aca6117b8d265eaf03ad33eb133f19dde0f5920fa0890600090a150600190565b6000610e62610f94565b1515610e70575060016108bd565b600854600160a060020a03161515610e8a575060026108bd565b6009541515610e9b575060036108bd565b5060046108bd565b600354600160a060020a03163314610eba57600080fd5b600754610100900460ff1615610ecf57600080fd5b6007805461ff0019166101001790556040517f6985a02210a168e66602d3235cb6db0e70f92b3ba4d376a33c0f3d9434bff62590600090a1565b600354600160a060020a031681565b6006805460408051602060026001851615610100026000190190941693909304601f810184900484028201840190925281815292918301828280156107d15780601f106107a6576101008083540402835291602001916107d1565b600160a060020a03166000908152600a602052604090206001015460ff1690565b600190565b600754600090610100900460ff1615610fb157600080fd5b6107fb8383611b54565b600160a060020a03166000908152600a6020526040902060010154610100900460ff1690565b600c5481565b604080517f70a082310000000000000000000000000000000000000000000000000000000081523060048201529051600091600160a060020a038416916370a082319160248082019260209290919082900301818787803b15801561104b57600080fd5b505af115801561105f573d6000803e3d6000fd5b505050506040513d602081101561107557600080fd5b505192915050565b600e5481565b60095481565b600080600080600080600360149054906101000a900460ff161515156110ae57600080fd5b600354600160a060020a031633146110c557600080fd5b600d54610100900460ff16156110d757fe5b600c54600e54106110e457fe5b600e54600c549096506110fd908763ffffffff611a5316565b945084860193508592505b8383101561118257600b80548490811061111e57fe5b600091825260209091200154600160a060020a0316915061113e82610fbb565b15156111775761114d82610ce6565b9050600081111561116457611162828261095d565b505b61116d82611c33565b600e805460010190555b600190920191611108565b600c54600e54141561119e57600d805461ff0019166101001790555b6111a6610dd4565b50505050505050565b600754600090610100900460ff16156111c757600080fd5b6107fb8383611c8e565b600754620100009004600160a060020a03163314611239576040805160e560020a62461bcd02815260206004820152601660248201527f53656e646572206e6f7420617574686f72697a65642e00000000000000000000604482015290519081900360640190fd5b611241610f94565b1515611297576040805160e560020a62461bcd02815260206004820152601460248201527f55706772616465206e6f7420656e61626c65642e000000000000000000000000604482015290519081900360640190fd5b60046112a1610e58565b60048111156112ac57fe5b1415611302576040805160e560020a62461bcd02815260206004820152601a60248201527f55706467726164652068617320616c7265647920626567756e2e000000000000604482015290519081900360640190fd5b6008805473ffffffffffffffffffffffffffffffffffffffff1916600160a060020a038381169190911791829055604080517f61d3d7a6000000000000000000000000000000000000000000000000000000008152905192909116916361d3d7a6916004808201926020929091908290030181600087803b15801561138657600080fd5b505af115801561139a573d6000803e3d6000fd5b505050506040513d60208110156113b057600080fd5b5051151561142e576040805160e560020a62461bcd02815260206004820152602560248201527f4e6f7420616e2075706772616465204167656e74206f722062616420696e746560448201527f7266616365000000000000000000000000000000000000000000000000000000606482015290519081900360840190fd5b600154600860009054906101000a9004600160a060020a0316600160a060020a0316634b2ba0dd6040518163ffffffff1660e060020a028152600401602060405180830381600087803b15801561148457600080fd5b505af1158015611498573d6000803e3d6000fd5b505050506040513d60208110156114ae57600080fd5b5051146114b757fe5b60085460408051600160a060020a039092168252517f7845d5aa74cc410e35571258d954f23b82276e160fe8c188fa80566580f279cc9181900360200190a150565b600160a060020a03918216600090815260026020908152604080832093909416825291909152205490565b600354600160a060020a0316331461153b57600080fd5b61154481611d27565b50565b600754620100009004600160a060020a031633146115af576040805160e560020a62461bcd02815260206004820152601660248201527f53656e646572206e6f7420617574686f72697a65642e00000000000000000000604482015290519081900360640190fd5b600160a060020a038116151561160f576040805160e560020a62461bcd02815260206004820152601660248201527f4e6577206d61737465722063616e742062652030783000000000000000000000604482015290519081900360640190fd5b60078054600160a060020a03909216620100000275ffffffffffffffffffffffffffffffffffffffff000019909216919091179055565b336000818152600260209081526040808320600160a060020a038716808552908352818420869055815186815291519394909390927f8c5be1e5ebec7d5bd14f71427d1e84f3dd0314c0f7b2291e5b200ac8c7c3b925928290030190a350600192915050565b600160a060020a0383166000908152602081905260408120548211156116d157600080fd5b600160a060020a038416600090815260026020908152604080832033845290915290205482111561170157600080fd5b600160a060020a038316151561171657600080fd5b600160a060020a03841660009081526020819052604090205461173f908363ffffffff611a5316565b600160a060020a038086166000908152602081905260408082209390935590851681522054611774908363ffffffff61182116565b600160a060020a038085166000908152602081815260408083209490945591871681526002825282812033825290915220546117b6908363ffffffff611a5316565b600160a060020a03808616600081815260026020908152604080832033845282529182902094909455805186815290519287169391927fddf252ad1be2c89b69c2b068fc378daa952ba7f163c4a11628f55a4df523b3ef929181900390910190a35060019392505050565b8181018281101561182e57fe5b92915050565b600354600090600160a060020a0316331461184e57600080fd5b60035460a060020a900460ff161561186557600080fd5b600154611878908363ffffffff61182116565b600155600160a060020a0383166000908152602081905260409020546118a4908363ffffffff61182116565b600160a060020a03841660008181526020818152604091829020939093558051858152905191927f0f6798a560793a54c3bcfe86a93cde1e73087d944c0ea20544137d412139688592918290030190a2604080518381529051600160a060020a038516916000917fddf252ad1be2c89b69c2b068fc378daa952ba7f163c4a11628f55a4df523b3ef9181900360200190a350600192915050565b60035460a060020a900460ff161561195557600080fd5b600354600160a060020a0316331461196c57600080fd5b600160a060020a038216151561197e57fe5b61198782610f73565b15156119f057600b8054600180820183556000929092527f0175b7a638427703f0dbe7bb9bbf987a2551717b34e79f33b5b1008d1fa01db901805473ffffffffffffffffffffffffffffffffffffffff1916600160a060020a038516179055600c805490910190555b60408051606081018252918252600160208084018281526000858501818152600160a060020a039097168152600a90925292902092518355905191018054925115156101000261ff001992151560ff199094169390931791909116919091179055565b600082821115611a5f57fe5b50900390565b336000908152600260209081526040808320600160a060020a0386168452909152812054808310611ab957336000908152600260209081526040808320600160a060020a0388168452909152812055611aee565b611ac9818463ffffffff611a5316565b336000908152600260209081526040808320600160a060020a03891684529091529020555b336000818152600260209081526040808320600160a060020a0389168085529083529281902054815190815290519293927f8c5be1e5ebec7d5bd14f71427d1e84f3dd0314c0f7b2291e5b200ac8c7c3b925929181900390910190a35060019392505050565b33600090815260208190526040812054821115611b7057600080fd5b600160a060020a0383161515611b8557600080fd5b33600090815260208190526040902054611ba5908363ffffffff611a5316565b3360009081526020819052604080822092909255600160a060020a03851681522054611bd7908363ffffffff61182116565b600160a060020a038416600081815260208181526040918290209390935580518581529051919233927fddf252ad1be2c89b69c2b068fc378daa952ba7f163c4a11628f55a4df523b3ef9281900390910190a350600192915050565b600354600090600160a060020a03163314611c4d57600080fd5b60035460a060020a900460ff1615611c6457600080fd5b50600160a060020a03166000908152600a60205260409020600101805461ff001916610100179055565b336000908152600260209081526040808320600160a060020a0386168452909152812054611cc2908363ffffffff61182116565b336000818152600260209081526040808320600160a060020a0389168085529083529281902085905580519485525191937f8c5be1e5ebec7d5bd14f71427d1e84f3dd0314c0f7b2291e5b200ac8c7c3b925929081900390910190a350600192915050565b600160a060020a0381161515611d3c57600080fd5b600354604051600160a060020a038084169216907f8be0079c531659141344cd1fd0a4f28419497f9722a3daafe3b4186f6b6457e090600090a36003805473ffffffffffffffffffffffffffffffffffffffff1916600160a060020a03929092169190911790555600a165627a7a723058209a62d8c77a91f8e39143c9ce39650cdf0e19df9eb0aa312a1ff6335989a5058d0029",
  "source": "pragma solidity 0.4.24;\n\nimport \"openzeppelin-solidity/contracts/token/ERC20/CappedToken.sol\";\nimport \"openzeppelin-solidity/contracts/token/ERC20/DetailedERC20.sol\";\nimport \"openzeppelin-solidity/contracts/token/ERC20/PausableToken.sol\";\nimport \"openzeppelin-solidity/contracts/math/SafeMath.sol\";\nimport \"./support/UpgradeableToken.sol\";\n\ncontract FoodNationToken is CappedToken, DetailedERC20, PausableToken, UpgradeableToken {\n    \n    using SafeMath for uint256;\n\n    //Reserved Tokens Data Structure\n    struct ReservedTokensData {\n        uint256 amount;\n        bool isReserved;\n        bool isDistributed;\n    }\n\n    //state variables for reserved token setting \n    mapping (address => ReservedTokensData) public reservedTokensList;\n    address[] public reservedTokensDestinations;\n    uint256 public reservedTokensDestinationsLen = 0;\n    bool reservedTokensDestinationsAreSet = false;\n    \n    //state variables for reserved token distribution\n    bool reservedTokensAreDistributed = false;\n    uint256 public distributedReservedTokensDestinationsLen = 0;\n\n    constructor(string _name, string _symbol, uint8 _decimals, uint256 _cap)\n        DetailedERC20(_name, _symbol, _decimals)\n        CappedToken(_cap)\n        public\n    {\n\n    }\n\n    function finalizeReservedAddress(address addr) private onlyOwner canMint {\n        ReservedTokensData storage reservedTokensData = reservedTokensList[addr];\n        reservedTokensData.isDistributed = true;\n    }\n\n    function isAddressReserved(address addr) public view returns (bool isReserved) {\n        return reservedTokensList[addr].isReserved;\n    }\n\n    function areTokensDistributedForAddress(address addr) public view returns (bool isDistributed) {\n        return reservedTokensList[addr].isDistributed;\n    }\n\n    function getReservedTokens(address addr) public view returns (uint256 amount) {\n        return reservedTokensList[addr].amount;\n    }\n\n    function setReservedTokensListMultiple(address[] addrs, uint256[] amounts) external canMint onlyOwner {\n        assert(!reservedTokensDestinationsAreSet);\n        assert(addrs.length == amounts.length);\n        for (uint iterator = 0; iterator < addrs.length; iterator++) {\n            if (addrs[iterator] != address(0)) {\n                setReservedTokensList(addrs[iterator], amounts[iterator]);\n            }\n        }\n        reservedTokensDestinationsAreSet = true;\n    }\n\n    function setReservedTokensList(address addr, uint256 amount) private canMint onlyOwner {\n        assert(addr != address(0));\n        if (!isAddressReserved(addr)) {\n            reservedTokensDestinations.push(addr);\n            reservedTokensDestinationsLen++;\n        }\n\n        reservedTokensList[addr] = ReservedTokensData({\n            amount: amount,\n            isReserved: true,\n            isDistributed: false\n        });\n    }\n\n    //distributes reserved tokens. Should be called before finalization\n    function distributeReservedTokens() external canMint onlyOwner {\n        assert(!reservedTokensAreDistributed);\n        assert(distributedReservedTokensDestinationsLen < reservedTokensDestinationsLen);\n\n\n        uint startLooping = distributedReservedTokensDestinationsLen;\n        uint256 batch = reservedTokensDestinationsLen.sub(distributedReservedTokensDestinationsLen);\n        uint endLooping = startLooping + batch;\n\n        // move reserved tokens\n        for (uint j = startLooping; j < endLooping; j++) {\n            address reservedAddr = reservedTokensDestinations[j];\n            if (!areTokensDistributedForAddress(reservedAddr)) {\n                uint256 allocatedBonusInTokens = getReservedTokens(reservedAddr);\n\n                if (allocatedBonusInTokens > 0) {\n                    mint(reservedAddr, allocatedBonusInTokens);\n                }\n\n                finalizeReservedAddress(reservedAddr);\n                distributedReservedTokensDestinationsLen++;\n            }\n        }\n\n        if (distributedReservedTokensDestinationsLen == reservedTokensDestinationsLen) {\n            reservedTokensAreDistributed = true;\n        }\n        finishMinting();\n    }\n}",
  "sourcePath": "/Users/igor.montella/workspace/go2chain/FoodNation/smart_contracts/contracts/FoodNationToken.sol",
  "compiler": {
    "name": "solc",
    "version": "0.4.24+commit.e67f0147.Emscripten.clang"
  },
  "schemaVersion": "2.0.1",
  "updatedAt": "2018-08-23T13:36:39.711Z"
}