{
  "contractName": "FoodNationToken",
  "abi": [
    {
      "constant": true,
      "inputs": [],
      "name": "mintingFinished",
      "outputs": [
        {
          "name": "",
          "type": "bool"
        }
      ],
      "payable": false,
      "stateMutability": "view",
      "type": "function"
    },
    {
      "constant": true,
      "inputs": [],
      "name": "name",
      "outputs": [
        {
          "name": "",
          "type": "string"
        }
      ],
      "payable": false,
      "stateMutability": "view",
      "type": "function"
    },
    {
      "constant": false,
      "inputs": [
        {
          "name": "_spender",
          "type": "address"
        },
        {
          "name": "_value",
          "type": "uint256"
        }
      ],
      "name": "approve",
      "outputs": [
        {
          "name": "",
          "type": "bool"
        }
      ],
      "payable": false,
      "stateMutability": "nonpayable",
      "type": "function"
    },
    {
      "constant": true,
      "inputs": [
        {
          "name": "_operator",
          "type": "address"
        },
        {
          "name": "_role",
          "type": "string"
        }
      ],
      "name": "checkRole",
      "outputs": [],
      "payable": false,
      "stateMutability": "view",
      "type": "function"
    },
    {
      "constant": false,
      "inputs": [
        {
          "name": "token",
          "type": "address"
        }
      ],
      "name": "recoverTokens",
      "outputs": [],
      "payable": false,
      "stateMutability": "nonpayable",
      "type": "function"
    },
    {
      "constant": true,
      "inputs": [],
      "name": "totalSupply",
      "outputs": [
        {
          "name": "",
          "type": "uint256"
        }
      ],
      "payable": false,
      "stateMutability": "view",
      "type": "function"
    },
    {
      "constant": true,
      "inputs": [
        {
          "name": "_operator",
          "type": "address"
        },
        {
          "name": "_role",
          "type": "string"
        }
      ],
      "name": "hasRole",
      "outputs": [
        {
          "name": "",
          "type": "bool"
        }
      ],
      "payable": false,
      "stateMutability": "view",
      "type": "function"
    },
    {
      "constant": false,
      "inputs": [
        {
          "name": "_from",
          "type": "address"
        },
        {
          "name": "_to",
          "type": "address"
        },
        {
          "name": "_value",
          "type": "uint256"
        }
      ],
      "name": "transferFrom",
      "outputs": [
        {
          "name": "",
          "type": "bool"
        }
      ],
      "payable": false,
      "stateMutability": "nonpayable",
      "type": "function"
    },
    {
      "constant": true,
      "inputs": [],
      "name": "decimals",
      "outputs": [
        {
          "name": "",
          "type": "uint8"
        }
      ],
      "payable": false,
      "stateMutability": "view",
      "type": "function"
    },
    {
      "constant": true,
      "inputs": [],
      "name": "cap",
      "outputs": [
        {
          "name": "",
          "type": "uint256"
        }
      ],
      "payable": false,
      "stateMutability": "view",
      "type": "function"
    },
    {
      "constant": false,
      "inputs": [],
      "name": "unpause",
      "outputs": [],
      "payable": false,
      "stateMutability": "nonpayable",
      "type": "function"
    },
    {
      "constant": false,
      "inputs": [
        {
          "name": "_to",
          "type": "address"
        },
        {
          "name": "_amount",
          "type": "uint256"
        }
      ],
      "name": "mint",
      "outputs": [
        {
          "name": "",
          "type": "bool"
        }
      ],
      "payable": false,
      "stateMutability": "nonpayable",
      "type": "function"
    },
    {
      "constant": false,
      "inputs": [
        {
          "name": "value",
          "type": "uint256"
        }
      ],
      "name": "upgrade",
      "outputs": [],
      "payable": false,
      "stateMutability": "nonpayable",
      "type": "function"
    },
    {
      "constant": true,
      "inputs": [
        {
          "name": "",
          "type": "address"
        }
      ],
      "name": "reservedTokensList",
      "outputs": [
        {
          "name": "amount",
          "type": "uint256"
        },
        {
          "name": "isReserved",
          "type": "bool"
        },
        {
          "name": "isDistributed",
          "type": "bool"
        }
      ],
      "payable": false,
      "stateMutability": "view",
      "type": "function"
    },
    {
      "constant": false,
      "inputs": [
        {
          "name": "_newSuperuser",
          "type": "address"
        }
      ],
      "name": "transferSuperuser",
      "outputs": [],
      "payable": false,
      "stateMutability": "nonpayable",
      "type": "function"
    },
    {
      "constant": true,
      "inputs": [],
      "name": "paused",
      "outputs": [
        {
          "name": "",
          "type": "bool"
        }
      ],
      "payable": false,
      "stateMutability": "view",
      "type": "function"
    },
    {
      "constant": true,
      "inputs": [],
      "name": "upgradeAgent",
      "outputs": [
        {
          "name": "",
          "type": "address"
        }
      ],
      "payable": false,
      "stateMutability": "view",
      "type": "function"
    },
    {
      "constant": true,
      "inputs": [],
      "name": "upgradeMaster",
      "outputs": [
        {
          "name": "",
          "type": "address"
        }
      ],
      "payable": false,
      "stateMutability": "view",
      "type": "function"
    },
    {
      "constant": true,
      "inputs": [
        {
          "name": "addr",
          "type": "address"
        }
      ],
      "name": "getReservedTokens",
      "outputs": [
        {
          "name": "amount",
          "type": "uint256"
        }
      ],
      "payable": false,
      "stateMutability": "view",
      "type": "function"
    },
    {
      "constant": false,
      "inputs": [
        {
          "name": "_spender",
          "type": "address"
        },
        {
          "name": "_subtractedValue",
          "type": "uint256"
        }
      ],
      "name": "decreaseApproval",
      "outputs": [
        {
          "name": "success",
          "type": "bool"
        }
      ],
      "payable": false,
      "stateMutability": "nonpayable",
      "type": "function"
    },
    {
      "constant": true,
      "inputs": [
        {
          "name": "_owner",
          "type": "address"
        }
      ],
      "name": "balanceOf",
      "outputs": [
        {
          "name": "",
          "type": "uint256"
        }
      ],
      "payable": false,
      "stateMutability": "view",
      "type": "function"
    },
    {
      "constant": false,
      "inputs": [],
      "name": "renounceOwnership",
      "outputs": [],
      "payable": false,
      "stateMutability": "nonpayable",
      "type": "function"
    },
    {
      "constant": true,
      "inputs": [
        {
          "name": "",
          "type": "uint256"
        }
      ],
      "name": "reservedTokensDestinations",
      "outputs": [
        {
          "name": "",
          "type": "address"
        }
      ],
      "payable": false,
      "stateMutability": "view",
      "type": "function"
    },
    {
      "constant": false,
      "inputs": [],
      "name": "finishMinting",
      "outputs": [
        {
          "name": "",
          "type": "bool"
        }
      ],
      "payable": false,
      "stateMutability": "nonpayable",
      "type": "function"
    },
    {
      "constant": true,
      "inputs": [],
      "name": "getUpgradeState",
      "outputs": [
        {
          "name": "",
          "type": "uint8"
        }
      ],
      "payable": false,
      "stateMutability": "view",
      "type": "function"
    },
    {
      "constant": false,
      "inputs": [],
      "name": "pause",
      "outputs": [],
      "payable": false,
      "stateMutability": "nonpayable",
      "type": "function"
    },
    {
      "constant": true,
      "inputs": [],
      "name": "owner",
      "outputs": [
        {
          "name": "",
          "type": "address"
        }
      ],
      "payable": false,
      "stateMutability": "view",
      "type": "function"
    },
    {
      "constant": true,
      "inputs": [],
      "name": "symbol",
      "outputs": [
        {
          "name": "",
          "type": "string"
        }
      ],
      "payable": false,
      "stateMutability": "view",
      "type": "function"
    },
    {
      "constant": true,
      "inputs": [
        {
          "name": "addr",
          "type": "address"
        }
      ],
      "name": "isAddressReserved",
      "outputs": [
        {
          "name": "isReserved",
          "type": "bool"
        }
      ],
      "payable": false,
      "stateMutability": "view",
      "type": "function"
    },
    {
      "constant": true,
      "inputs": [],
      "name": "canUpgrade",
      "outputs": [
        {
          "name": "",
          "type": "bool"
        }
      ],
      "payable": false,
      "stateMutability": "pure",
      "type": "function"
    },
    {
      "constant": false,
      "inputs": [
        {
          "name": "_to",
          "type": "address"
        },
        {
          "name": "_value",
          "type": "uint256"
        }
      ],
      "name": "transfer",
      "outputs": [
        {
          "name": "",
          "type": "bool"
        }
      ],
      "payable": false,
      "stateMutability": "nonpayable",
      "type": "function"
    },
    {
      "constant": true,
      "inputs": [
        {
          "name": "addr",
          "type": "address"
        }
      ],
      "name": "areTokensDistributedForAddress",
      "outputs": [
        {
          "name": "isDistributed",
          "type": "bool"
        }
      ],
      "payable": false,
      "stateMutability": "view",
      "type": "function"
    },
    {
      "constant": true,
      "inputs": [
        {
          "name": "_addr",
          "type": "address"
        }
      ],
      "name": "isSuperuser",
      "outputs": [
        {
          "name": "",
          "type": "bool"
        }
      ],
      "payable": false,
      "stateMutability": "view",
      "type": "function"
    },
    {
      "constant": true,
      "inputs": [],
      "name": "reservedTokensDestinationsLen",
      "outputs": [
        {
          "name": "",
          "type": "uint256"
        }
      ],
      "payable": false,
      "stateMutability": "view",
      "type": "function"
    },
    {
      "constant": true,
      "inputs": [
        {
          "name": "token",
          "type": "address"
        }
      ],
      "name": "tokensToBeReturned",
      "outputs": [
        {
          "name": "",
          "type": "uint256"
        }
      ],
      "payable": false,
      "stateMutability": "view",
      "type": "function"
    },
    {
      "constant": true,
      "inputs": [],
      "name": "distributedReservedTokensDestinationsLen",
      "outputs": [
        {
          "name": "",
          "type": "uint256"
        }
      ],
      "payable": false,
      "stateMutability": "view",
      "type": "function"
    },
    {
      "constant": true,
      "inputs": [],
      "name": "totalUpgraded",
      "outputs": [
        {
          "name": "",
          "type": "uint256"
        }
      ],
      "payable": false,
      "stateMutability": "view",
      "type": "function"
    },
    {
      "constant": false,
      "inputs": [],
      "name": "distributeReservedTokens",
      "outputs": [
        {
          "name": "",
          "type": "bool"
        }
      ],
      "payable": false,
      "stateMutability": "nonpayable",
      "type": "function"
    },
    {
      "constant": false,
      "inputs": [
        {
          "name": "_spender",
          "type": "address"
        },
        {
          "name": "_addedValue",
          "type": "uint256"
        }
      ],
      "name": "increaseApproval",
      "outputs": [
        {
          "name": "success",
          "type": "bool"
        }
      ],
      "payable": false,
      "stateMutability": "nonpayable",
      "type": "function"
    },
    {
      "constant": false,
      "inputs": [
        {
          "name": "agent",
          "type": "address"
        }
      ],
      "name": "setUpgradeAgent",
      "outputs": [],
      "payable": false,
      "stateMutability": "nonpayable",
      "type": "function"
    },
    {
      "constant": true,
      "inputs": [
        {
          "name": "_owner",
          "type": "address"
        },
        {
          "name": "_spender",
          "type": "address"
        }
      ],
      "name": "allowance",
      "outputs": [
        {
          "name": "",
          "type": "uint256"
        }
      ],
      "payable": false,
      "stateMutability": "view",
      "type": "function"
    },
    {
      "constant": true,
      "inputs": [],
      "name": "ROLE_SUPERUSER",
      "outputs": [
        {
          "name": "",
          "type": "string"
        }
      ],
      "payable": false,
      "stateMutability": "view",
      "type": "function"
    },
    {
      "constant": false,
      "inputs": [
        {
          "name": "_newOwner",
          "type": "address"
        }
      ],
      "name": "transferOwnership",
      "outputs": [],
      "payable": false,
      "stateMutability": "nonpayable",
      "type": "function"
    },
    {
      "constant": false,
      "inputs": [
        {
          "name": "master",
          "type": "address"
        }
      ],
      "name": "setUpgradeMaster",
      "outputs": [],
      "payable": false,
      "stateMutability": "nonpayable",
      "type": "function"
    },
    {
      "inputs": [
        {
          "name": "_name",
          "type": "string"
        },
        {
          "name": "_symbol",
          "type": "string"
        },
        {
          "name": "_decimals",
          "type": "uint8"
        },
        {
          "name": "_cap",
          "type": "uint256"
        },
        {
          "name": "_addrs",
          "type": "address[]"
        },
        {
          "name": "_amounts",
          "type": "uint256[]"
        }
      ],
      "payable": false,
      "stateMutability": "nonpayable",
      "type": "constructor"
    },
    {
      "anonymous": false,
      "inputs": [
        {
          "indexed": true,
          "name": "operator",
          "type": "address"
        },
        {
          "indexed": false,
          "name": "role",
          "type": "string"
        }
      ],
      "name": "RoleAdded",
      "type": "event"
    },
    {
      "anonymous": false,
      "inputs": [
        {
          "indexed": true,
          "name": "operator",
          "type": "address"
        },
        {
          "indexed": false,
          "name": "role",
          "type": "string"
        }
      ],
      "name": "RoleRemoved",
      "type": "event"
    },
    {
      "anonymous": false,
      "inputs": [
        {
          "indexed": true,
          "name": "_from",
          "type": "address"
        },
        {
          "indexed": true,
          "name": "_to",
          "type": "address"
        },
        {
          "indexed": false,
          "name": "_value",
          "type": "uint256"
        }
      ],
      "name": "Upgrade",
      "type": "event"
    },
    {
      "anonymous": false,
      "inputs": [
        {
          "indexed": false,
          "name": "agent",
          "type": "address"
        }
      ],
      "name": "UpgradeAgentSet",
      "type": "event"
    },
    {
      "anonymous": false,
      "inputs": [],
      "name": "Pause",
      "type": "event"
    },
    {
      "anonymous": false,
      "inputs": [],
      "name": "Unpause",
      "type": "event"
    },
    {
      "anonymous": false,
      "inputs": [
        {
          "indexed": true,
          "name": "to",
          "type": "address"
        },
        {
          "indexed": false,
          "name": "amount",
          "type": "uint256"
        }
      ],
      "name": "Mint",
      "type": "event"
    },
    {
      "anonymous": false,
      "inputs": [],
      "name": "MintFinished",
      "type": "event"
    },
    {
      "anonymous": false,
      "inputs": [
        {
          "indexed": true,
          "name": "previousOwner",
          "type": "address"
        }
      ],
      "name": "OwnershipRenounced",
      "type": "event"
    },
    {
      "anonymous": false,
      "inputs": [
        {
          "indexed": true,
          "name": "previousOwner",
          "type": "address"
        },
        {
          "indexed": true,
          "name": "newOwner",
          "type": "address"
        }
      ],
      "name": "OwnershipTransferred",
      "type": "event"
    },
    {
      "anonymous": false,
      "inputs": [
        {
          "indexed": true,
          "name": "owner",
          "type": "address"
        },
        {
          "indexed": true,
          "name": "spender",
          "type": "address"
        },
        {
          "indexed": false,
          "name": "value",
          "type": "uint256"
        }
      ],
      "name": "Approval",
      "type": "event"
    },
    {
      "anonymous": false,
      "inputs": [
        {
          "indexed": true,
          "name": "from",
          "type": "address"
        },
        {
          "indexed": true,
          "name": "to",
          "type": "address"
        },
        {
          "indexed": false,
          "name": "value",
          "type": "uint256"
        }
      ],
      "name": "Transfer",
      "type": "event"
    }
  ],
  "bytecode": "0x60806040526003805460a060020a60ff02191690556007805461ff00191690556000600c819055600d55600e805461ffff191690553480156200004157600080fd5b506040516200283a3803806200283a83398101604090815281516020830151918301516060840151608085015160a086015160038054600160a060020a03191633179055938601959485019492939192908101910181818787878760008111620000aa57600080fd5b6004558251620000c2906005906020860190620005f6565b508151620000d8906006906020850190620005f6565b506007805460ff191660ff92909216919091176201000060b060020a03191633620100000217905550620001189050828264010000000062000176810204565b50506200016a336040805190810160405280600981526020017f737570657275736572000000000000000000000000000000000000000000000081525062000362640100000000026401000000009004565b5050505050506200069b565b60035460009074010000000000000000000000000000000000000000900460ff1615620001a257600080fd5b600354600160a060020a03163314620001ba57600080fd5b600e5460ff16156200022d57604080517f08c379a000000000000000000000000000000000000000000000000000000000815260206004820152601b60248201527f526573657276656420546f6b656e7320616c7265616479207365740000000000604482015290519081900360640190fd5b8151835114620002c357604080517f08c379a0000000000000000000000000000000000000000000000000000000008152602060048201526024808201527f506172616d6574657273206d7573742068617665207468652073616d65206c6560448201527f6e67746800000000000000000000000000000000000000000000000000000000606482015290519081900360840190fd5b5060005b825181101562000350578251600090849083908110620002e357fe5b60209081029091010151600160a060020a03161462000347576200034783828151811015156200030f57fe5b9060200190602002015183838151811015156200032857fe5b9060200190602002015162000488640100000000026401000000009004565b600101620002c7565b5050600e805460ff1916600117905550565b620003de82600f836040518082805190602001908083835b602083106200039b5780518252601f1990920191602091820191016200037a565b51815160209384036101000a6000190180199092169116179052920194855250604051938490030190922092915050640100000000620005b081026200211e1704565b81600160a060020a03167fbfec83d64eaa953f2708271a023ab9ee82057f8f3578d548c1a4ba0b5b700489826040518080602001828103825283818151815260200191508051906020019080838360005b83811015620004495781810151838201526020016200042f565b50505050905090810190601f168015620004775780820380516001836020036101000a031916815260200191505b509250505060405180910390a25050565b60035474010000000000000000000000000000000000000000900460ff1615620004b157600080fd5b600354600160a060020a03163314620004c957600080fd5b600160a060020a0382161515620004dc57fe5b620004f082640100000000620005d5810204565b15156200054d57600b8054600180820183556000929092527f0175b7a638427703f0dbe7bb9bbf987a2551717b34e79f33b5b1008d1fa01db9018054600160a060020a031916600160a060020a038516179055600c805490910190555b60408051606081018252918252600160208084018281526000858501818152600160a060020a039097168152600a90925292902092518355905191018054925115156101000261ff001992151560ff199094169390931791909116919091179055565b600160a060020a0316600090815260209190915260409020805460ff19166001179055565b600160a060020a03166000908152600a602052604090206001015460ff1690565b828054600181600116156101000203166002900490600052602060002090601f016020900481019282601f106200063957805160ff191683800117855562000669565b8280016001018555821562000669579182015b82811115620006695782518255916020019190600101906200064c565b50620006779291506200067b565b5090565b6200069891905b8082111562000677576000815560010162000682565b90565b61218f80620006ab6000396000f3006080604052600436106102005763ffffffff60e060020a60003504166305d2035b811461020557806306fdde031461022e578063095ea7b3146102b85780630988ca8c146102dc57806316114acd1461034557806318160ddd14610366578063217fe6c61461038d57806323b872dd146103f4578063313ce5671461041e578063355274ea146104495780633f4ba83a1461045e57806340c10f191461047357806345977d031461049757806351ed17a4146104af57806357c393fa146104f05780635c975abb146105115780635de4ccb014610526578063600440cb14610557578063612544b31461056c578063661884631461058d57806370a08231146105b1578063715018a6146105d25780637386f0a7146105e75780637d64bcb4146105ff5780638444b391146106145780638456cb591461064d5780638da5cb5b1461066257806395d89b411461067757806395fe6f1d1461068c5780639738968c146106ad578063a9059cbb146106c2578063b4ecb847146106e6578063bceee05e14610707578063c331051714610728578063c45d19db1461073d578063c71a7aea1461075e578063c752ff6214610773578063ca1aa5bb14610788578063d73dd6231461079d578063d7e7088a146107c1578063dd62ed3e146107e2578063ebb4f48414610809578063f2fde38b1461081e578063ffeb7d751461083f575b600080fd5b34801561021157600080fd5b5061021a610860565b604080519115158252519081900360200190f35b34801561023a57600080fd5b50610243610881565b6040805160208082528351818301528351919283929083019185019080838360005b8381101561027d578181015183820152602001610265565b50505050905090810190601f1680156102aa5780820380516001836020036101000a031916815260200191505b509250505060405180910390f35b3480156102c457600080fd5b5061021a600160a060020a036004351660243561090f565b3480156102e857600080fd5b5060408051602060046024803582810135601f8101859004850286018501909652858552610343958335600160a060020a03169536956044949193909101919081908401838280828437509497506109389650505050505050565b005b34801561035157600080fd5b50610343600160a060020a03600435166109a6565b34801561037257600080fd5b5061037b610a5d565b60408051918252519081900360200190f35b34801561039957600080fd5b5060408051602060046024803582810135601f810185900485028601850190965285855261021a958335600160a060020a0316953695604494919390910191908190840183828082843750949750610a649650505050505050565b34801561040057600080fd5b5061021a600160a060020a0360043581169060243516604435610ad0565b34801561042a57600080fd5b50610433610afb565b6040805160ff9092168252519081900360200190f35b34801561045557600080fd5b5061037b610b04565b34801561046a57600080fd5b50610343610b0a565b34801561047f57600080fd5b5061021a600160a060020a0360043516602435610b6d565b3480156104a357600080fd5b50610343600435610b9c565b3480156104bb57600080fd5b506104d0600160a060020a0360043516610dc9565b604080519384529115156020840152151582820152519081900360600190f35b3480156104fc57600080fd5b50610343600160a060020a0360043516610dee565b34801561051d57600080fd5b5061021a610e8d565b34801561053257600080fd5b5061053b610e9b565b60408051600160a060020a039092168252519081900360200190f35b34801561056357600080fd5b5061053b610eaa565b34801561057857600080fd5b5061037b600160a060020a0360043516610ebf565b34801561059957600080fd5b5061021a600160a060020a0360043516602435610eda565b3480156105bd57600080fd5b5061037b600160a060020a0360043516610efc565b3480156105de57600080fd5b50610343610f17565b3480156105f357600080fd5b5061053b600435610f85565b34801561060b57600080fd5b5061021a610fad565b34801561062057600080fd5b50610629611053565b6040518082600481111561063957fe5b60ff16815260200191505060405180910390f35b34801561065957600080fd5b5061034361109e565b34801561066e57600080fd5b5061053b611104565b34801561068357600080fd5b50610243611113565b34801561069857600080fd5b5061021a600160a060020a036004351661116e565b3480156106b957600080fd5b5061021a61118f565b3480156106ce57600080fd5b5061021a600160a060020a0360043516602435611194565b3480156106f257600080fd5b5061021a600160a060020a03600435166111b6565b34801561071357600080fd5b5061021a600160a060020a03600435166111dc565b34801561073457600080fd5b5061037b611211565b34801561074957600080fd5b5061037b600160a060020a0360043516611217565b34801561076a57600080fd5b5061037b6112ad565b34801561077f57600080fd5b5061037b6112b3565b34801561079457600080fd5b5061021a6112b9565b3480156107a957600080fd5b5061021a600160a060020a03600435166024356113dd565b3480156107cd57600080fd5b50610343600160a060020a03600435166113ff565b3480156107ee57600080fd5b5061037b600160a060020a0360043581169060243516611727565b34801561081557600080fd5b50610243611752565b34801561082a57600080fd5b50610343600160a060020a0360043516611777565b34801561084b57600080fd5b50610343600160a060020a03600435166117a8565b60035474010000000000000000000000000000000000000000900460ff1681565b6005805460408051602060026001851615610100026000190190941693909304601f810184900484028201840190925281815292918301828280156109075780601f106108dc57610100808354040283529160200191610907565b820191906000526020600020905b8154815290600101906020018083116108ea57829003601f168201915b505050505081565b600754600090610100900460ff161561092757600080fd5b61093183836118a7565b9392505050565b6109a282600f836040518082805190602001908083835b6020831061096e5780518252601f19909201916020918201910161094f565b51815160209384036101000a600019018019909216911617905292019485525060405193849003019092209291505061190d565b5050565b600354600160a060020a031633146109bd57600080fd5b600354600160a060020a038083169163a9059cbb91166109dc84611217565b6040518363ffffffff1660e060020a0281526004018083600160a060020a0316600160a060020a0316815260200182815260200192505050602060405180830381600087803b158015610a2e57600080fd5b505af1158015610a42573d6000803e3d6000fd5b505050506040513d6020811015610a5857600080fd5b505050565b6001545b90565b600061093183600f846040518082805190602001908083835b60208310610a9c5780518252601f199092019160209182019101610a7d565b51815160209384036101000a6000190180199092169116179052920194855250604051938490030190922092915050611922565b600754600090610100900460ff1615610ae857600080fd5b610af3848484611941565b949350505050565b60075460ff1681565b60045481565b600354600160a060020a03163314610b2157600080fd5b600754610100900460ff161515610b3757600080fd5b6007805461ff00191690556040517f7805862f689e2f13df9f062ff482ad3ad112aca9e0847911ed832e158c525b3390600090a1565b6000600454610b8783600154611ab690919063ffffffff16565b1115610b9257600080fd5b6109318383611ac3565b6000811515610c1b576040805160e560020a62461bcd02815260206004820152602160248201527f56616c756520706172616d65746572206d757374206265206e6f6e2d7a65726f60448201527f2e00000000000000000000000000000000000000000000000000000000000000606482015290519081900360840190fd5b610c23611053565b90506003816004811115610c3357fe5b1480610c4a57506004816004811115610c4857fe5b145b1515610ca0576040805160e560020a62461bcd02815260206004820152601e60248201527f46756e6374696f6e2063616c6c656420696e2061206261642073746174650000604482015290519081900360640190fd5b33600090815260208190526040902054610cc0908363ffffffff611bde16565b33600090815260208190526040902055600154610ce3908363ffffffff611bde16565b600155600954610cf9908363ffffffff611ab616565b600955600854604080517f753e88e5000000000000000000000000000000000000000000000000000000008152336004820152602481018590529051600160a060020a039092169163753e88e59160448082019260009290919082900301818387803b158015610d6857600080fd5b505af1158015610d7c573d6000803e3d6000fd5b5050600854604080518681529051600160a060020a0390921693503392507f7e5c344a8141a805725cb476f76c6953b842222b967edd1f78ddb6e8b3f397ac919081900360200190a35050565b600a602052600090815260409020805460019091015460ff8082169161010090041683565b610e1b33604080519081016040528060098152602001600080516020612144833981519152815250610938565b600160a060020a0381161515610e3057600080fd5b610e5d33604080519081016040528060098152602001600080516020612144833981519152815250611bf0565b610e8a81604080519081016040528060098152602001600080516020612144833981519152815250611d01565b50565b600754610100900460ff1681565b600854600160a060020a031681565b600754620100009004600160a060020a031681565b600160a060020a03166000908152600a602052604090205490565b600754600090610100900460ff1615610ef257600080fd5b6109318383611dd3565b600160a060020a031660009081526020819052604090205490565b600354600160a060020a03163314610f2e57600080fd5b600354604051600160a060020a03909116907ff8df31144d9c2f0f6b59d69b8b98abd5459d07f2742c4df920b25aae33c6482090600090a26003805473ffffffffffffffffffffffffffffffffffffffff19169055565b600b805482908110610f9357fe5b600091825260209091200154600160a060020a0316905081565b600354600090600160a060020a03163314610fc757600080fd5b60035474010000000000000000000000000000000000000000900460ff1615610fef57600080fd5b6003805474ff00000000000000000000000000000000000000001916740100000000000000000000000000000000000000001790556040517fae5184fba832cb2b1f702aca6117b8d265eaf03ad33eb133f19dde0f5920fa0890600090a150600190565b600061105d61118f565b151561106b57506001610a61565b600854600160a060020a0316151561108557506002610a61565b600954151561109657506003610a61565b506004610a61565b600354600160a060020a031633146110b557600080fd5b600754610100900460ff16156110ca57600080fd5b6007805461ff0019166101001790556040517f6985a02210a168e66602d3235cb6db0e70f92b3ba4d376a33c0f3d9434bff62590600090a1565b600354600160a060020a031681565b6006805460408051602060026001851615610100026000190190941693909304601f810184900484028201840190925281815292918301828280156109075780601f106108dc57610100808354040283529160200191610907565b600160a060020a03166000908152600a602052604090206001015460ff1690565b600190565b600754600090610100900460ff16156111ac57600080fd5b6109318383611ec2565b600160a060020a03166000908152600a6020526040902060010154610100900460ff1690565b600061120b82604080519081016040528060098152602001600080516020612144833981519152815250610a64565b92915050565b600c5481565b604080517f70a082310000000000000000000000000000000000000000000000000000000081523060048201529051600091600160a060020a038416916370a082319160248082019260209290919082900301818787803b15801561127b57600080fd5b505af115801561128f573d6000803e3d6000fd5b505050506040513d60208110156112a557600080fd5b505192915050565b600d5481565b60095481565b6000806000806000806000600360149054906101000a900460ff161515156112e057600080fd5b600354600160a060020a031633146112f757600080fd5b600e54610100900460ff161561130957fe5b600c54600d541061131657fe5b600d54600c5490965061132f908763ffffffff611bde16565b945084860193508592505b838310156113b457600b80548490811061135057fe5b600091825260209091200154600160a060020a03169150611370826111b6565b15156113a95761137f82610ebf565b90506000811115611396576113948282610b6d565b505b61139f82611fa1565b600d805460010190555b60019092019161133a565b600c54600d5414156113d057600e805461ff0019166101001790555b6001965050505050505090565b600754600090610100900460ff16156113f557600080fd5b6109318383611fe5565b600754620100009004600160a060020a03163314611467576040805160e560020a62461bcd02815260206004820152601660248201527f53656e646572206e6f7420617574686f72697a65642e00000000000000000000604482015290519081900360640190fd5b61146f61118f565b15156114c5576040805160e560020a62461bcd02815260206004820152601460248201527f55706772616465206e6f7420656e61626c65642e000000000000000000000000604482015290519081900360640190fd5b60046114cf611053565b60048111156114da57fe5b1415611530576040805160e560020a62461bcd02815260206004820152601a60248201527f55706467726164652068617320616c7265647920626567756e2e000000000000604482015290519081900360640190fd5b6008805473ffffffffffffffffffffffffffffffffffffffff1916600160a060020a038381169190911791829055604080517f61d3d7a6000000000000000000000000000000000000000000000000000000008152905192909116916361d3d7a6916004808201926020929091908290030181600087803b1580156115b457600080fd5b505af11580156115c8573d6000803e3d6000fd5b505050506040513d60208110156115de57600080fd5b5051151561165c576040805160e560020a62461bcd02815260206004820152602560248201527f4e6f7420616e2075706772616465204167656e74206f722062616420696e746560448201527f7266616365000000000000000000000000000000000000000000000000000000606482015290519081900360840190fd5b600154600860009054906101000a9004600160a060020a0316600160a060020a0316634b2ba0dd6040518163ffffffff1660e060020a028152600401602060405180830381600087803b1580156116b257600080fd5b505af11580156116c6573d6000803e3d6000fd5b505050506040513d60208110156116dc57600080fd5b5051146116e557fe5b60085460408051600160a060020a039092168252517f7845d5aa74cc410e35571258d954f23b82276e160fe8c188fa80566580f279cc9181900360200190a150565b600160a060020a03918216600090815260026020908152604080832093909416825291909152205490565b6040805180820190915260098152600080516020612144833981519152602082015281565b600354600160a060020a03163314806117945750611794336111dc565b151561179f57600080fd5b610e8a8161207e565b600754620100009004600160a060020a03163314611810576040805160e560020a62461bcd02815260206004820152601660248201527f53656e646572206e6f7420617574686f72697a65642e00000000000000000000604482015290519081900360640190fd5b600160a060020a0381161515611870576040805160e560020a62461bcd02815260206004820152601660248201527f4e6577206d61737465722063616e742062652030783000000000000000000000604482015290519081900360640190fd5b60078054600160a060020a03909216620100000275ffffffffffffffffffffffffffffffffffffffff000019909216919091179055565b336000818152600260209081526040808320600160a060020a038716808552908352818420869055815186815291519394909390927f8c5be1e5ebec7d5bd14f71427d1e84f3dd0314c0f7b2291e5b200ac8c7c3b925928290030190a350600192915050565b6119178282611922565b15156109a257600080fd5b600160a060020a03166000908152602091909152604090205460ff1690565b600160a060020a03831660009081526020819052604081205482111561196657600080fd5b600160a060020a038416600090815260026020908152604080832033845290915290205482111561199657600080fd5b600160a060020a03831615156119ab57600080fd5b600160a060020a0384166000908152602081905260409020546119d4908363ffffffff611bde16565b600160a060020a038086166000908152602081905260408082209390935590851681522054611a09908363ffffffff611ab616565b600160a060020a03808516600090815260208181526040808320949094559187168152600282528281203382529091522054611a4b908363ffffffff611bde16565b600160a060020a03808616600081815260026020908152604080832033845282529182902094909455805186815290519287169391927fddf252ad1be2c89b69c2b068fc378daa952ba7f163c4a11628f55a4df523b3ef929181900390910190a35060019392505050565b8181018281101561120b57fe5b600354600090600160a060020a03163314611add57600080fd5b60035474010000000000000000000000000000000000000000900460ff1615611b0557600080fd5b600154611b18908363ffffffff611ab616565b600155600160a060020a038316600090815260208190526040902054611b44908363ffffffff611ab616565b600160a060020a03841660008181526020818152604091829020939093558051858152905191927f0f6798a560793a54c3bcfe86a93cde1e73087d944c0ea20544137d412139688592918290030190a2604080518381529051600160a060020a038516916000917fddf252ad1be2c89b69c2b068fc378daa952ba7f163c4a11628f55a4df523b3ef9181900360200190a350600192915050565b600082821115611bea57fe5b50900390565b611c5a82600f836040518082805190602001908083835b60208310611c265780518252601f199092019160209182019101611c07565b51815160209384036101000a60001901801990921691161790529201948552506040519384900301909220929150506120fc565b81600160a060020a03167fd211483f91fc6eff862467f8de606587a30c8fc9981056f051b897a418df803a826040518080602001828103825283818151815260200191508051906020019080838360005b83811015611cc3578181015183820152602001611cab565b50505050905090810190601f168015611cf05780820380516001836020036101000a031916815260200191505b509250505060405180910390a25050565b611d6b82600f836040518082805190602001908083835b60208310611d375780518252601f199092019160209182019101611d18565b51815160209384036101000a600019018019909216911617905292019485525060405193849003019092209291505061211e565b81600160a060020a03167fbfec83d64eaa953f2708271a023ab9ee82057f8f3578d548c1a4ba0b5b7004898260405180806020018281038252838181518152602001915080519060200190808383600083811015611cc3578181015183820152602001611cab565b336000908152600260209081526040808320600160a060020a0386168452909152812054808310611e2757336000908152600260209081526040808320600160a060020a0388168452909152812055611e5c565b611e37818463ffffffff611bde16565b336000908152600260209081526040808320600160a060020a03891684529091529020555b336000818152600260209081526040808320600160a060020a0389168085529083529281902054815190815290519293927f8c5be1e5ebec7d5bd14f71427d1e84f3dd0314c0f7b2291e5b200ac8c7c3b925929181900390910190a35060019392505050565b33600090815260208190526040812054821115611ede57600080fd5b600160a060020a0383161515611ef357600080fd5b33600090815260208190526040902054611f13908363ffffffff611bde16565b3360009081526020819052604080822092909255600160a060020a03851681522054611f45908363ffffffff611ab616565b600160a060020a038416600081815260208181526040918290209390935580518581529051919233927fddf252ad1be2c89b69c2b068fc378daa952ba7f163c4a11628f55a4df523b3ef9281900390910190a350600192915050565b600354600090600160a060020a03163314611fbb57600080fd5b50600160a060020a03166000908152600a60205260409020600101805461ff001916610100179055565b336000908152600260209081526040808320600160a060020a0386168452909152812054612019908363ffffffff611ab616565b336000818152600260209081526040808320600160a060020a0389168085529083529281902085905580519485525191937f8c5be1e5ebec7d5bd14f71427d1e84f3dd0314c0f7b2291e5b200ac8c7c3b925929081900390910190a350600192915050565b600160a060020a038116151561209357600080fd5b600354604051600160a060020a038084169216907f8be0079c531659141344cd1fd0a4f28419497f9722a3daafe3b4186f6b6457e090600090a36003805473ffffffffffffffffffffffffffffffffffffffff1916600160a060020a0392909216919091179055565b600160a060020a0316600090815260209190915260409020805460ff19169055565b600160a060020a0316600090815260209190915260409020805460ff1916600117905556007375706572757365720000000000000000000000000000000000000000000000a165627a7a72305820b640579e3f57a78152910e1c3c472b9249a13af089a828d8482045caee2cac590029",
  "source": "pragma solidity ^0.4.24;\n\nimport \"openzeppelin-solidity/contracts/token/ERC20/StandardToken.sol\";\nimport \"openzeppelin-solidity/contracts/token/ERC20/MintableToken.sol\";\nimport \"openzeppelin-solidity/contracts/token/ERC20/CappedToken.sol\";\nimport \"openzeppelin-solidity/contracts/token/ERC20/DetailedERC20.sol\";\nimport \"openzeppelin-solidity/contracts/token/ERC20/PausableToken.sol\";\nimport \"openzeppelin-solidity/contracts/ownership/Superuser.sol\";\n\nimport \"./token/UpgradeableToken.sol\";\nimport \"./token/ReservableToken.sol\";\n\ncontract FoodNationToken is StandardToken, MintableToken, CappedToken, DetailedERC20, PausableToken, UpgradeableToken, ReservableToken, Superuser {\n\n    constructor(\n        string _name, \n        string _symbol, \n        uint8 _decimals, \n        uint256 _cap, \n        address[] _addrs, \n        uint256[] _amounts\n    )\n        DetailedERC20(_name, _symbol, _decimals)\n        CappedToken(_cap)\n        ReservableToken(_addrs, _amounts)\n        public\n    {\n\n    }\n}",
  "sourcePath": "/Users/igor.montella/workspace/go2chain/FoodNation/migrations/contracts/FoodNationToken.sol",
  "compiler": {
    "name": "solc",
    "version": "0.4.24+commit.e67f0147.Emscripten.clang"
  },
  "schemaVersion": "2.0.1",
  "updatedAt": "2018-09-26T01:43:38.492Z"
}