{
  "contractName": "Heritable",
  "abi": [
    {
      "constant": false,
      "inputs": [],
      "name": "renounceOwnership",
      "outputs": [],
      "payable": false,
      "stateMutability": "nonpayable",
      "type": "function"
    },
    {
      "constant": true,
      "inputs": [],
      "name": "owner",
      "outputs": [
        {
          "name": "",
          "type": "address"
        }
      ],
      "payable": false,
      "stateMutability": "view",
      "type": "function"
    },
    {
      "constant": false,
      "inputs": [
        {
          "name": "_newOwner",
          "type": "address"
        }
      ],
      "name": "transferOwnership",
      "outputs": [],
      "payable": false,
      "stateMutability": "nonpayable",
      "type": "function"
    },
    {
      "inputs": [
        {
          "name": "_heartbeatTimeout",
          "type": "uint256"
        }
      ],
      "payable": false,
      "stateMutability": "nonpayable",
      "type": "constructor"
    },
    {
      "anonymous": false,
      "inputs": [
        {
          "indexed": true,
          "name": "owner",
          "type": "address"
        },
        {
          "indexed": true,
          "name": "newHeir",
          "type": "address"
        }
      ],
      "name": "HeirChanged",
      "type": "event"
    },
    {
      "anonymous": false,
      "inputs": [
        {
          "indexed": true,
          "name": "owner",
          "type": "address"
        }
      ],
      "name": "OwnerHeartbeated",
      "type": "event"
    },
    {
      "anonymous": false,
      "inputs": [
        {
          "indexed": true,
          "name": "owner",
          "type": "address"
        },
        {
          "indexed": true,
          "name": "heir",
          "type": "address"
        },
        {
          "indexed": false,
          "name": "timeOfDeath",
          "type": "uint256"
        }
      ],
      "name": "OwnerProclaimedDead",
      "type": "event"
    },
    {
      "anonymous": false,
      "inputs": [
        {
          "indexed": true,
          "name": "previousOwner",
          "type": "address"
        },
        {
          "indexed": true,
          "name": "newOwner",
          "type": "address"
        }
      ],
      "name": "HeirOwnershipClaimed",
      "type": "event"
    },
    {
      "anonymous": false,
      "inputs": [
        {
          "indexed": true,
          "name": "previousOwner",
          "type": "address"
        }
      ],
      "name": "OwnershipRenounced",
      "type": "event"
    },
    {
      "anonymous": false,
      "inputs": [
        {
          "indexed": true,
          "name": "previousOwner",
          "type": "address"
        },
        {
          "indexed": true,
          "name": "newOwner",
          "type": "address"
        }
      ],
      "name": "OwnershipTransferred",
      "type": "event"
    },
    {
      "constant": false,
      "inputs": [
        {
          "name": "_newHeir",
          "type": "address"
        }
      ],
      "name": "setHeir",
      "outputs": [],
      "payable": false,
      "stateMutability": "nonpayable",
      "type": "function"
    },
    {
      "constant": true,
      "inputs": [],
      "name": "heir",
      "outputs": [
        {
          "name": "",
          "type": "address"
        }
      ],
      "payable": false,
      "stateMutability": "view",
      "type": "function"
    },
    {
      "constant": true,
      "inputs": [],
      "name": "heartbeatTimeout",
      "outputs": [
        {
          "name": "",
          "type": "uint256"
        }
      ],
      "payable": false,
      "stateMutability": "view",
      "type": "function"
    },
    {
      "constant": true,
      "inputs": [],
      "name": "timeOfDeath",
      "outputs": [
        {
          "name": "",
          "type": "uint256"
        }
      ],
      "payable": false,
      "stateMutability": "view",
      "type": "function"
    },
    {
      "constant": false,
      "inputs": [],
      "name": "removeHeir",
      "outputs": [],
      "payable": false,
      "stateMutability": "nonpayable",
      "type": "function"
    },
    {
      "constant": false,
      "inputs": [],
      "name": "proclaimDeath",
      "outputs": [],
      "payable": false,
      "stateMutability": "nonpayable",
      "type": "function"
    },
    {
      "constant": false,
      "inputs": [],
      "name": "heartbeat",
      "outputs": [],
      "payable": false,
      "stateMutability": "nonpayable",
      "type": "function"
    },
    {
      "constant": false,
      "inputs": [],
      "name": "claimHeirOwnership",
      "outputs": [],
      "payable": false,
      "stateMutability": "nonpayable",
      "type": "function"
    }
  ],
  "bytecode": "0x608060405234801561001057600080fd5b5060405160208061067f833981016040525160008054600160a060020a031916331790556100468164010000000061004c810204565b5061008b565b600054600160a060020a0316331461006357600080fd5b610074640100000000610084810204565b151561007f57600080fd5b600255565b6003541590565b6105e58061009a6000396000f3006080604052600436106100ae5763ffffffff7c01000000000000000000000000000000000000000000000000000000006000350416631c921e1681146100b357806323defc77146100ca57806324845131146100eb5780633defb96214610100578063715018a6146101155780637bca38be1461012a5780638da5cb5b1461015157806391f2ebb814610182578063b4a8f3e614610197578063ebf88de4146101ac578063f2fde38b146101c1575b600080fd5b3480156100bf57600080fd5b506100c86101e2565b005b3480156100d657600080fd5b506100c8600160a060020a03600435166102cc565b3480156100f757600080fd5b506100c861036e565b34801561010c57600080fd5b506100c86103ea565b34801561012157600080fd5b506100c861043e565b34801561013657600080fd5b5061013f6104aa565b60408051918252519081900360200190f35b34801561015d57600080fd5b506101666104b0565b60408051600160a060020a039092168252519081900360200190f35b34801561018e57600080fd5b506101666104bf565b3480156101a357600080fd5b5061013f6104ce565b3480156101b857600080fd5b506100c86104d4565b3480156101cd57600080fd5b506100c8600160a060020a0360043516610512565b600154600160a060020a031633146101f957600080fd5b610201610535565b1561020b57600080fd5b6002546003540142101561021e57600080fd5b60015460008054604051600160a060020a0393841693909116917f8be0079c531659141344cd1fd0a4f28419497f9722a3daafe3b4186f6b6457e091a360015460008054604051600160a060020a0393841693909116917f1017a357e19071e4408dbd385f24e591aa5bcee52b444dc0c8abddbe6ad29de691a36001546000805473ffffffffffffffffffffffffffffffffffffffff1916600160a060020a03909216919091178155600355565b600054600160a060020a031633146102e357600080fd5b600054600160a060020a03828116911614156102fe57600080fd5b6103066103ea565b60008054604051600160a060020a03808516939216917f4e6093f85fa64484abd692810d8a44d508792ff7b7a021d9fbd69fa1c6ff18a091a36001805473ffffffffffffffffffffffffffffffffffffffff1916600160a060020a0392909216919091179055565b600154600160a060020a0316331461038557600080fd5b61038d610535565b151561039857600080fd5b6001546000546003546040805191825251600160a060020a039384169392909216917f66389f1f3251c39e71cb18351daefea45bda23e98df0767266b8aed4ff9382779181900360200190a342600355565b600054600160a060020a0316331461040157600080fd5b60008054604051600160a060020a03909116917fd40b9d9a7572411aff4bbb95ba7bd9a9d4e9b70747ec46f8fe7913c309b6845291a26000600355565b600054600160a060020a0316331461045557600080fd5b60008054604051600160a060020a03909116917ff8df31144d9c2f0f6b59d69b8b98abd5459d07f2742c4df920b25aae33c6482091a26000805473ffffffffffffffffffffffffffffffffffffffff19169055565b60025490565b600054600160a060020a031681565b600154600160a060020a031690565b60035490565b600054600160a060020a031633146104eb57600080fd5b6104f36103ea565b6001805473ffffffffffffffffffffffffffffffffffffffff19169055565b600054600160a060020a0316331461052957600080fd5b6105328161053c565b50565b6003541590565b600160a060020a038116151561055157600080fd5b60008054604051600160a060020a03808516939216917f8be0079c531659141344cd1fd0a4f28419497f9722a3daafe3b4186f6b6457e091a36000805473ffffffffffffffffffffffffffffffffffffffff1916600160a060020a03929092169190911790555600a165627a7a72305820488a839bd48fa8444239cdc1b024488c5459a0171efcf8be38cad654eaffa6410029",
  "source": "pragma solidity ^0.4.24;\n\n\nimport \"./Ownable.sol\";\n\n\n/**\n * @title Heritable\n * @dev The Heritable contract provides ownership transfer capabilities, in the\n * case that the current owner stops \"heartbeating\". Only the heir can pronounce the\n * owner's death.\n */\ncontract Heritable is Ownable {\n  address private heir_;\n\n  // Time window the owner has to notify they are alive.\n  uint256 private heartbeatTimeout_;\n\n  // Timestamp of the owner's death, as pronounced by the heir.\n  uint256 private timeOfDeath_;\n\n  event HeirChanged(address indexed owner, address indexed newHeir);\n  event OwnerHeartbeated(address indexed owner);\n  event OwnerProclaimedDead(\n    address indexed owner,\n    address indexed heir,\n    uint256 timeOfDeath\n  );\n  event HeirOwnershipClaimed(\n    address indexed previousOwner,\n    address indexed newOwner\n  );\n\n\n  /**\n   * @dev Throw an exception if called by any account other than the heir's.\n   */\n  modifier onlyHeir() {\n    require(msg.sender == heir_);\n    _;\n  }\n\n\n  /**\n   * @notice Create a new Heritable Contract with heir address 0x0.\n   * @param _heartbeatTimeout time available for the owner to notify they are alive,\n   * before the heir can take ownership.\n   */\n  constructor(uint256 _heartbeatTimeout) public {\n    setHeartbeatTimeout(_heartbeatTimeout);\n  }\n\n  function setHeir(address _newHeir) public onlyOwner {\n    require(_newHeir != owner);\n    heartbeat();\n    emit HeirChanged(owner, _newHeir);\n    heir_ = _newHeir;\n  }\n\n  /**\n   * @dev Use these getter functions to access the internal variables in\n   * an inherited contract.\n   */\n  function heir() public view returns(address) {\n    return heir_;\n  }\n\n  function heartbeatTimeout() public view returns(uint256) {\n    return heartbeatTimeout_;\n  }\n\n  function timeOfDeath() public view returns(uint256) {\n    return timeOfDeath_;\n  }\n\n  /**\n   * @dev set heir = 0x0\n   */\n  function removeHeir() public onlyOwner {\n    heartbeat();\n    heir_ = address(0);\n  }\n\n  /**\n   * @dev Heir can pronounce the owners death. To claim the ownership, they will\n   * have to wait for `heartbeatTimeout` seconds.\n   */\n  function proclaimDeath() public onlyHeir {\n    require(ownerLives());\n    emit OwnerProclaimedDead(owner, heir_, timeOfDeath_);\n    // solium-disable-next-line security/no-block-members\n    timeOfDeath_ = block.timestamp;\n  }\n\n  /**\n   * @dev Owner can send a heartbeat if they were mistakenly pronounced dead.\n   */\n  function heartbeat() public onlyOwner {\n    emit OwnerHeartbeated(owner);\n    timeOfDeath_ = 0;\n  }\n\n  /**\n   * @dev Allows heir to transfer ownership only if heartbeat has timed out.\n   */\n  function claimHeirOwnership() public onlyHeir {\n    require(!ownerLives());\n    // solium-disable-next-line security/no-block-members\n    require(block.timestamp >= timeOfDeath_ + heartbeatTimeout_);\n    emit OwnershipTransferred(owner, heir_);\n    emit HeirOwnershipClaimed(owner, heir_);\n    owner = heir_;\n    timeOfDeath_ = 0;\n  }\n\n  function setHeartbeatTimeout(uint256 _newHeartbeatTimeout)\n    internal onlyOwner\n  {\n    require(ownerLives());\n    heartbeatTimeout_ = _newHeartbeatTimeout;\n  }\n\n  function ownerLives() internal view returns (bool) {\n    return timeOfDeath_ == 0;\n  }\n}\n",
  "sourcePath": "openzeppelin-solidity/contracts/ownership/Heritable.sol",
  "compiler": {
    "name": "solc",
    "version": "0.4.24+commit.e67f0147.Emscripten.clang"
  },
  "schemaVersion": "2.0.1",
  "updatedAt": "2018-08-30T14:26:55.168Z"
}