{
  "contractName": "PreSale",
  "abi": [
    {
      "constant": true,
      "inputs": [],
      "name": "hasClosed",
      "outputs": [
        {
          "name": "",
          "type": "bool"
        }
      ],
      "payable": false,
      "stateMutability": "view",
      "type": "function"
    },
    {
      "constant": true,
      "inputs": [],
      "name": "rate",
      "outputs": [
        {
          "name": "",
          "type": "uint256"
        }
      ],
      "payable": false,
      "stateMutability": "view",
      "type": "function"
    },
    {
      "constant": true,
      "inputs": [],
      "name": "goal",
      "outputs": [
        {
          "name": "",
          "type": "uint256"
        }
      ],
      "payable": false,
      "stateMutability": "view",
      "type": "function"
    },
    {
      "constant": true,
      "inputs": [],
      "name": "weiRaised",
      "outputs": [
        {
          "name": "",
          "type": "uint256"
        }
      ],
      "payable": false,
      "stateMutability": "view",
      "type": "function"
    },
    {
      "constant": true,
      "inputs": [],
      "name": "closingTime",
      "outputs": [
        {
          "name": "",
          "type": "uint256"
        }
      ],
      "payable": false,
      "stateMutability": "view",
      "type": "function"
    },
    {
      "constant": false,
      "inputs": [],
      "name": "finalize",
      "outputs": [],
      "payable": false,
      "stateMutability": "nonpayable",
      "type": "function"
    },
    {
      "constant": true,
      "inputs": [],
      "name": "wallet",
      "outputs": [
        {
          "name": "",
          "type": "address"
        }
      ],
      "payable": false,
      "stateMutability": "view",
      "type": "function"
    },
    {
      "constant": false,
      "inputs": [],
      "name": "renounceOwnership",
      "outputs": [],
      "payable": false,
      "stateMutability": "nonpayable",
      "type": "function"
    },
    {
      "constant": true,
      "inputs": [],
      "name": "goalReached",
      "outputs": [
        {
          "name": "",
          "type": "bool"
        }
      ],
      "payable": false,
      "stateMutability": "view",
      "type": "function"
    },
    {
      "constant": true,
      "inputs": [],
      "name": "isFinalized",
      "outputs": [
        {
          "name": "",
          "type": "bool"
        }
      ],
      "payable": false,
      "stateMutability": "view",
      "type": "function"
    },
    {
      "constant": true,
      "inputs": [],
      "name": "owner",
      "outputs": [
        {
          "name": "",
          "type": "address"
        }
      ],
      "payable": false,
      "stateMutability": "view",
      "type": "function"
    },
    {
      "constant": false,
      "inputs": [],
      "name": "claimRefund",
      "outputs": [],
      "payable": false,
      "stateMutability": "nonpayable",
      "type": "function"
    },
    {
      "constant": true,
      "inputs": [],
      "name": "openingTime",
      "outputs": [
        {
          "name": "",
          "type": "uint256"
        }
      ],
      "payable": false,
      "stateMutability": "view",
      "type": "function"
    },
    {
      "constant": true,
      "inputs": [],
      "name": "remainingTokens",
      "outputs": [
        {
          "name": "",
          "type": "uint256"
        }
      ],
      "payable": false,
      "stateMutability": "view",
      "type": "function"
    },
    {
      "constant": true,
      "inputs": [],
      "name": "tokenWallet",
      "outputs": [
        {
          "name": "",
          "type": "address"
        }
      ],
      "payable": false,
      "stateMutability": "view",
      "type": "function"
    },
    {
      "constant": false,
      "inputs": [
        {
          "name": "_beneficiary",
          "type": "address"
        }
      ],
      "name": "buyTokens",
      "outputs": [],
      "payable": true,
      "stateMutability": "payable",
      "type": "function"
    },
    {
      "constant": false,
      "inputs": [
        {
          "name": "_newOwner",
          "type": "address"
        }
      ],
      "name": "transferOwnership",
      "outputs": [],
      "payable": false,
      "stateMutability": "nonpayable",
      "type": "function"
    },
    {
      "constant": true,
      "inputs": [],
      "name": "token",
      "outputs": [
        {
          "name": "",
          "type": "address"
        }
      ],
      "payable": false,
      "stateMutability": "view",
      "type": "function"
    },
    {
      "inputs": [
        {
          "name": "_rate",
          "type": "uint256"
        },
        {
          "name": "_wallet",
          "type": "address"
        },
        {
          "name": "_token",
          "type": "address"
        },
        {
          "name": "_openingTime",
          "type": "uint256"
        },
        {
          "name": "_closingTime",
          "type": "uint256"
        },
        {
          "name": "_goal",
          "type": "uint256"
        },
        {
          "name": "_tokenWallet",
          "type": "address"
        }
      ],
      "payable": false,
      "stateMutability": "nonpayable",
      "type": "constructor"
    },
    {
      "payable": true,
      "stateMutability": "payable",
      "type": "fallback"
    },
    {
      "anonymous": false,
      "inputs": [],
      "name": "Finalized",
      "type": "event"
    },
    {
      "anonymous": false,
      "inputs": [
        {
          "indexed": true,
          "name": "purchaser",
          "type": "address"
        },
        {
          "indexed": true,
          "name": "beneficiary",
          "type": "address"
        },
        {
          "indexed": false,
          "name": "value",
          "type": "uint256"
        },
        {
          "indexed": false,
          "name": "amount",
          "type": "uint256"
        }
      ],
      "name": "TokenPurchase",
      "type": "event"
    },
    {
      "anonymous": false,
      "inputs": [
        {
          "indexed": true,
          "name": "previousOwner",
          "type": "address"
        }
      ],
      "name": "OwnershipRenounced",
      "type": "event"
    },
    {
      "anonymous": false,
      "inputs": [
        {
          "indexed": true,
          "name": "previousOwner",
          "type": "address"
        },
        {
          "indexed": true,
          "name": "newOwner",
          "type": "address"
        }
      ],
      "name": "OwnershipTransferred",
      "type": "event"
    }
  ],
  "bytecode": "0x60806040526007805460ff1916905534801561001a57600080fd5b5060405160e08061133a83398101604090815281516020830151918301516060840151608085015160a086015160c09096015160008054600160a060020a03191633178155949693949293919281908390869086908b908b908b90831161008057600080fd5b600160a060020a038216151561009557600080fd5b600160a060020a03811615156100aa57600080fd5b60039290925560028054600160a060020a03928316600160a060020a03199182161790915560018054929093169116179055428210156100e957600080fd5b818110156100f657600080fd5b6005919091556006556000811161010c57600080fd5b600254600160a060020a03166101206101aa565b600160a060020a03909116815260405190819003602001906000f08015801561014d573d6000803e3d6000fd5b5060098054600160a060020a031916600160a060020a039283161790556008919091558116151561017d57600080fd5b600a8054600160a060020a031916600160a060020a0392909216919091179055506101ba95505050505050565b60405161075780610be383390190565b610a1a806101c96000396000f3006080604052600436106100e25763ffffffff60e060020a6000350416631515bc2b81146100ed5780632c4e722e14610116578063401938831461013d5780634042b66f146101525780634b6753bc146101675780634bb278f31461017c578063521eb27314610191578063715018a6146101c25780637d3d6522146101d75780638d4e4083146101ec5780638da5cb5b14610201578063b5545a3c14610216578063b7a8807c1461022b578063bf58390314610240578063bff99c6c14610255578063ec8ac4d81461026a578063f2fde38b1461027e578063fc0c546a1461029f575b6100eb336102b4565b005b3480156100f957600080fd5b50610102610356565b604080519115158252519081900360200190f35b34801561012257600080fd5b5061012b61035e565b60408051918252519081900360200190f35b34801561014957600080fd5b5061012b610364565b34801561015e57600080fd5b5061012b61036a565b34801561017357600080fd5b5061012b610370565b34801561018857600080fd5b506100eb610376565b34801561019d57600080fd5b506101a66103f0565b60408051600160a060020a039092168252519081900360200190f35b3480156101ce57600080fd5b506100eb6103ff565b3480156101e357600080fd5b5061010261046b565b3480156101f857600080fd5b50610102610476565b34801561020d57600080fd5b506101a661047f565b34801561022257600080fd5b506100eb61048e565b34801561023757600080fd5b5061012b610530565b34801561024c57600080fd5b5061012b610536565b34801561026157600080fd5b506101a66105db565b6100eb600160a060020a03600435166102b4565b34801561028a57600080fd5b506100eb600160a060020a03600435166105ea565b3480156102ab57600080fd5b506101a661060d565b3460006102c1838361061c565b6102ca82610649565b6004549091506102e0908363ffffffff61066616565b6004556102ed8382610673565b60408051838152602081018390528151600160a060020a0386169233927f623b3804fa71d67900d064613da8f94b9617215ee90799290593e1745087ad18929081900390910190a361033f8383610645565b61034761067d565b6103518383610645565b505050565b600654421190565b60035481565b60085481565b60045481565b60065481565b600054600160a060020a0316331461038d57600080fd5b60075460ff161561039d57600080fd5b6103a5610356565b15156103b057600080fd5b6103b86106fe565b6040517f6823b073d48d6e3a7d385eeb601452d680e74bb46afe3255a7d778f3a9b1768190600090a16007805460ff19166001179055565b600254600160a060020a031681565b600054600160a060020a0316331461041657600080fd5b60008054604051600160a060020a03909116917ff8df31144d9c2f0f6b59d69b8b98abd5459d07f2742c4df920b25aae33c6482091a26000805473ffffffffffffffffffffffffffffffffffffffff19169055565b600854600454101590565b60075460ff1681565b600054600160a060020a031681565b60075460ff16151561049f57600080fd5b6104a761046b565b156104b157600080fd5b600954604080517f51cff8d90000000000000000000000000000000000000000000000000000000081523360048201529051600160a060020a03909216916351cff8d99160248082019260009290919082900301818387803b15801561051657600080fd5b505af115801561052a573d6000803e3d6000fd5b50505050565b60055481565b600154600a54604080517fdd62ed3e000000000000000000000000000000000000000000000000000000008152600160a060020a0392831660048201523060248201529051600093929092169163dd62ed3e9160448082019260209290919082900301818787803b1580156105aa57600080fd5b505af11580156105be573d6000803e3d6000fd5b505050506040513d60208110156105d457600080fd5b5051905090565b600a54600160a060020a031681565b600054600160a060020a0316331461060157600080fd5b61060a81610858565b50565b600154600160a060020a031681565b600554421015801561063057506006544211155b151561063b57600080fd5b61064582826108d5565b5050565b6000610660600354836108f690919063ffffffff16565b92915050565b8181018281101561066057fe5b610645828261091f565b600954604080517ff340fa010000000000000000000000000000000000000000000000000000000081523360048201529051600160a060020a039092169163f340fa01913491602480830192600092919082900301818588803b1580156106e357600080fd5b505af11580156106f7573d6000803e3d6000fd5b5050505050565b61070661046b565b156107e657600960009054906101000a9004600160a060020a0316600160a060020a03166343d726d66040518163ffffffff1660e060020a028152600401600060405180830381600087803b15801561075e57600080fd5b505af1158015610772573d6000803e3d6000fd5b50505050600960009054906101000a9004600160a060020a0316600160a060020a0316639af6549a6040518163ffffffff1660e060020a028152600401600060405180830381600087803b1580156107c957600080fd5b505af11580156107dd573d6000803e3d6000fd5b50505050610852565b600960009054906101000a9004600160a060020a0316600160a060020a0316638c52dc416040518163ffffffff1660e060020a028152600401600060405180830381600087803b15801561083957600080fd5b505af115801561084d573d6000803e3d6000fd5b505050505b6108565b565b600160a060020a038116151561086d57600080fd5b60008054604051600160a060020a03808516939216917f8be0079c531659141344cd1fd0a4f28419497f9722a3daafe3b4186f6b6457e091a36000805473ffffffffffffffffffffffffffffffffffffffff1916600160a060020a0392909216919091179055565b600160a060020a03821615156108ea57600080fd5b80151561064557600080fd5b600082151561090757506000610660565b5081810281838281151561091757fe5b041461066057fe5b600a5460015461064591600160a060020a039182169116848463ffffffff61094316565b604080517f23b872dd000000000000000000000000000000000000000000000000000000008152600160a060020a0385811660048301528481166024830152604482018490529151918616916323b872dd916064808201926020929091908290030181600087803b1580156109b757600080fd5b505af11580156109cb573d6000803e3d6000fd5b505050506040513d60208110156109e157600080fd5b5051151561052a57600080fd00a165627a7a72305820d0d366774033fc1f3027625c835cc4629eed7676023929a274f5c84c239d72cc0029608060405234801561001057600080fd5b50604051602080610757833981016040525160008054600160a060020a03191633179055600160a060020a038116151561004957600080fd5b6002805460ff19600160a060020a03939093166101000261010060a860020a0319909116179190911690556106d4806100836000396000f3006080604052600436106100b95763ffffffff7c010000000000000000000000000000000000000000000000000000000060003504166338af3eed81146100be57806343d726d6146100ef57806351cff8d914610106578063685ca19414610127578063715018a61461015c5780638c52dc41146101715780638da5cb5b146101865780639af6549a1461019b578063c19d93fb146101b0578063e3a9db1a146101e9578063f2fde38b1461021c578063f340fa011461023d575b600080fd5b3480156100ca57600080fd5b506100d3610251565b60408051600160a060020a039092168252519081900360200190f35b3480156100fb57600080fd5b50610104610265565b005b34801561011257600080fd5b50610104600160a060020a03600435166102d0565b34801561013357600080fd5b50610148600160a060020a03600435166102f0565b604080519115158252519081900360200190f35b34801561016857600080fd5b5061010461030c565b34801561017d57600080fd5b50610104610378565b34801561019257600080fd5b506100d36103e4565b3480156101a757600080fd5b506101046103f3565b3480156101bc57600080fd5b506101c561044f565b604051808260028111156101d557fe5b60ff16815260200191505060405180910390f35b3480156101f557600080fd5b5061020a600160a060020a0360043516610458565b60408051918252519081900360200190f35b34801561022857600080fd5b50610104600160a060020a0360043516610473565b610104600160a060020a0360043516610493565b6002546101009004600160a060020a031681565b600054600160a060020a0316331461027c57600080fd5b60006002805460ff169081111561028f57fe5b1461029957600080fd5b6002805460ff1916811790556040517f1cdde67b72a90f19919ac732a437ac2f7a10fc128d28c2a6e525d89ce5cd9d3a90600090a1565b6102d9816102f0565b15156102e457600080fd5b6102ed816104b9565b50565b600060016002805460ff169081111561030557fe5b1492915050565b600054600160a060020a0316331461032357600080fd5b60008054604051600160a060020a03909116917ff8df31144d9c2f0f6b59d69b8b98abd5459d07f2742c4df920b25aae33c6482091a26000805473ffffffffffffffffffffffffffffffffffffffff19169055565b600054600160a060020a0316331461038f57600080fd5b60006002805460ff16908111156103a257fe5b146103ac57600080fd5b6002805460ff191660011790556040517f599d8e5a83cffb867d051598c4d70e805d59802d8081c1c7d6dffc5b6aca2b8990600090a1565b600054600160a060020a031681565b6002805460ff168181111561040457fe5b1461040e57600080fd5b600254604051600160a060020a036101009092049190911690303180156108fc02916000818181858888f193505050501580156102ed573d6000803e3d6000fd5b60025460ff1681565b600160a060020a031660009081526001602052604090205490565b600054600160a060020a0316331461048a57600080fd5b6102ed8161057e565b60006002805460ff16908111156104a657fe5b146104b057600080fd5b6102ed816105fb565b60008054600160a060020a031633146104d157600080fd5b50600160a060020a03811660009081526001602052604090205430318111156104f657fe5b600160a060020a0382166000818152600160205260408082208290555183156108fc0291849190818181858888f1935050505015801561053a573d6000803e3d6000fd5b50604080518281529051600160a060020a038416917f7084f5476618d8e60b11ef0d7d3f06914655adb8793e28ff7f018d4c76d505d5919081900360200190a25050565b600160a060020a038116151561059357600080fd5b60008054604051600160a060020a03808516939216917f8be0079c531659141344cd1fd0a4f28419497f9722a3daafe3b4186f6b6457e091a36000805473ffffffffffffffffffffffffffffffffffffffff1916600160a060020a0392909216919091179055565b60008054600160a060020a0316331461061357600080fd5b50600160a060020a038116600090815260016020526040902054349061063f908263ffffffff61069516565b600160a060020a038316600081815260016020908152604091829020939093558051848152905191927f2da466a7b24304f47e87fa2e1e5a81b9831ce54fec19055ce277ca2f39ba42c492918290030190a25050565b818101828110156106a257fe5b929150505600a165627a7a723058206a163c863dc945ba4ed9a8104ed4166eebab79afdbc9677de48facea640d65830029",
  "source": "pragma solidity 0.4.24;\n\nimport \"openzeppelin-solidity/contracts/token/ERC20/ERC20.sol\";\nimport \"openzeppelin-solidity/contracts/crowdsale/Crowdsale.sol\";\nimport \"openzeppelin-solidity/contracts/crowdsale/validation/TimedCrowdsale.sol\";\nimport \"openzeppelin-solidity/contracts/crowdsale/distribution/RefundableCrowdsale.sol\";\nimport \"openzeppelin-solidity/contracts/crowdsale/emission/AllowanceCrowdsale.sol\";\nimport \"./ETHUSDPricing.sol\";\n\n\ncontract PreSale is Crowdsale, TimedCrowdsale, RefundableCrowdsale, AllowanceCrowdsale {\n    constructor(\n        uint256 _rate,\n        address _wallet,\n        ERC20 _token,\n        uint256 _openingTime,\n        uint256 _closingTime,\n        uint256 _goal,\n        address _tokenWallet\n    )\n        Crowdsale(_rate, _wallet, _token)\n        TimedCrowdsale(_openingTime, _closingTime)\n        RefundableCrowdsale(_goal)\n        AllowanceCrowdsale(_tokenWallet)\n        public\n    {\n\n    }\n}",
  "sourcePath": "/Users/igor.montella/workspace/go2chain/FoodNation/smart_contracts/contracts/PreSale.sol",
  "compiler": {
    "name": "solc",
    "version": "0.4.24+commit.e67f0147.Emscripten.clang"
  },
  "schemaVersion": "2.0.1",
  "updatedAt": "2018-08-23T13:38:21.212Z"
}