{
  "contractName": "PreSale",
  "abi": [
    {
      "constant": true,
      "inputs": [],
      "name": "milestoneCount",
      "outputs": [
        {
          "name": "",
          "type": "uint256"
        }
      ],
      "payable": false,
      "stateMutability": "view",
      "type": "function"
    },
    {
      "constant": true,
      "inputs": [
        {
          "name": "n",
          "type": "uint256"
        }
      ],
      "name": "getMilestoneTimeAndRate",
      "outputs": [
        {
          "name": "",
          "type": "uint256"
        },
        {
          "name": "",
          "type": "uint256"
        }
      ],
      "payable": false,
      "stateMutability": "view",
      "type": "function"
    },
    {
      "constant": true,
      "inputs": [],
      "name": "hasClosed",
      "outputs": [
        {
          "name": "",
          "type": "bool"
        }
      ],
      "payable": false,
      "stateMutability": "view",
      "type": "function"
    },
    {
      "constant": true,
      "inputs": [],
      "name": "rate",
      "outputs": [
        {
          "name": "",
          "type": "uint256"
        }
      ],
      "payable": false,
      "stateMutability": "view",
      "type": "function"
    },
    {
      "constant": true,
      "inputs": [],
      "name": "cap",
      "outputs": [
        {
          "name": "",
          "type": "uint256"
        }
      ],
      "payable": false,
      "stateMutability": "view",
      "type": "function"
    },
    {
      "constant": true,
      "inputs": [],
      "name": "goal",
      "outputs": [
        {
          "name": "",
          "type": "uint256"
        }
      ],
      "payable": false,
      "stateMutability": "view",
      "type": "function"
    },
    {
      "constant": true,
      "inputs": [],
      "name": "weiRaised",
      "outputs": [
        {
          "name": "",
          "type": "uint256"
        }
      ],
      "payable": false,
      "stateMutability": "view",
      "type": "function"
    },
    {
      "constant": true,
      "inputs": [],
      "name": "closingTime",
      "outputs": [
        {
          "name": "",
          "type": "uint256"
        }
      ],
      "payable": false,
      "stateMutability": "view",
      "type": "function"
    },
    {
      "constant": true,
      "inputs": [],
      "name": "getFirstMilestoneStartsAt",
      "outputs": [
        {
          "name": "",
          "type": "uint256"
        }
      ],
      "payable": false,
      "stateMutability": "view",
      "type": "function"
    },
    {
      "constant": true,
      "inputs": [],
      "name": "tokensSold",
      "outputs": [
        {
          "name": "",
          "type": "uint256"
        }
      ],
      "payable": false,
      "stateMutability": "view",
      "type": "function"
    },
    {
      "constant": true,
      "inputs": [],
      "name": "wallet",
      "outputs": [
        {
          "name": "",
          "type": "address"
        }
      ],
      "payable": false,
      "stateMutability": "view",
      "type": "function"
    },
    {
      "constant": true,
      "inputs": [
        {
          "name": "n",
          "type": "uint256"
        }
      ],
      "name": "getTokensSold",
      "outputs": [
        {
          "name": "",
          "type": "uint256"
        }
      ],
      "payable": false,
      "stateMutability": "view",
      "type": "function"
    },
    {
      "constant": false,
      "inputs": [],
      "name": "renounceOwnership",
      "outputs": [],
      "payable": false,
      "stateMutability": "nonpayable",
      "type": "function"
    },
    {
      "constant": false,
      "inputs": [
        {
          "name": "_milestoneStartTime",
          "type": "uint256[]"
        },
        {
          "name": "_milestoneCap",
          "type": "uint256[]"
        },
        {
          "name": "_milestoneRate",
          "type": "uint256[]"
        }
      ],
      "name": "setMilestonesList",
      "outputs": [],
      "payable": false,
      "stateMutability": "nonpayable",
      "type": "function"
    },
    {
      "constant": true,
      "inputs": [],
      "name": "isFinalized",
      "outputs": [
        {
          "name": "",
          "type": "bool"
        }
      ],
      "payable": false,
      "stateMutability": "view",
      "type": "function"
    },
    {
      "constant": true,
      "inputs": [],
      "name": "owner",
      "outputs": [
        {
          "name": "",
          "type": "address"
        }
      ],
      "payable": false,
      "stateMutability": "view",
      "type": "function"
    },
    {
      "constant": true,
      "inputs": [],
      "name": "minimumContribution",
      "outputs": [
        {
          "name": "",
          "type": "uint256"
        }
      ],
      "payable": false,
      "stateMutability": "view",
      "type": "function"
    },
    {
      "constant": true,
      "inputs": [],
      "name": "MAX_MILESTONE",
      "outputs": [
        {
          "name": "",
          "type": "uint256"
        }
      ],
      "payable": false,
      "stateMutability": "view",
      "type": "function"
    },
    {
      "constant": true,
      "inputs": [],
      "name": "milestoningFinished",
      "outputs": [
        {
          "name": "",
          "type": "bool"
        }
      ],
      "payable": false,
      "stateMutability": "view",
      "type": "function"
    },
    {
      "constant": true,
      "inputs": [],
      "name": "openingTime",
      "outputs": [
        {
          "name": "",
          "type": "uint256"
        }
      ],
      "payable": false,
      "stateMutability": "view",
      "type": "function"
    },
    {
      "constant": true,
      "inputs": [],
      "name": "getLastMilestoneStartsAt",
      "outputs": [
        {
          "name": "",
          "type": "uint256"
        }
      ],
      "payable": false,
      "stateMutability": "view",
      "type": "function"
    },
    {
      "constant": true,
      "inputs": [
        {
          "name": "",
          "type": "uint256"
        }
      ],
      "name": "milestones",
      "outputs": [
        {
          "name": "index",
          "type": "uint256"
        },
        {
          "name": "startTime",
          "type": "uint256"
        },
        {
          "name": "tokensSold",
          "type": "uint256"
        },
        {
          "name": "cap",
          "type": "uint256"
        },
        {
          "name": "rate",
          "type": "uint256"
        }
      ],
      "payable": false,
      "stateMutability": "view",
      "type": "function"
    },
    {
      "constant": false,
      "inputs": [
        {
          "name": "_beneficiary",
          "type": "address"
        }
      ],
      "name": "buyTokens",
      "outputs": [],
      "payable": true,
      "stateMutability": "payable",
      "type": "function"
    },
    {
      "constant": false,
      "inputs": [
        {
          "name": "_newOwner",
          "type": "address"
        }
      ],
      "name": "transferOwnership",
      "outputs": [],
      "payable": false,
      "stateMutability": "nonpayable",
      "type": "function"
    },
    {
      "constant": true,
      "inputs": [],
      "name": "token",
      "outputs": [
        {
          "name": "",
          "type": "address"
        }
      ],
      "payable": false,
      "stateMutability": "view",
      "type": "function"
    },
    {
      "inputs": [
        {
          "name": "_rate",
          "type": "uint256"
        },
        {
          "name": "_wallet",
          "type": "address"
        },
        {
          "name": "_token",
          "type": "address"
        },
        {
          "name": "_openingTime",
          "type": "uint256"
        },
        {
          "name": "_closingTime",
          "type": "uint256"
        },
        {
          "name": "_goal",
          "type": "uint256"
        },
        {
          "name": "_cap",
          "type": "uint256"
        },
        {
          "name": "_minimumContribution",
          "type": "uint256"
        },
        {
          "name": "_usdPrice",
          "type": "address"
        }
      ],
      "payable": false,
      "stateMutability": "nonpayable",
      "type": "constructor"
    },
    {
      "payable": true,
      "stateMutability": "payable",
      "type": "fallback"
    },
    {
      "anonymous": false,
      "inputs": [],
      "name": "Finalized",
      "type": "event"
    },
    {
      "anonymous": false,
      "inputs": [
        {
          "indexed": true,
          "name": "purchaser",
          "type": "address"
        },
        {
          "indexed": true,
          "name": "beneficiary",
          "type": "address"
        },
        {
          "indexed": false,
          "name": "value",
          "type": "uint256"
        },
        {
          "indexed": false,
          "name": "amount",
          "type": "uint256"
        }
      ],
      "name": "TokenPurchase",
      "type": "event"
    },
    {
      "anonymous": false,
      "inputs": [
        {
          "indexed": true,
          "name": "previousOwner",
          "type": "address"
        }
      ],
      "name": "OwnershipRenounced",
      "type": "event"
    },
    {
      "anonymous": false,
      "inputs": [
        {
          "indexed": true,
          "name": "previousOwner",
          "type": "address"
        },
        {
          "indexed": true,
          "name": "newOwner",
          "type": "address"
        }
      ],
      "name": "OwnershipTransferred",
      "type": "event"
    },
    {
      "constant": true,
      "inputs": [],
      "name": "capReached",
      "outputs": [
        {
          "name": "",
          "type": "bool"
        }
      ],
      "payable": false,
      "stateMutability": "view",
      "type": "function"
    },
    {
      "constant": true,
      "inputs": [
        {
          "name": "n",
          "type": "uint256"
        }
      ],
      "name": "capReached",
      "outputs": [
        {
          "name": "",
          "type": "bool"
        }
      ],
      "payable": false,
      "stateMutability": "view",
      "type": "function"
    },
    {
      "constant": false,
      "inputs": [],
      "name": "claimRefund",
      "outputs": [],
      "payable": false,
      "stateMutability": "nonpayable",
      "type": "function"
    },
    {
      "constant": true,
      "inputs": [],
      "name": "goalReached",
      "outputs": [
        {
          "name": "",
          "type": "bool"
        }
      ],
      "payable": false,
      "stateMutability": "view",
      "type": "function"
    },
    {
      "constant": false,
      "inputs": [],
      "name": "finalize",
      "outputs": [],
      "payable": false,
      "stateMutability": "nonpayable",
      "type": "function"
    }
  ],
  "bytecode": "0x60806040526000603a55603b805460ff19908116909155603f8054909116905534801561002b57600080fd5b506040516101208062001a9c83398101604090815281516020830151918301516060840151608085015160a086015160c087015160e08801516101009098015160008054600160a060020a0319163317815596989596949593949293919286908690829082908d908d908d9083116100a257600080fd5b600160a060020a03821615156100b757600080fd5b600160a060020a03811615156100cc57600080fd5b60039290925560028054600160a060020a03928316600160a060020a031991821617909155600180549290931691161790554282101561010b57600080fd5b81811161011757600080fd5b60069190915560075550506000831161012f57600080fd5b6000821161013c57600080fd5b6000841161014957600080fd5b603c839055603d829055600254600160a060020a03166101676101df565b600160a060020a03909116815260405190819003602001906000f080158015610194573d6000803e3d6000fd5b50603f805461010060a860020a031916610100600160a060020a0393841602179055603e9490945560408054600160a060020a0319169190941617909255506101f095505050505050565b604051610757806200134583390190565b61114580620002006000396000f3006080604052600436106101665763ffffffff60e060020a6000350416630681ca55811461017157806313b796f4146101985780631515bc2b146101c95780632c4e722e146101f2578063355274ea14610207578063401938831461021c5780634042b66f146102315780634b6753bc146102465780634bb278f31461025b5780634d9577af146102705780634f93594514610285578063518ab2a81461029a578063521eb273146102af57806357d17805146102e05780636bf006c8146102f8578063715018a6146103105780637d3d652214610325578063819f89271461033a5780638d4e4083146104015780638da5cb5b14610416578063937e09b11461042b57806396821fc114610440578063b4f6bff514610455578063b5545a3c1461046a578063b7a8807c1461047f578063ce1ed18214610494578063e89e4ed6146104a9578063ec8ac4d8146104ec578063f2fde38b14610500578063fc0c546a14610521575b61016f33610536565b005b34801561017d57600080fd5b506101866105ec565b60408051918252519081900360200190f35b3480156101a457600080fd5b506101b06004356105f2565b6040805192835260208301919091528051918290030190f35b3480156101d557600080fd5b506101de61062a565b604080519115158252519081900360200190f35b3480156101fe57600080fd5b50610186610632565b34801561021357600080fd5b50610186610638565b34801561022857600080fd5b5061018661063e565b34801561023d57600080fd5b50610186610644565b34801561025257600080fd5b5061018661064a565b34801561026757600080fd5b5061016f610650565b34801561027c57600080fd5b506101866106d8565b34801561029157600080fd5b506101de6106eb565b3480156102a657600080fd5b506101866106f6565b3480156102bb57600080fd5b506102c46106fc565b60408051600160a060020a039092168252519081900360200190f35b3480156102ec57600080fd5b5061018660043561070b565b34801561030457600080fd5b506101de600435610729565b34801561031c57600080fd5b5061016f610760565b34801561033157600080fd5b506101de6107cc565b34801561034657600080fd5b506040805160206004803580820135838102808601850190965280855261016f95369593946024949385019291829185019084908082843750506040805187358901803560208181028481018201909552818452989b9a998901989297509082019550935083925085019084908082843750506040805187358901803560208181028481018201909552818452989b9a9989019892975090820195509350839250850190849080828437509497506107d79650505050505050565b34801561040d57600080fd5b506101de61098a565b34801561042257600080fd5b506102c4610993565b34801561043757600080fd5b506101866109a2565b34801561044c57600080fd5b506101866109a8565b34801561046157600080fd5b506101de6109ad565b34801561047657600080fd5b5061016f6109b6565b34801561048b57600080fd5b50610186610a5c565b3480156104a057600080fd5b50610186610a62565b3480156104b557600080fd5b506104c1600435610a6c565b6040805195865260208601949094528484019290925260608401526080830152519081900360a00190f35b61016f600160a060020a0360043516610536565b34801561050c57600080fd5b5061016f600160a060020a0360043516610a9e565b34801561052d57600080fd5b506102c4610ac1565b34600061054282610ad0565b905061054f838383610b80565b600454610562908363ffffffff610bbb16565b600455600554610578908263ffffffff610bbb16565b6005556105858382610bc8565b60408051838152602081018390528151600160a060020a0386169233927f623b3804fa71d67900d064613da8f94b9617215ee90799290593e1745087ad18929081900390910190a36105d8838383610bd6565b6105e0610be1565b6105e78383835b505050565b603a5481565b600080600883600a811061060257fe5b6005020160010154600884600a8110151561061957fe5b600502016004015491509150915091565b600754421190565b60035481565b603c5481565b603e5481565b60045481565b60075481565b600054600160a060020a0316331461066757600080fd5b603f5460ff161561067757600080fd5b61067f6107cc565b8061068d575061068d61062a565b151561069857600080fd5b6106a0610c66565b6040517f6823b073d48d6e3a7d385eeb601452d680e74bb46afe3255a7d778f3a9b1768190600090a1603f805460ff19166001179055565b60006106e2610da3565b60200151905090565b603c54600554101590565b60055481565b600254600160a060020a031681565b6000600882600a811061071a57fe5b60050201600201549050919050565b6000600882600a811061073857fe5b6005020160030154600883600a8110151561074f57fe5b600502016002015410159050919050565b600054600160a060020a0316331461077757600080fd5b60008054604051600160a060020a03909116917ff8df31144d9c2f0f6b59d69b8b98abd5459d07f2742c4df920b25aae33c6482091a26000805473ffffffffffffffffffffffffffffffffffffffff19169055565b603e54600554101590565b603b5460009060ff16156107ea57600080fd5b83516000106107f857600080fd5b8251845114801561080a575081518351145b151561081557600080fd5b60065484600081518110151561082757fe5b602090810290910101511461083b57600080fd5b60075484518590600019810190811061085057fe5b602090810290910101511061086457600080fd5b5060005b83518110156109775760008111156108b25760086000198201600a811061088b57fe5b600502016001015484828151811015156108a157fe5b60209081029091010151116108b257fe5b60a06040519081016040528082815260200185838151811015156108d257fe5b9060200190602002015181526020016000815260200184838151811015156108f657fe5b906020019060200201518152602001838381518110151561091357fe5b602090810290910101519052600882600a811061092c57fe5b82516005919091029190910190815560208201516001808301919091556040830151600283015560608301516003830155608090920151600490910155603a80548201905501610868565b5050603b805460ff191660011790555050565b603f5460ff1681565b600054600160a060020a031681565b603d5481565b600a81565b603b5460ff1681565b603f5460ff1615156109c757600080fd5b6109cf6107cc565b156109d957600080fd5b603f54604080517f51cff8d90000000000000000000000000000000000000000000000000000000081523360048201529051610100909204600160a060020a0316916351cff8d99160248082019260009290919082900301818387803b158015610a4257600080fd5b505af1158015610a56573d6000803e3d6000fd5b50505050565b60065481565b60006106e2610df7565b600881600a8110610a7957fe5b6005020180546001820154600283015460038401546004909401549294509092909185565b600054600160a060020a03163314610ab557600080fd5b610abe81610e13565b50565b600154600160a060020a031681565b6000610b7a610add610e90565b6040805481517fe7572230000000000000000000000000000000000000000000000000000000008152600481018790529151600160a060020a039091169163e75722309160248083019260209291908290030181600087803b158015610b4257600080fd5b505af1158015610b56573d6000803e3d6000fd5b505050506040513d6020811015610b6c57600080fd5b50519063ffffffff610eb316565b92915050565b610b8b838383610ec8565b603d54821015610b9a57600080fd5b603c54600554610bb0908363ffffffff610bbb16565b11156105e757600080fd5b81810182811015610b7a57fe5b610bd28282610f1d565b5050565b6105e7838383610fc3565b603f54604080517ff340fa010000000000000000000000000000000000000000000000000000000081523360048201529051610100909204600160a060020a03169163f340fa01913491602480830192600092919082900301818588803b158015610c4b57600080fd5b505af1158015610c5f573d6000803e3d6000fd5b5050505050565b610c6e6107cc565b15610d4e57603f60019054906101000a9004600160a060020a0316600160a060020a03166343d726d66040518163ffffffff1660e060020a028152600401600060405180830381600087803b158015610cc657600080fd5b505af1158015610cda573d6000803e3d6000fd5b50505050603f60019054906101000a9004600160a060020a0316600160a060020a0316639af6549a6040518163ffffffff1660e060020a028152600401600060405180830381600087803b158015610d3157600080fd5b505af1158015610d45573d6000803e3d6000fd5b50505050610da1565b603f60019054906101000a9004600160a060020a0316600160a060020a0316638c52dc416040518163ffffffff1660e060020a028152600401600060405180830381600087803b158015610a4257600080fd5b565b610dab6110e9565b600860005b6005020160a0604051908101604052908160008201548152602001600182015481526020016002820154815260200160038201548152602001600482015481525050905090565b610dff6110e9565b603a5460089060001901600a8110610db057fe5b600160a060020a0381161515610e2857600080fd5b60008054604051600160a060020a03808516939216917f8be0079c531659141344cd1fd0a4f28419497f9722a3daafe3b4186f6b6457e091a36000805473ffffffffffffffffffffffffffffffffffffffff1916600160a060020a0392909216919091179055565b60006008610e9c611000565b600a8110610ea657fe5b6005020160040154905090565b60008183811515610ec057fe5b049392505050565b610ed38383836110a3565b6008610edd611000565b600a8110610ee757fe5b6005020160030154610bb0826008610efd611000565b600a8110610f0757fe5b6005020160020154610bbb90919063ffffffff16565b600154604080517f40c10f19000000000000000000000000000000000000000000000000000000008152600160a060020a03858116600483015260248201859052915191909216916340c10f199160448083019260209291908290030181600087803b158015610f8c57600080fd5b505af1158015610fa0573d6000803e3d6000fd5b505050506040513d6020811015610fb657600080fd5b50511515610bd257600080fd5b610fce8383836105e7565b610fdc816008610efd611000565b6008610fe6611000565b600a8110610ff057fe5b6005020160020181905550505050565b6000806000600654421015801561101957506007544211155b151561102457600080fd5b5060005b603a5481101561106457905080600881600a811061104257fe5b600502016001015442101561105c57600181039150611064565b600101611028565b600882600a811061107157fe5b6005020160030154600883600a8110151561108857fe5b6005020160020154111561109d578160010191505b50919050565b60065442101580156110b757506007544211155b15156110c257600080fd5b6105e7838383600160a060020a03831615156110dd57600080fd5b8115156105e757600080fd5b60a060405190810160405280600081526020016000815260200160008152602001600081526020016000815250905600a165627a7a72305820c81dd2a68b6c87e3c973c386e6640300959bb65c907d437655fac18ae83a96d10029608060405234801561001057600080fd5b50604051602080610757833981016040525160008054600160a060020a03191633179055600160a060020a038116151561004957600080fd5b6002805460ff19600160a060020a03939093166101000261010060a860020a0319909116179190911690556106d4806100836000396000f3006080604052600436106100b95763ffffffff7c010000000000000000000000000000000000000000000000000000000060003504166338af3eed81146100be57806343d726d6146100ef57806351cff8d914610106578063685ca19414610127578063715018a61461015c5780638c52dc41146101715780638da5cb5b146101865780639af6549a1461019b578063c19d93fb146101b0578063e3a9db1a146101e9578063f2fde38b1461021c578063f340fa011461023d575b600080fd5b3480156100ca57600080fd5b506100d3610251565b60408051600160a060020a039092168252519081900360200190f35b3480156100fb57600080fd5b50610104610265565b005b34801561011257600080fd5b50610104600160a060020a03600435166102d0565b34801561013357600080fd5b50610148600160a060020a03600435166102f0565b604080519115158252519081900360200190f35b34801561016857600080fd5b5061010461030c565b34801561017d57600080fd5b50610104610378565b34801561019257600080fd5b506100d36103e4565b3480156101a757600080fd5b506101046103f3565b3480156101bc57600080fd5b506101c561044f565b604051808260028111156101d557fe5b60ff16815260200191505060405180910390f35b3480156101f557600080fd5b5061020a600160a060020a0360043516610458565b60408051918252519081900360200190f35b34801561022857600080fd5b50610104600160a060020a0360043516610473565b610104600160a060020a0360043516610493565b6002546101009004600160a060020a031681565b600054600160a060020a0316331461027c57600080fd5b60006002805460ff169081111561028f57fe5b1461029957600080fd5b6002805460ff1916811790556040517f1cdde67b72a90f19919ac732a437ac2f7a10fc128d28c2a6e525d89ce5cd9d3a90600090a1565b6102d9816102f0565b15156102e457600080fd5b6102ed816104b9565b50565b600060016002805460ff169081111561030557fe5b1492915050565b600054600160a060020a0316331461032357600080fd5b60008054604051600160a060020a03909116917ff8df31144d9c2f0f6b59d69b8b98abd5459d07f2742c4df920b25aae33c6482091a26000805473ffffffffffffffffffffffffffffffffffffffff19169055565b600054600160a060020a0316331461038f57600080fd5b60006002805460ff16908111156103a257fe5b146103ac57600080fd5b6002805460ff191660011790556040517f599d8e5a83cffb867d051598c4d70e805d59802d8081c1c7d6dffc5b6aca2b8990600090a1565b600054600160a060020a031681565b6002805460ff168181111561040457fe5b1461040e57600080fd5b600254604051600160a060020a036101009092049190911690303180156108fc02916000818181858888f193505050501580156102ed573d6000803e3d6000fd5b60025460ff1681565b600160a060020a031660009081526001602052604090205490565b600054600160a060020a0316331461048a57600080fd5b6102ed8161057e565b60006002805460ff16908111156104a657fe5b146104b057600080fd5b6102ed816105fb565b60008054600160a060020a031633146104d157600080fd5b50600160a060020a03811660009081526001602052604090205430318111156104f657fe5b600160a060020a0382166000818152600160205260408082208290555183156108fc0291849190818181858888f1935050505015801561053a573d6000803e3d6000fd5b50604080518281529051600160a060020a038416917f7084f5476618d8e60b11ef0d7d3f06914655adb8793e28ff7f018d4c76d505d5919081900360200190a25050565b600160a060020a038116151561059357600080fd5b60008054604051600160a060020a03808516939216917f8be0079c531659141344cd1fd0a4f28419497f9722a3daafe3b4186f6b6457e091a36000805473ffffffffffffffffffffffffffffffffffffffff1916600160a060020a0392909216919091179055565b60008054600160a060020a0316331461061357600080fd5b50600160a060020a038116600090815260016020526040902054349061063f908263ffffffff61069516565b600160a060020a038316600081815260016020908152604091829020939093558051848152905191927f2da466a7b24304f47e87fa2e1e5a81b9831ce54fec19055ce277ca2f39ba42c492918290030190a25050565b818101828110156106a257fe5b929150505600a165627a7a723058206a163c863dc945ba4ed9a8104ed4166eebab79afdbc9677de48facea640d65830029",
  "source": "pragma solidity ^0.4.24;\n\nimport \"openzeppelin-solidity/contracts/token/ERC20/ERC20.sol\";\nimport \"openzeppelin-solidity/contracts/math/SafeMath.sol\";\nimport \"openzeppelin-solidity/contracts/payment/RefundEscrow.sol\";\nimport \"openzeppelin-solidity/contracts/ownership/Ownable.sol\";\n\nimport \"./crowdsale/Crowdsale.sol\";\nimport \"./crowdsale/validation/MilestoneCrowdsale.sol\";\nimport \"./price/USDPrice.sol\";\n\ninterface MintableERC20 {\n    function mint(address _to, uint256 _amount) external returns (bool);\n}\n\n/**\n * @title PreSale\n * @dev Crowdsale accepting contributions only within a time frame, \n * having milestones defined, the price is defined in USD\n * having a mechanism to refund sales if soft cap not capReached();\n * And an escrow to support the refund.\n */\ncontract PreSale is Ownable, Crowdsale, MilestoneCrowdsale {\n    using SafeMath for uint256;\n\n    /// Max amount of tokens to be contributed\n    uint256 public cap;\n\n    /// Minimum amount of wei per contribution\n    uint256 public minimumContribution;\n\n    /// minimum amount of funds to be raised in weis\n    uint256 public goal;\n    \n    bool public isFinalized = false;\n\n    /// refund escrow used to hold funds while crowdsale is running\n    RefundEscrow private escrow;\n\n    USDPrice private usdPrice; \n\n    event Finalized();\n\n    constructor(\n        uint256 _rate,\n        address _wallet,\n        ERC20 _token,\n        uint256 _openingTime,\n        uint256 _closingTime,\n        uint256 _goal,\n        uint256 _cap,\n        uint256 _minimumContribution,\n        USDPrice _usdPrice\n    )\n        Crowdsale(_rate, _wallet, _token)\n        MilestoneCrowdsale(_openingTime, _closingTime)\n        public\n    {  \n        require(_cap > 0);\n        require(_minimumContribution > 0);\n        require(_goal > 0);\n        \n        cap = _cap;\n        minimumContribution = _minimumContribution;\n\n        escrow = new RefundEscrow(wallet);\n        goal = _goal;\n        usdPrice = _usdPrice;\n    }\n\n\n    /**\n    * @dev Checks whether the cap has been reached.\n    * @return Whether the cap was reached\n    */\n    function capReached() public view returns (bool) {\n        return tokensSold >= cap;\n    }\n\n    /**\n    * @dev Investors can claim refunds here if crowdsale is unsuccessful\n    */\n    function claimRefund() public {\n        require(isFinalized);\n        require(!goalReached());\n\n        escrow.withdraw(msg.sender);\n    }\n\n    /**\n    * @dev Checks whether funding goal was reached.\n    * @return Whether funding goal was reached\n    */\n    function goalReached() public view returns (bool) {\n        return tokensSold >= goal;\n    }\n\n    /**\n    * @dev Must be called after crowdsale ends, to do some extra finalization\n    * work. Calls the contract's finalization function.\n    */\n    function finalize() public onlyOwner {\n        require(!isFinalized);\n        require(goalReached() || hasClosed());\n\n        finalization();\n        emit Finalized();\n\n        isFinalized = true;\n    }\n\n    /**\n    * @dev Override to extend the way in which ether is converted to tokens.\n    * @param _weiAmount Value in wei to be converted into tokens\n    * @return Number of tokens that can be purchased with the specified _weiAmount\n    */\n    function _getTokenAmount(uint256 _weiAmount)\n        internal view returns (uint256)\n    {\n        return usdPrice.getPrice(_weiAmount).div(getCurrentRate());\n    }\n\n    /**\n    * @dev Extend parent behavior sending heartbeat to token.\n    * @param _beneficiary Address receiving the tokens\n    * @param _weiAmount Value in wei involved in the purchase\n    * @param _tokenAmount Value in token involved in the purchase\n    */\n    function _updatePurchasingState(\n        address _beneficiary,\n        uint256 _weiAmount,\n        uint256 _tokenAmount\n    )\n        internal\n    {\n        super._updatePurchasingState(_beneficiary, _weiAmount, _tokenAmount);\n    }\n    \n    /**\n    * @dev Overrides delivery by minting tokens upon purchase. - MINTED Crowdsale\n    * @param _beneficiary Token purchaser\n    * @param _tokenAmount Number of tokens to be minted\n    */\n    function _deliverTokens(\n        address _beneficiary,\n        uint256 _tokenAmount\n    )\n        internal\n    {\n        // Potentially dangerous assumption about the type of the token.\n        require(MintableERC20(address(token)).mint(_beneficiary, _tokenAmount));\n    }\n\n\n    /**\n    * @dev Extend parent behavior requiring purchase to respect the funding cap.\n    * @param _beneficiary Token purchaser\n    * @param _weiAmount Amount of wei contributed\n    * @param _tokenAmount Amount of token purchased\n    */\n    function _preValidatePurchase(\n        address _beneficiary,\n        uint256 _weiAmount,\n        uint256 _tokenAmount\n    )\n        internal\n    {\n        super._preValidatePurchase(_beneficiary, _weiAmount, _tokenAmount);\n        require(_weiAmount >= minimumContribution);\n        require(tokensSold.add(_tokenAmount) <= cap);\n    }\n\n    /**\n    * @dev escrow finalization task, called when owner calls finalize()\n    */\n    function finalization() internal {\n        if (goalReached()) {\n            escrow.close();\n            escrow.beneficiaryWithdraw();\n        } else {\n            escrow.enableRefunds();\n        }\n    }\n\n    /**\n    * @dev Overrides Crowdsale fund forwarding, sending funds to escrow.\n    */\n    function _forwardFunds() internal {\n        escrow.deposit.value(msg.value)(msg.sender);\n    }\n\n}",
  "sourcePath": "/Users/igor.montella/workspace/go2chain/FoodNation/migrations/contracts/PreSale.sol",
  "compiler": {
    "name": "solc",
    "version": "0.4.24+commit.e67f0147.Emscripten.clang"
  },
  "schemaVersion": "2.0.1",
  "updatedAt": "2018-09-03T22:24:53.388Z"
}