{
  "contractName": "Recoverable",
  "abi": [
    {
      "constant": false,
      "inputs": [],
      "name": "renounceOwnership",
      "outputs": [],
      "payable": false,
      "stateMutability": "nonpayable",
      "type": "function"
    },
    {
      "constant": true,
      "inputs": [],
      "name": "owner",
      "outputs": [
        {
          "name": "",
          "type": "address"
        }
      ],
      "payable": false,
      "stateMutability": "view",
      "type": "function"
    },
    {
      "constant": false,
      "inputs": [
        {
          "name": "_newOwner",
          "type": "address"
        }
      ],
      "name": "transferOwnership",
      "outputs": [],
      "payable": false,
      "stateMutability": "nonpayable",
      "type": "function"
    },
    {
      "inputs": [],
      "payable": false,
      "stateMutability": "nonpayable",
      "type": "constructor"
    },
    {
      "anonymous": false,
      "inputs": [
        {
          "indexed": true,
          "name": "previousOwner",
          "type": "address"
        }
      ],
      "name": "OwnershipRenounced",
      "type": "event"
    },
    {
      "anonymous": false,
      "inputs": [
        {
          "indexed": true,
          "name": "previousOwner",
          "type": "address"
        },
        {
          "indexed": true,
          "name": "newOwner",
          "type": "address"
        }
      ],
      "name": "OwnershipTransferred",
      "type": "event"
    },
    {
      "constant": false,
      "inputs": [
        {
          "name": "token",
          "type": "address"
        }
      ],
      "name": "recoverTokens",
      "outputs": [],
      "payable": false,
      "stateMutability": "nonpayable",
      "type": "function"
    },
    {
      "constant": true,
      "inputs": [
        {
          "name": "token",
          "type": "address"
        }
      ],
      "name": "tokensToBeReturned",
      "outputs": [
        {
          "name": "",
          "type": "uint256"
        }
      ],
      "payable": false,
      "stateMutability": "view",
      "type": "function"
    }
  ],
  "bytecode": "0x608060405234801561001057600080fd5b5060008054600160a060020a031916331790556103db806100326000396000f30060806040526004361061006c5763ffffffff7c010000000000000000000000000000000000000000000000000000000060003504166316114acd8114610071578063715018a6146100945780638da5cb5b146100a9578063c45d19db146100da578063f2fde38b1461010d575b600080fd5b34801561007d57600080fd5b50610092600160a060020a036004351661012e565b005b3480156100a057600080fd5b506100926101fe565b3480156100b557600080fd5b506100be61026a565b60408051600160a060020a039092168252519081900360200190f35b3480156100e657600080fd5b506100fb600160a060020a0360043516610279565b60408051918252519081900360200190f35b34801561011957600080fd5b50610092600160a060020a036004351661030f565b600054600160a060020a0316331461014557600080fd5b600054600160a060020a038083169163a9059cbb911661016484610279565b6040518363ffffffff167c01000000000000000000000000000000000000000000000000000000000281526004018083600160a060020a0316600160a060020a0316815260200182815260200192505050602060405180830381600087803b1580156101cf57600080fd5b505af11580156101e3573d6000803e3d6000fd5b505050506040513d60208110156101f957600080fd5b505050565b600054600160a060020a0316331461021557600080fd5b60008054604051600160a060020a03909116917ff8df31144d9c2f0f6b59d69b8b98abd5459d07f2742c4df920b25aae33c6482091a26000805473ffffffffffffffffffffffffffffffffffffffff19169055565b600054600160a060020a031681565b604080517f70a082310000000000000000000000000000000000000000000000000000000081523060048201529051600091600160a060020a038416916370a082319160248082019260209290919082900301818787803b1580156102dd57600080fd5b505af11580156102f1573d6000803e3d6000fd5b505050506040513d602081101561030757600080fd5b505192915050565b600054600160a060020a0316331461032657600080fd5b61032f81610332565b50565b600160a060020a038116151561034757600080fd5b60008054604051600160a060020a03808516939216917f8be0079c531659141344cd1fd0a4f28419497f9722a3daafe3b4186f6b6457e091a36000805473ffffffffffffffffffffffffffffffffffffffff1916600160a060020a03929092169190911790555600a165627a7a72305820fc1154e3767b2d21ccbf28d26f91a21c7840c041f61f778bf2668638e2f0f9d40029",
  "source": "/**\n * This smart contract code is Copyright 2017 TokenMarket Ltd. For more information see https://tokenmarket.net\n *\n * Licensed under the Apache License, version 2.0: https://github.com/TokenMarketNet/ico/blob/master/LICENSE.txt\n */\n\npragma solidity ^0.4.24;\n\nimport \"openzeppelin-solidity/contracts/ownership/Ownable.sol\";\nimport \"openzeppelin-solidity/contracts/token/ERC20/ERC20Basic.sol\";\n\ncontract Recoverable is Ownable {\n\n    constructor() public{\n    }\n\n    /** \n    * @dev This will be invoked by the owner, when owner wants to rescue tokens\n    * @param token Token which will we rescue to the owner from the contract\n    */\n    function recoverTokens(ERC20Basic token) public onlyOwner  {\n        token.transfer(owner, tokensToBeReturned(token));\n    }\n\n    /** \n    * @dev Interface function, can be overwritten by the superclass\n    * @param token Token which balance we will check and return\n    * @return The amount of tokens (in smallest denominator) the contract owns\n    */\n    function tokensToBeReturned(ERC20Basic token) public view returns (uint) {\n        return token.balanceOf(this);\n    }\n}",
  "sourcePath": "/Users/igor.montella/workspace/go2chain/FoodNation/migrations/contracts/upgrade/Recoverable.sol",
  "compiler": {
    "name": "solc",
    "version": "0.4.24+commit.e67f0147.Emscripten.clang"
  },
  "schemaVersion": "2.0.1",
  "updatedAt": "2018-09-26T01:06:54.456Z"
}