{
  "contractName": "ReservableToken",
  "abi": [
    {
      "constant": true,
      "inputs": [],
      "name": "mintingFinished",
      "outputs": [
        {
          "name": "",
          "type": "bool"
        }
      ],
      "payable": false,
      "stateMutability": "view",
      "type": "function"
    },
    {
      "constant": false,
      "inputs": [
        {
          "name": "_spender",
          "type": "address"
        },
        {
          "name": "_value",
          "type": "uint256"
        }
      ],
      "name": "approve",
      "outputs": [
        {
          "name": "",
          "type": "bool"
        }
      ],
      "payable": false,
      "stateMutability": "nonpayable",
      "type": "function"
    },
    {
      "constant": true,
      "inputs": [],
      "name": "totalSupply",
      "outputs": [
        {
          "name": "",
          "type": "uint256"
        }
      ],
      "payable": false,
      "stateMutability": "view",
      "type": "function"
    },
    {
      "constant": false,
      "inputs": [
        {
          "name": "_from",
          "type": "address"
        },
        {
          "name": "_to",
          "type": "address"
        },
        {
          "name": "_value",
          "type": "uint256"
        }
      ],
      "name": "transferFrom",
      "outputs": [
        {
          "name": "",
          "type": "bool"
        }
      ],
      "payable": false,
      "stateMutability": "nonpayable",
      "type": "function"
    },
    {
      "constant": false,
      "inputs": [
        {
          "name": "_to",
          "type": "address"
        },
        {
          "name": "_amount",
          "type": "uint256"
        }
      ],
      "name": "mint",
      "outputs": [
        {
          "name": "",
          "type": "bool"
        }
      ],
      "payable": false,
      "stateMutability": "nonpayable",
      "type": "function"
    },
    {
      "constant": true,
      "inputs": [
        {
          "name": "",
          "type": "address"
        }
      ],
      "name": "reservedTokensList",
      "outputs": [
        {
          "name": "amount",
          "type": "uint256"
        },
        {
          "name": "isReserved",
          "type": "bool"
        },
        {
          "name": "isDistributed",
          "type": "bool"
        }
      ],
      "payable": false,
      "stateMutability": "view",
      "type": "function"
    },
    {
      "constant": false,
      "inputs": [
        {
          "name": "_spender",
          "type": "address"
        },
        {
          "name": "_subtractedValue",
          "type": "uint256"
        }
      ],
      "name": "decreaseApproval",
      "outputs": [
        {
          "name": "",
          "type": "bool"
        }
      ],
      "payable": false,
      "stateMutability": "nonpayable",
      "type": "function"
    },
    {
      "constant": true,
      "inputs": [
        {
          "name": "_owner",
          "type": "address"
        }
      ],
      "name": "balanceOf",
      "outputs": [
        {
          "name": "",
          "type": "uint256"
        }
      ],
      "payable": false,
      "stateMutability": "view",
      "type": "function"
    },
    {
      "constant": false,
      "inputs": [],
      "name": "renounceOwnership",
      "outputs": [],
      "payable": false,
      "stateMutability": "nonpayable",
      "type": "function"
    },
    {
      "constant": true,
      "inputs": [
        {
          "name": "",
          "type": "uint256"
        }
      ],
      "name": "reservedTokensDestinations",
      "outputs": [
        {
          "name": "",
          "type": "address"
        }
      ],
      "payable": false,
      "stateMutability": "view",
      "type": "function"
    },
    {
      "constant": false,
      "inputs": [],
      "name": "finishMinting",
      "outputs": [
        {
          "name": "",
          "type": "bool"
        }
      ],
      "payable": false,
      "stateMutability": "nonpayable",
      "type": "function"
    },
    {
      "constant": true,
      "inputs": [],
      "name": "owner",
      "outputs": [
        {
          "name": "",
          "type": "address"
        }
      ],
      "payable": false,
      "stateMutability": "view",
      "type": "function"
    },
    {
      "constant": false,
      "inputs": [
        {
          "name": "_to",
          "type": "address"
        },
        {
          "name": "_value",
          "type": "uint256"
        }
      ],
      "name": "transfer",
      "outputs": [
        {
          "name": "",
          "type": "bool"
        }
      ],
      "payable": false,
      "stateMutability": "nonpayable",
      "type": "function"
    },
    {
      "constant": true,
      "inputs": [],
      "name": "reservedTokensDestinationsLen",
      "outputs": [
        {
          "name": "",
          "type": "uint256"
        }
      ],
      "payable": false,
      "stateMutability": "view",
      "type": "function"
    },
    {
      "constant": true,
      "inputs": [],
      "name": "distributedReservedTokensDestinationsLen",
      "outputs": [
        {
          "name": "",
          "type": "uint256"
        }
      ],
      "payable": false,
      "stateMutability": "view",
      "type": "function"
    },
    {
      "constant": false,
      "inputs": [
        {
          "name": "_spender",
          "type": "address"
        },
        {
          "name": "_addedValue",
          "type": "uint256"
        }
      ],
      "name": "increaseApproval",
      "outputs": [
        {
          "name": "",
          "type": "bool"
        }
      ],
      "payable": false,
      "stateMutability": "nonpayable",
      "type": "function"
    },
    {
      "constant": true,
      "inputs": [
        {
          "name": "_owner",
          "type": "address"
        },
        {
          "name": "_spender",
          "type": "address"
        }
      ],
      "name": "allowance",
      "outputs": [
        {
          "name": "",
          "type": "uint256"
        }
      ],
      "payable": false,
      "stateMutability": "view",
      "type": "function"
    },
    {
      "constant": false,
      "inputs": [
        {
          "name": "_newOwner",
          "type": "address"
        }
      ],
      "name": "transferOwnership",
      "outputs": [],
      "payable": false,
      "stateMutability": "nonpayable",
      "type": "function"
    },
    {
      "inputs": [
        {
          "name": "addrs",
          "type": "address[]"
        },
        {
          "name": "amounts",
          "type": "uint256[]"
        }
      ],
      "payable": false,
      "stateMutability": "nonpayable",
      "type": "constructor"
    },
    {
      "anonymous": false,
      "inputs": [
        {
          "indexed": true,
          "name": "to",
          "type": "address"
        },
        {
          "indexed": false,
          "name": "amount",
          "type": "uint256"
        }
      ],
      "name": "Mint",
      "type": "event"
    },
    {
      "anonymous": false,
      "inputs": [],
      "name": "MintFinished",
      "type": "event"
    },
    {
      "anonymous": false,
      "inputs": [
        {
          "indexed": true,
          "name": "previousOwner",
          "type": "address"
        }
      ],
      "name": "OwnershipRenounced",
      "type": "event"
    },
    {
      "anonymous": false,
      "inputs": [
        {
          "indexed": true,
          "name": "previousOwner",
          "type": "address"
        },
        {
          "indexed": true,
          "name": "newOwner",
          "type": "address"
        }
      ],
      "name": "OwnershipTransferred",
      "type": "event"
    },
    {
      "anonymous": false,
      "inputs": [
        {
          "indexed": true,
          "name": "owner",
          "type": "address"
        },
        {
          "indexed": true,
          "name": "spender",
          "type": "address"
        },
        {
          "indexed": false,
          "name": "value",
          "type": "uint256"
        }
      ],
      "name": "Approval",
      "type": "event"
    },
    {
      "anonymous": false,
      "inputs": [
        {
          "indexed": true,
          "name": "from",
          "type": "address"
        },
        {
          "indexed": true,
          "name": "to",
          "type": "address"
        },
        {
          "indexed": false,
          "name": "value",
          "type": "uint256"
        }
      ],
      "name": "Transfer",
      "type": "event"
    },
    {
      "constant": true,
      "inputs": [
        {
          "name": "addr",
          "type": "address"
        }
      ],
      "name": "isAddressReserved",
      "outputs": [
        {
          "name": "isReserved",
          "type": "bool"
        }
      ],
      "payable": false,
      "stateMutability": "view",
      "type": "function"
    },
    {
      "constant": true,
      "inputs": [
        {
          "name": "addr",
          "type": "address"
        }
      ],
      "name": "areTokensDistributedForAddress",
      "outputs": [
        {
          "name": "isDistributed",
          "type": "bool"
        }
      ],
      "payable": false,
      "stateMutability": "view",
      "type": "function"
    },
    {
      "constant": true,
      "inputs": [
        {
          "name": "addr",
          "type": "address"
        }
      ],
      "name": "getReservedTokens",
      "outputs": [
        {
          "name": "amount",
          "type": "uint256"
        }
      ],
      "payable": false,
      "stateMutability": "view",
      "type": "function"
    },
    {
      "constant": false,
      "inputs": [],
      "name": "distributeReservedTokens",
      "outputs": [
        {
          "name": "",
          "type": "bool"
        }
      ],
      "payable": false,
      "stateMutability": "nonpayable",
      "type": "function"
    }
  ],
  "bytecode": "0x60806040526003805460a060020a60ff0219169055600060068190556007556008805461ffff191690553480156200003657600080fd5b50604051620011e9380380620011e9833981016040528051602082015160038054600160a060020a0319163317905590820191016200007f828264010000000062000087810204565b5050620003bc565b60035460009074010000000000000000000000000000000000000000900460ff1615620000b357600080fd5b600354600160a060020a03163314620000cb57600080fd5b60085460ff16156200013e57604080517f08c379a000000000000000000000000000000000000000000000000000000000815260206004820152601b60248201527f526573657276656420546f6b656e7320616c7265616479207365740000000000604482015290519081900360640190fd5b8151835114620001d457604080517f08c379a0000000000000000000000000000000000000000000000000000000008152602060048201526024808201527f506172616d6574657273206d7573742068617665207468652073616d65206c6560448201527f6e67746800000000000000000000000000000000000000000000000000000000606482015290519081900360840190fd5b5060005b825181101562000261578251600090849083908110620001f457fe5b60209081029091010151600160a060020a03161462000258576200025883828151811015156200022057fe5b9060200190602002015183838151811015156200023957fe5b9060200190602002015162000273640100000000026401000000009004565b600101620001d8565b50506008805460ff1916600117905550565b60035474010000000000000000000000000000000000000000900460ff16156200029c57600080fd5b600354600160a060020a03163314620002b457600080fd5b600160a060020a0382161515620002c757fe5b620002db826401000000006200039b810204565b1515620003385760058054600180820183556000929092527f036b6384b5eca791c62761152d0c79bb0604c104a5fb6f4eb0703f3154bb3db0018054600160a060020a031916600160a060020a0385161790556006805490910190555b60408051606081018252918252600160208084018281526000858501818152600160a060020a039097168152600490925292902092518355905191018054925115156101000261ff001992151560ff199094169390931791909116919091179055565b600160a060020a031660009081526004602052604090206001015460ff1690565b610e1d80620003cc6000396000f3006080604052600436106101275763ffffffff7c010000000000000000000000000000000000000000000000000000000060003504166305d2035b811461012c578063095ea7b31461015557806318160ddd1461017957806323b872dd146101a057806340c10f19146101ca57806351ed17a4146101ee578063612544b31461022f578063661884631461025057806370a0823114610274578063715018a6146102955780637386f0a7146102ac5780637d64bcb4146102e05780638da5cb5b146102f557806395fe6f1d1461030a578063a9059cbb1461032b578063b4ecb8471461034f578063c331051714610370578063c71a7aea14610385578063ca1aa5bb1461039a578063d73dd623146103af578063dd62ed3e146103d3578063f2fde38b146103fa575b600080fd5b34801561013857600080fd5b5061014161041b565b604080519115158252519081900360200190f35b34801561016157600080fd5b50610141600160a060020a036004351660243561043c565b34801561018557600080fd5b5061018e6104a2565b60408051918252519081900360200190f35b3480156101ac57600080fd5b50610141600160a060020a03600435811690602435166044356104a8565b3480156101d657600080fd5b50610141600160a060020a036004351660243561061d565b3480156101fa57600080fd5b5061020f600160a060020a0360043516610738565b604080519384529115156020840152151582820152519081900360600190f35b34801561023b57600080fd5b5061018e600160a060020a036004351661075d565b34801561025c57600080fd5b50610141600160a060020a0360043516602435610778565b34801561028057600080fd5b5061018e600160a060020a0360043516610867565b3480156102a157600080fd5b506102aa610882565b005b3480156102b857600080fd5b506102c46004356108f0565b60408051600160a060020a039092168252519081900360200190f35b3480156102ec57600080fd5b50610141610918565b34801561030157600080fd5b506102c46109be565b34801561031657600080fd5b50610141600160a060020a03600435166109cd565b34801561033757600080fd5b50610141600160a060020a03600435166024356109ee565b34801561035b57600080fd5b50610141600160a060020a0360043516610acd565b34801561037c57600080fd5b5061018e610af3565b34801561039157600080fd5b5061018e610af9565b3480156103a657600080fd5b50610141610aff565b3480156103bb57600080fd5b50610141600160a060020a0360043516602435610c23565b3480156103df57600080fd5b5061018e600160a060020a0360043581169060243516610cbc565b34801561040657600080fd5b506102aa600160a060020a0360043516610ce7565b60035474010000000000000000000000000000000000000000900460ff1681565b336000818152600260209081526040808320600160a060020a038716808552908352818420869055815186815291519394909390927f8c5be1e5ebec7d5bd14f71427d1e84f3dd0314c0f7b2291e5b200ac8c7c3b925928290030190a350600192915050565b60015490565b600160a060020a0383166000908152602081905260408120548211156104cd57600080fd5b600160a060020a03841660009081526002602090815260408083203384529091529020548211156104fd57600080fd5b600160a060020a038316151561051257600080fd5b600160a060020a03841660009081526020819052604090205461053b908363ffffffff610d0a16565b600160a060020a038086166000908152602081905260408082209390935590851681522054610570908363ffffffff610d1c16565b600160a060020a038085166000908152602081815260408083209490945591871681526002825282812033825290915220546105b2908363ffffffff610d0a16565b600160a060020a03808616600081815260026020908152604080832033845282529182902094909455805186815290519287169391927fddf252ad1be2c89b69c2b068fc378daa952ba7f163c4a11628f55a4df523b3ef929181900390910190a35060019392505050565b600354600090600160a060020a0316331461063757600080fd5b60035474010000000000000000000000000000000000000000900460ff161561065f57600080fd5b600154610672908363ffffffff610d1c16565b600155600160a060020a03831660009081526020819052604090205461069e908363ffffffff610d1c16565b600160a060020a03841660008181526020818152604091829020939093558051858152905191927f0f6798a560793a54c3bcfe86a93cde1e73087d944c0ea20544137d412139688592918290030190a2604080518381529051600160a060020a038516916000917fddf252ad1be2c89b69c2b068fc378daa952ba7f163c4a11628f55a4df523b3ef9181900360200190a350600192915050565b6004602052600090815260409020805460019091015460ff8082169161010090041683565b600160a060020a031660009081526004602052604090205490565b336000908152600260209081526040808320600160a060020a03861684529091528120548083106107cc57336000908152600260209081526040808320600160a060020a0388168452909152812055610801565b6107dc818463ffffffff610d0a16565b336000908152600260209081526040808320600160a060020a03891684529091529020555b336000818152600260209081526040808320600160a060020a0389168085529083529281902054815190815290519293927f8c5be1e5ebec7d5bd14f71427d1e84f3dd0314c0f7b2291e5b200ac8c7c3b925929181900390910190a35060019392505050565b600160a060020a031660009081526020819052604090205490565b600354600160a060020a0316331461089957600080fd5b600354604051600160a060020a03909116907ff8df31144d9c2f0f6b59d69b8b98abd5459d07f2742c4df920b25aae33c6482090600090a26003805473ffffffffffffffffffffffffffffffffffffffff19169055565b60058054829081106108fe57fe5b600091825260209091200154600160a060020a0316905081565b600354600090600160a060020a0316331461093257600080fd5b60035474010000000000000000000000000000000000000000900460ff161561095a57600080fd5b6003805474ff00000000000000000000000000000000000000001916740100000000000000000000000000000000000000001790556040517fae5184fba832cb2b1f702aca6117b8d265eaf03ad33eb133f19dde0f5920fa0890600090a150600190565b600354600160a060020a031681565b600160a060020a031660009081526004602052604090206001015460ff1690565b33600090815260208190526040812054821115610a0a57600080fd5b600160a060020a0383161515610a1f57600080fd5b33600090815260208190526040902054610a3f908363ffffffff610d0a16565b3360009081526020819052604080822092909255600160a060020a03851681522054610a71908363ffffffff610d1c16565b600160a060020a038416600081815260208181526040918290209390935580518581529051919233927fddf252ad1be2c89b69c2b068fc378daa952ba7f163c4a11628f55a4df523b3ef9281900390910190a350600192915050565b600160a060020a0316600090815260046020526040902060010154610100900460ff1690565b60065481565b60075481565b6000806000806000806000600360149054906101000a900460ff16151515610b2657600080fd5b600354600160a060020a03163314610b3d57600080fd5b600854610100900460ff1615610b4f57fe5b60065460075410610b5c57fe5b600754600654909650610b75908763ffffffff610d0a16565b945084860193508592505b83831015610bfa576005805484908110610b9657fe5b600091825260209091200154600160a060020a03169150610bb682610acd565b1515610bef57610bc58261075d565b90506000811115610bdc57610bda828261061d565b505b610be582610d2f565b6007805460010190555b600190920191610b80565b6006546007541415610c16576008805461ff0019166101001790555b6001965050505050505090565b336000908152600260209081526040808320600160a060020a0386168452909152812054610c57908363ffffffff610d1c16565b336000818152600260209081526040808320600160a060020a0389168085529083529281902085905580519485525191937f8c5be1e5ebec7d5bd14f71427d1e84f3dd0314c0f7b2291e5b200ac8c7c3b925929081900390910190a350600192915050565b600160a060020a03918216600090815260026020908152604080832093909416825291909152205490565b600354600160a060020a03163314610cfe57600080fd5b610d0781610d73565b50565b600082821115610d1657fe5b50900390565b81810182811015610d2957fe5b92915050565b600354600090600160a060020a03163314610d4957600080fd5b50600160a060020a03166000908152600460205260409020600101805461ff001916610100179055565b600160a060020a0381161515610d8857600080fd5b600354604051600160a060020a038084169216907f8be0079c531659141344cd1fd0a4f28419497f9722a3daafe3b4186f6b6457e090600090a36003805473ffffffffffffffffffffffffffffffffffffffff1916600160a060020a03929092169190911790555600a165627a7a72305820bc90ba8e4b46b2960513169cce3f13cad6a0a7d64600f5bf355adac354cbfb8f0029",
  "source": "pragma solidity ^0.4.24;\n\nimport \"openzeppelin-solidity/contracts/token/ERC20/MintableToken.sol\";\nimport \"openzeppelin-solidity/contracts/token/ERC20/DetailedERC20.sol\";\nimport \"openzeppelin-solidity/contracts/math/SafeMath.sol\";\n\n\n/**\n* @title ReservableToken\n* @dev An amount of token is reserved and allocated to reservedTokensList.\n*/\ncontract ReservableToken is MintableToken {\n\n    using SafeMath for uint256;\n  \n    struct ReservedTokensData {\n        uint256 amount;\n        bool isReserved;\n        bool isDistributed;\n    }\n\n    mapping (address => ReservedTokensData) public reservedTokensList;\n\n    address[] public reservedTokensDestinations;\n\n    uint256 public reservedTokensDestinationsLen = 0;\n\n    uint256 public distributedReservedTokensDestinationsLen = 0;\n\n    bool reservedTokensDestinationsAreSet = false;\n\n    bool reservedTokensAreDistributed = false;\n\n\n    /**\n    * @dev Constructor, takes token reserved addresses and amounts.\n    * @param addrs Token reserverd adress list\n    * @param amounts Token reserverd amounts list\n    */\n    constructor(\n        address[] addrs, \n        uint256[] amounts\n    ) \n        public \n    {\n        setReservedTokensListMultiple(addrs, amounts);\n    }\n\n    function isAddressReserved(address addr) public view returns (bool isReserved) {\n        return reservedTokensList[addr].isReserved;\n    }\n\n    function areTokensDistributedForAddress(address addr) public view returns (bool isDistributed) {\n        return reservedTokensList[addr].isDistributed;\n    }\n\n    function getReservedTokens(address addr) public view returns (uint256 amount) {\n        return reservedTokensList[addr].amount;\n    }\n\n    /**\n    * @dev distribute previous reserved tokens\n    * @return Boolean if everything is alright\n    */\n    function distributeReservedTokens() public canMint onlyOwner returns (bool){\n        assert(!reservedTokensAreDistributed);\n        assert(distributedReservedTokensDestinationsLen < reservedTokensDestinationsLen);\n\n\n        uint startLooping = distributedReservedTokensDestinationsLen;\n        uint256 batch = reservedTokensDestinationsLen.sub(distributedReservedTokensDestinationsLen);\n        uint endLooping = startLooping + batch;\n\n        // move reserved tokens\n        for (uint j = startLooping; j < endLooping; j++) {\n            address reservedAddr = reservedTokensDestinations[j];\n            if (!areTokensDistributedForAddress(reservedAddr)) {\n                uint256 allocatedTokens = getReservedTokens(reservedAddr);\n\n                if (allocatedTokens > 0) {\n                    mint(reservedAddr, allocatedTokens);\n                }\n\n                finalizeReservedAddress(reservedAddr);\n                distributedReservedTokensDestinationsLen++;\n            }\n        }\n\n        if (distributedReservedTokensDestinationsLen == reservedTokensDestinationsLen) {\n            reservedTokensAreDistributed = true;\n        }\n        return true;\n    }\n\n    /**\n    * @dev Set reserved addresses and its amounts in batch\n    * @param addrs Addresses list to reserve tokens\n    * @param amounts Amount reserved list to address\n    */\n    function setReservedTokensListMultiple(address[] addrs, uint256[] amounts) internal canMint onlyOwner {\n        require(!reservedTokensDestinationsAreSet, \"Reserved Tokens already set\");\n        require(addrs.length == amounts.length, \"Parameters must have the same length\");\n        for (uint iterator = 0; iterator < addrs.length; iterator++) {\n            if (addrs[iterator] != address(0)) {\n                setReservedTokensList(addrs[iterator], amounts[iterator]);\n            }\n        }\n        reservedTokensDestinationsAreSet = true;\n    }\n\n    /**\n    * @dev Set reserved address and its amount\n    * @param addr Address to reserve tokens\n    * @param amount Amount reserved to address\n    */\n    function setReservedTokensList(address addr, uint256 amount) internal canMint onlyOwner {\n        assert(addr != address(0));\n        if (!isAddressReserved(addr)) {\n            reservedTokensDestinations.push(addr);\n            reservedTokensDestinationsLen++;\n        }\n\n        reservedTokensList[addr] = ReservedTokensData({\n            amount: amount,\n            isReserved: true,\n            isDistributed: false\n        });\n    }\n\n    function finalizeReservedAddress(address addr) internal onlyOwner {\n        ReservedTokensData storage reservedTokensData = reservedTokensList[addr];\n        reservedTokensData.isDistributed = true;\n    }\n}\n",
  "sourcePath": "/Users/igor.montella/workspace/go2chain/FoodNation/migrations/contracts/token/ReservableToken.sol",
  "compiler": {
    "name": "solc",
    "version": "0.4.24+commit.e67f0147.Emscripten.clang"
  },
  "schemaVersion": "2.0.1",
  "updatedAt": "2018-09-03T22:24:53.395Z"
}