{
  "contractName": "Token",
  "abi": [
    {
      "constant": true,
      "inputs": [],
      "name": "mintingFinished",
      "outputs": [
        {
          "name": "",
          "type": "bool"
        }
      ],
      "payable": false,
      "stateMutability": "view",
      "type": "function"
    },
    {
      "constant": true,
      "inputs": [],
      "name": "name",
      "outputs": [
        {
          "name": "",
          "type": "string"
        }
      ],
      "payable": false,
      "stateMutability": "view",
      "type": "function"
    },
    {
      "constant": false,
      "inputs": [
        {
          "name": "_spender",
          "type": "address"
        },
        {
          "name": "_value",
          "type": "uint256"
        }
      ],
      "name": "approve",
      "outputs": [
        {
          "name": "",
          "type": "bool"
        }
      ],
      "payable": false,
      "stateMutability": "nonpayable",
      "type": "function"
    },
    {
      "constant": false,
      "inputs": [
        {
          "name": "token",
          "type": "address"
        }
      ],
      "name": "recoverTokens",
      "outputs": [],
      "payable": false,
      "stateMutability": "nonpayable",
      "type": "function"
    },
    {
      "constant": true,
      "inputs": [],
      "name": "totalSupply",
      "outputs": [
        {
          "name": "",
          "type": "uint256"
        }
      ],
      "payable": false,
      "stateMutability": "view",
      "type": "function"
    },
    {
      "constant": false,
      "inputs": [
        {
          "name": "_from",
          "type": "address"
        },
        {
          "name": "_to",
          "type": "address"
        },
        {
          "name": "_value",
          "type": "uint256"
        }
      ],
      "name": "transferFrom",
      "outputs": [
        {
          "name": "",
          "type": "bool"
        }
      ],
      "payable": false,
      "stateMutability": "nonpayable",
      "type": "function"
    },
    {
      "constant": true,
      "inputs": [],
      "name": "decimals",
      "outputs": [
        {
          "name": "",
          "type": "uint8"
        }
      ],
      "payable": false,
      "stateMutability": "view",
      "type": "function"
    },
    {
      "constant": false,
      "inputs": [],
      "name": "unpause",
      "outputs": [],
      "payable": false,
      "stateMutability": "nonpayable",
      "type": "function"
    },
    {
      "constant": false,
      "inputs": [
        {
          "name": "_to",
          "type": "address"
        },
        {
          "name": "_amount",
          "type": "uint256"
        }
      ],
      "name": "mint",
      "outputs": [
        {
          "name": "",
          "type": "bool"
        }
      ],
      "payable": false,
      "stateMutability": "nonpayable",
      "type": "function"
    },
    {
      "constant": false,
      "inputs": [
        {
          "name": "value",
          "type": "uint256"
        }
      ],
      "name": "upgrade",
      "outputs": [],
      "payable": false,
      "stateMutability": "nonpayable",
      "type": "function"
    },
    {
      "constant": true,
      "inputs": [],
      "name": "paused",
      "outputs": [
        {
          "name": "",
          "type": "bool"
        }
      ],
      "payable": false,
      "stateMutability": "view",
      "type": "function"
    },
    {
      "constant": true,
      "inputs": [],
      "name": "upgradeAgent",
      "outputs": [
        {
          "name": "",
          "type": "address"
        }
      ],
      "payable": false,
      "stateMutability": "view",
      "type": "function"
    },
    {
      "constant": true,
      "inputs": [],
      "name": "upgradeMaster",
      "outputs": [
        {
          "name": "",
          "type": "address"
        }
      ],
      "payable": false,
      "stateMutability": "view",
      "type": "function"
    },
    {
      "constant": false,
      "inputs": [
        {
          "name": "_spender",
          "type": "address"
        },
        {
          "name": "_subtractedValue",
          "type": "uint256"
        }
      ],
      "name": "decreaseApproval",
      "outputs": [
        {
          "name": "success",
          "type": "bool"
        }
      ],
      "payable": false,
      "stateMutability": "nonpayable",
      "type": "function"
    },
    {
      "constant": true,
      "inputs": [
        {
          "name": "_owner",
          "type": "address"
        }
      ],
      "name": "balanceOf",
      "outputs": [
        {
          "name": "",
          "type": "uint256"
        }
      ],
      "payable": false,
      "stateMutability": "view",
      "type": "function"
    },
    {
      "constant": false,
      "inputs": [],
      "name": "renounceOwnership",
      "outputs": [],
      "payable": false,
      "stateMutability": "nonpayable",
      "type": "function"
    },
    {
      "constant": false,
      "inputs": [],
      "name": "finishMinting",
      "outputs": [
        {
          "name": "",
          "type": "bool"
        }
      ],
      "payable": false,
      "stateMutability": "nonpayable",
      "type": "function"
    },
    {
      "constant": true,
      "inputs": [],
      "name": "getUpgradeState",
      "outputs": [
        {
          "name": "",
          "type": "uint8"
        }
      ],
      "payable": false,
      "stateMutability": "view",
      "type": "function"
    },
    {
      "constant": false,
      "inputs": [],
      "name": "pause",
      "outputs": [],
      "payable": false,
      "stateMutability": "nonpayable",
      "type": "function"
    },
    {
      "constant": true,
      "inputs": [],
      "name": "owner",
      "outputs": [
        {
          "name": "",
          "type": "address"
        }
      ],
      "payable": false,
      "stateMutability": "view",
      "type": "function"
    },
    {
      "constant": true,
      "inputs": [],
      "name": "symbol",
      "outputs": [
        {
          "name": "",
          "type": "string"
        }
      ],
      "payable": false,
      "stateMutability": "view",
      "type": "function"
    },
    {
      "constant": true,
      "inputs": [],
      "name": "canUpgrade",
      "outputs": [
        {
          "name": "",
          "type": "bool"
        }
      ],
      "payable": false,
      "stateMutability": "view",
      "type": "function"
    },
    {
      "constant": false,
      "inputs": [
        {
          "name": "_to",
          "type": "address"
        },
        {
          "name": "_value",
          "type": "uint256"
        }
      ],
      "name": "transfer",
      "outputs": [
        {
          "name": "",
          "type": "bool"
        }
      ],
      "payable": false,
      "stateMutability": "nonpayable",
      "type": "function"
    },
    {
      "constant": false,
      "inputs": [
        {
          "name": "token",
          "type": "address"
        }
      ],
      "name": "tokensToBeReturned",
      "outputs": [
        {
          "name": "",
          "type": "uint256"
        }
      ],
      "payable": false,
      "stateMutability": "nonpayable",
      "type": "function"
    },
    {
      "constant": true,
      "inputs": [],
      "name": "totalUpgraded",
      "outputs": [
        {
          "name": "",
          "type": "uint256"
        }
      ],
      "payable": false,
      "stateMutability": "view",
      "type": "function"
    },
    {
      "constant": false,
      "inputs": [
        {
          "name": "_spender",
          "type": "address"
        },
        {
          "name": "_addedValue",
          "type": "uint256"
        }
      ],
      "name": "increaseApproval",
      "outputs": [
        {
          "name": "success",
          "type": "bool"
        }
      ],
      "payable": false,
      "stateMutability": "nonpayable",
      "type": "function"
    },
    {
      "constant": false,
      "inputs": [
        {
          "name": "agent",
          "type": "address"
        }
      ],
      "name": "setUpgradeAgent",
      "outputs": [],
      "payable": false,
      "stateMutability": "nonpayable",
      "type": "function"
    },
    {
      "constant": true,
      "inputs": [
        {
          "name": "_owner",
          "type": "address"
        },
        {
          "name": "_spender",
          "type": "address"
        }
      ],
      "name": "allowance",
      "outputs": [
        {
          "name": "",
          "type": "uint256"
        }
      ],
      "payable": false,
      "stateMutability": "view",
      "type": "function"
    },
    {
      "constant": true,
      "inputs": [],
      "name": "isToken",
      "outputs": [
        {
          "name": "weAre",
          "type": "bool"
        }
      ],
      "payable": false,
      "stateMutability": "view",
      "type": "function"
    },
    {
      "constant": false,
      "inputs": [
        {
          "name": "_newOwner",
          "type": "address"
        }
      ],
      "name": "transferOwnership",
      "outputs": [],
      "payable": false,
      "stateMutability": "nonpayable",
      "type": "function"
    },
    {
      "constant": false,
      "inputs": [
        {
          "name": "master",
          "type": "address"
        }
      ],
      "name": "setUpgradeMaster",
      "outputs": [],
      "payable": false,
      "stateMutability": "nonpayable",
      "type": "function"
    },
    {
      "inputs": [
        {
          "name": "_name",
          "type": "string"
        },
        {
          "name": "_symbol",
          "type": "string"
        },
        {
          "name": "_decimals",
          "type": "uint8"
        },
        {
          "name": "_cap",
          "type": "uint256"
        }
      ],
      "payable": false,
      "stateMutability": "nonpayable",
      "type": "constructor"
    },
    {
      "anonymous": false,
      "inputs": [
        {
          "indexed": true,
          "name": "_from",
          "type": "address"
        },
        {
          "indexed": true,
          "name": "_to",
          "type": "address"
        },
        {
          "indexed": false,
          "name": "_value",
          "type": "uint256"
        }
      ],
      "name": "Upgrade",
      "type": "event"
    },
    {
      "anonymous": false,
      "inputs": [
        {
          "indexed": false,
          "name": "agent",
          "type": "address"
        }
      ],
      "name": "UpgradeAgentSet",
      "type": "event"
    },
    {
      "anonymous": false,
      "inputs": [],
      "name": "Pause",
      "type": "event"
    },
    {
      "anonymous": false,
      "inputs": [],
      "name": "Unpause",
      "type": "event"
    },
    {
      "anonymous": false,
      "inputs": [
        {
          "indexed": true,
          "name": "to",
          "type": "address"
        },
        {
          "indexed": false,
          "name": "amount",
          "type": "uint256"
        }
      ],
      "name": "Mint",
      "type": "event"
    },
    {
      "anonymous": false,
      "inputs": [],
      "name": "MintFinished",
      "type": "event"
    },
    {
      "anonymous": false,
      "inputs": [
        {
          "indexed": true,
          "name": "previousOwner",
          "type": "address"
        }
      ],
      "name": "OwnershipRenounced",
      "type": "event"
    },
    {
      "anonymous": false,
      "inputs": [
        {
          "indexed": true,
          "name": "previousOwner",
          "type": "address"
        },
        {
          "indexed": true,
          "name": "newOwner",
          "type": "address"
        }
      ],
      "name": "OwnershipTransferred",
      "type": "event"
    },
    {
      "anonymous": false,
      "inputs": [
        {
          "indexed": true,
          "name": "owner",
          "type": "address"
        },
        {
          "indexed": true,
          "name": "spender",
          "type": "address"
        },
        {
          "indexed": false,
          "name": "value",
          "type": "uint256"
        }
      ],
      "name": "Approval",
      "type": "event"
    },
    {
      "anonymous": false,
      "inputs": [
        {
          "indexed": true,
          "name": "from",
          "type": "address"
        },
        {
          "indexed": true,
          "name": "to",
          "type": "address"
        },
        {
          "indexed": false,
          "name": "value",
          "type": "uint256"
        }
      ],
      "name": "Transfer",
      "type": "event"
    }
  ],
  "bytecode": "0x60806040526003805460a060020a60ff02191690556006805461ff00191690553480156200002c57600080fd5b506040516200173338038062001733833981016040908152815160208084015192840151606085015160038054600160a060020a031916339081179091559386018051909695909501949193909290918691869186916200009391600491860190620000f0565b508151620000a9906005906020850190620000f0565b5060068054600160a060020a0390951662010000026201000060b060020a031960ff90931660ff199096169590951791909116939093179092555062000195945050505050565b828054600181600116156101000203166002900490600052602060002090601f016020900481019282601f106200013357805160ff191683800117855562000163565b8280016001018555821562000163579182015b828111156200016357825182559160200191906001019062000146565b506200017192915062000175565b5090565b6200019291905b808211156200017157600081556001016200017c565b90565b61158e80620001a56000396000f3006080604052600436106101715763ffffffff60e060020a60003504166305d2035b811461017657806306fdde031461019f578063095ea7b31461022957806316114acd1461024d57806318160ddd1461027057806323b872dd14610297578063313ce567146102c15780633f4ba83a146102ec57806340c10f191461030157806345977d03146103255780635c975abb1461033d5780635de4ccb014610352578063600440cb14610383578063661884631461039857806370a08231146103bc578063715018a6146103dd5780637d64bcb4146103f25780638444b391146104075780638456cb59146104405780638da5cb5b1461045557806395d89b411461046a5780639738968c1461047f578063a9059cbb14610494578063c45d19db146104b8578063c752ff62146104d9578063d73dd623146104ee578063d7e7088a14610512578063dd62ed3e14610533578063eefa597b1461047f578063f2fde38b1461055a578063ffeb7d751461057b575b600080fd5b34801561018257600080fd5b5061018b61059c565b604080519115158252519081900360200190f35b3480156101ab57600080fd5b506101b46105bd565b6040805160208082528351818301528351919283929083019185019080838360005b838110156101ee5781810151838201526020016101d6565b50505050905090810190601f16801561021b5780820380516001836020036101000a031916815260200191505b509250505060405180910390f35b34801561023557600080fd5b5061018b600160a060020a036004351660243561064b565b34801561025957600080fd5b5061026e600160a060020a0360043516610674565b005b34801561027c57600080fd5b5061028561072b565b60408051918252519081900360200190f35b3480156102a357600080fd5b5061018b600160a060020a0360043581169060243516604435610732565b3480156102cd57600080fd5b506102d661075d565b6040805160ff9092168252519081900360200190f35b3480156102f857600080fd5b5061026e610766565b34801561030d57600080fd5b5061018b600160a060020a03600435166024356107c9565b34801561033157600080fd5b5061026e6004356108e4565b34801561034957600080fd5b5061018b610a55565b34801561035e57600080fd5b50610367610a63565b60408051600160a060020a039092168252519081900360200190f35b34801561038f57600080fd5b50610367610a72565b3480156103a457600080fd5b5061018b600160a060020a0360043516602435610a87565b3480156103c857600080fd5b50610285600160a060020a0360043516610aa9565b3480156103e957600080fd5b5061026e610ac4565b3480156103fe57600080fd5b5061018b610b32565b34801561041357600080fd5b5061041c610bd8565b6040518082600481111561042c57fe5b60ff16815260200191505060405180910390f35b34801561044c57600080fd5b5061026e610c23565b34801561046157600080fd5b50610367610c89565b34801561047657600080fd5b506101b4610c98565b34801561048b57600080fd5b5061018b610cf3565b3480156104a057600080fd5b5061018b600160a060020a0360043516602435610cf8565b3480156104c457600080fd5b50610285600160a060020a0360043516610d1a565b3480156104e557600080fd5b50610285610db0565b3480156104fa57600080fd5b5061018b600160a060020a0360043516602435610db6565b34801561051e57600080fd5b5061026e600160a060020a0360043516610dd8565b34801561053f57600080fd5b50610285600160a060020a0360043581169060243516610fc6565b34801561056657600080fd5b5061026e600160a060020a0360043516610ff1565b34801561058757600080fd5b5061026e600160a060020a0360043516611014565b60035474010000000000000000000000000000000000000000900460ff1681565b6004805460408051602060026001851615610100026000190190941693909304601f810184900484028201840190925281815292918301828280156106435780601f1061061857610100808354040283529160200191610643565b820191906000526020600020905b81548152906001019060200180831161062657829003601f168201915b505050505081565b600654600090610100900460ff161561066357600080fd5b61066d838361107d565b9392505050565b600354600160a060020a0316331461068b57600080fd5b600354600160a060020a038083169163a9059cbb91166106aa84610d1a565b6040518363ffffffff1660e060020a0281526004018083600160a060020a0316600160a060020a0316815260200182815260200192505050602060405180830381600087803b1580156106fc57600080fd5b505af1158015610710573d6000803e3d6000fd5b505050506040513d602081101561072657600080fd5b505050565b6001545b90565b600654600090610100900460ff161561074a57600080fd5b6107558484846110e3565b949350505050565b60065460ff1681565b600354600160a060020a0316331461077d57600080fd5b600654610100900460ff16151561079357600080fd5b6006805461ff00191690556040517f7805862f689e2f13df9f062ff482ad3ad112aca9e0847911ed832e158c525b3390600090a1565b600354600090600160a060020a031633146107e357600080fd5b60035474010000000000000000000000000000000000000000900460ff161561080b57600080fd5b60015461081e908363ffffffff61125816565b600155600160a060020a03831660009081526020819052604090205461084a908363ffffffff61125816565b600160a060020a03841660008181526020818152604091829020939093558051858152905191927f0f6798a560793a54c3bcfe86a93cde1e73087d944c0ea20544137d412139688592918290030190a2604080518381529051600160a060020a038516916000917fddf252ad1be2c89b69c2b068fc378daa952ba7f163c4a11628f55a4df523b3ef9181900360200190a350600192915050565b60006108ee610bd8565b905060038160048111156108fe57fe5b14806109155750600481600481111561091357fe5b145b151561092057600080fd5b81151561092c57600080fd5b3360009081526020819052604090205461094c908363ffffffff61126b16565b3360009081526020819052604090205560015461096f908363ffffffff61126b16565b600155600854610985908363ffffffff61125816565b600855600754604080517f753e88e5000000000000000000000000000000000000000000000000000000008152336004820152602481018590529051600160a060020a039092169163753e88e59160448082019260009290919082900301818387803b1580156109f457600080fd5b505af1158015610a08573d6000803e3d6000fd5b5050600754604080518681529051600160a060020a0390921693503392507f7e5c344a8141a805725cb476f76c6953b842222b967edd1f78ddb6e8b3f397ac919081900360200190a35050565b600654610100900460ff1681565b600754600160a060020a031681565b600654620100009004600160a060020a031681565b600654600090610100900460ff1615610a9f57600080fd5b61066d838361127d565b600160a060020a031660009081526020819052604090205490565b600354600160a060020a03163314610adb57600080fd5b600354604051600160a060020a03909116907ff8df31144d9c2f0f6b59d69b8b98abd5459d07f2742c4df920b25aae33c6482090600090a26003805473ffffffffffffffffffffffffffffffffffffffff19169055565b600354600090600160a060020a03163314610b4c57600080fd5b60035474010000000000000000000000000000000000000000900460ff1615610b7457600080fd5b6003805474ff00000000000000000000000000000000000000001916740100000000000000000000000000000000000000001790556040517fae5184fba832cb2b1f702aca6117b8d265eaf03ad33eb133f19dde0f5920fa0890600090a150600190565b6000610be2610cf3565b1515610bf05750600161072f565b600754600160a060020a03161515610c0a5750600261072f565b6008541515610c1b5750600361072f565b50600461072f565b600354600160a060020a03163314610c3a57600080fd5b600654610100900460ff1615610c4f57600080fd5b6006805461ff0019166101001790556040517f6985a02210a168e66602d3235cb6db0e70f92b3ba4d376a33c0f3d9434bff62590600090a1565b600354600160a060020a031681565b6005805460408051602060026001851615610100026000190190941693909304601f810184900484028201840190925281815292918301828280156106435780601f1061061857610100808354040283529160200191610643565b600190565b600654600090610100900460ff1615610d1057600080fd5b61066d838361136c565b604080517f70a082310000000000000000000000000000000000000000000000000000000081523060048201529051600091600160a060020a038416916370a082319160248082019260209290919082900301818787803b158015610d7e57600080fd5b505af1158015610d92573d6000803e3d6000fd5b505050506040513d6020811015610da857600080fd5b505192915050565b60085481565b600654600090610100900460ff1615610dce57600080fd5b61066d838361144b565b610de0610cf3565b1515610deb57600080fd5b600160a060020a0381161515610e0057600080fd5b600654620100009004600160a060020a03163314610e1d57600080fd5b6004610e27610bd8565b6004811115610e3257fe5b1415610e3d57600080fd5b6007805473ffffffffffffffffffffffffffffffffffffffff1916600160a060020a038381169190911791829055604080517f61d3d7a6000000000000000000000000000000000000000000000000000000008152905192909116916361d3d7a6916004808201926020929091908290030181600087803b158015610ec157600080fd5b505af1158015610ed5573d6000803e3d6000fd5b505050506040513d6020811015610eeb57600080fd5b50511515610ef857600080fd5b600154600760009054906101000a9004600160a060020a0316600160a060020a0316634b2ba0dd6040518163ffffffff1660e060020a028152600401602060405180830381600087803b158015610f4e57600080fd5b505af1158015610f62573d6000803e3d6000fd5b505050506040513d6020811015610f7857600080fd5b505114610f8457600080fd5b60075460408051600160a060020a039092168252517f7845d5aa74cc410e35571258d954f23b82276e160fe8c188fa80566580f279cc9181900360200190a150565b600160a060020a03918216600090815260026020908152604080832093909416825291909152205490565b600354600160a060020a0316331461100857600080fd5b611011816114e4565b50565b600160a060020a038116151561102957600080fd5b600654620100009004600160a060020a0316331461104657600080fd5b60068054600160a060020a03909216620100000275ffffffffffffffffffffffffffffffffffffffff000019909216919091179055565b336000818152600260209081526040808320600160a060020a038716808552908352818420869055815186815291519394909390927f8c5be1e5ebec7d5bd14f71427d1e84f3dd0314c0f7b2291e5b200ac8c7c3b925928290030190a350600192915050565b600160a060020a03831660009081526020819052604081205482111561110857600080fd5b600160a060020a038416600090815260026020908152604080832033845290915290205482111561113857600080fd5b600160a060020a038316151561114d57600080fd5b600160a060020a038416600090815260208190526040902054611176908363ffffffff61126b16565b600160a060020a0380861660009081526020819052604080822093909355908516815220546111ab908363ffffffff61125816565b600160a060020a038085166000908152602081815260408083209490945591871681526002825282812033825290915220546111ed908363ffffffff61126b16565b600160a060020a03808616600081815260026020908152604080832033845282529182902094909455805186815290519287169391927fddf252ad1be2c89b69c2b068fc378daa952ba7f163c4a11628f55a4df523b3ef929181900390910190a35060019392505050565b8181018281101561126557fe5b92915050565b60008282111561127757fe5b50900390565b336000908152600260209081526040808320600160a060020a03861684529091528120548083106112d157336000908152600260209081526040808320600160a060020a0388168452909152812055611306565b6112e1818463ffffffff61126b16565b336000908152600260209081526040808320600160a060020a03891684529091529020555b336000818152600260209081526040808320600160a060020a0389168085529083529281902054815190815290519293927f8c5be1e5ebec7d5bd14f71427d1e84f3dd0314c0f7b2291e5b200ac8c7c3b925929181900390910190a35060019392505050565b3360009081526020819052604081205482111561138857600080fd5b600160a060020a038316151561139d57600080fd5b336000908152602081905260409020546113bd908363ffffffff61126b16565b3360009081526020819052604080822092909255600160a060020a038516815220546113ef908363ffffffff61125816565b600160a060020a038416600081815260208181526040918290209390935580518581529051919233927fddf252ad1be2c89b69c2b068fc378daa952ba7f163c4a11628f55a4df523b3ef9281900390910190a350600192915050565b336000908152600260209081526040808320600160a060020a038616845290915281205461147f908363ffffffff61125816565b336000818152600260209081526040808320600160a060020a0389168085529083529281902085905580519485525191937f8c5be1e5ebec7d5bd14f71427d1e84f3dd0314c0f7b2291e5b200ac8c7c3b925929081900390910190a350600192915050565b600160a060020a03811615156114f957600080fd5b600354604051600160a060020a038084169216907f8be0079c531659141344cd1fd0a4f28419497f9722a3daafe3b4186f6b6457e090600090a36003805473ffffffffffffffffffffffffffffffffffffffff1916600160a060020a03929092169190911790555600a165627a7a7230582081e1287c9110d84d193c268074d7bca38902a16281533b4a17b4c6300a45bb720029",
  "source": "pragma solidity 0.4.24;\n\nimport \"openzeppelin-solidity/contracts/token/ERC20/MintableToken.sol\";\nimport \"openzeppelin-solidity/contracts/token/ERC20/DetailedERC20.sol\";\nimport \"openzeppelin-solidity/contracts/token/ERC20/PausableToken.sol\";\nimport \"./support/UpgradeableToken.sol\";\n\ncontract Token is MintableToken, DetailedERC20, PausableToken, UpgradeableToken {\n    constructor(string _name, string _symbol, uint8 _decimals, uint256 _cap)\n        DetailedERC20(_name, _symbol, _decimals)\n        UpgradeableToken(msg.sender)\n        public\n    {\n\n    }\n}",
  "sourcePath": "/Users/igor.montella/workspace/go2chain/FoodNation/smart_contracts/contracts/InitialToken.sol",
  "compiler": {
    "name": "solc",
    "version": "0.4.24+commit.e67f0147.Emscripten.clang"
  },
  "schemaVersion": "2.0.1",
  "updatedAt": "2018-08-20T21:47:32.433Z"
}