{
  "contractName": "UpgradeableToken",
  "abi": [
    {
      "constant": false,
      "inputs": [
        {
          "name": "_spender",
          "type": "address"
        },
        {
          "name": "_value",
          "type": "uint256"
        }
      ],
      "name": "approve",
      "outputs": [
        {
          "name": "",
          "type": "bool"
        }
      ],
      "payable": false,
      "stateMutability": "nonpayable",
      "type": "function"
    },
    {
      "constant": false,
      "inputs": [
        {
          "name": "token",
          "type": "address"
        }
      ],
      "name": "recoverTokens",
      "outputs": [],
      "payable": false,
      "stateMutability": "nonpayable",
      "type": "function"
    },
    {
      "constant": true,
      "inputs": [],
      "name": "totalSupply",
      "outputs": [
        {
          "name": "",
          "type": "uint256"
        }
      ],
      "payable": false,
      "stateMutability": "view",
      "type": "function"
    },
    {
      "constant": false,
      "inputs": [
        {
          "name": "_from",
          "type": "address"
        },
        {
          "name": "_to",
          "type": "address"
        },
        {
          "name": "_value",
          "type": "uint256"
        }
      ],
      "name": "transferFrom",
      "outputs": [
        {
          "name": "",
          "type": "bool"
        }
      ],
      "payable": false,
      "stateMutability": "nonpayable",
      "type": "function"
    },
    {
      "constant": true,
      "inputs": [],
      "name": "upgradeAgent",
      "outputs": [
        {
          "name": "",
          "type": "address"
        }
      ],
      "payable": false,
      "stateMutability": "view",
      "type": "function"
    },
    {
      "constant": true,
      "inputs": [],
      "name": "upgradeMaster",
      "outputs": [
        {
          "name": "",
          "type": "address"
        }
      ],
      "payable": false,
      "stateMutability": "view",
      "type": "function"
    },
    {
      "constant": false,
      "inputs": [
        {
          "name": "_spender",
          "type": "address"
        },
        {
          "name": "_subtractedValue",
          "type": "uint256"
        }
      ],
      "name": "decreaseApproval",
      "outputs": [
        {
          "name": "",
          "type": "bool"
        }
      ],
      "payable": false,
      "stateMutability": "nonpayable",
      "type": "function"
    },
    {
      "constant": true,
      "inputs": [
        {
          "name": "_owner",
          "type": "address"
        }
      ],
      "name": "balanceOf",
      "outputs": [
        {
          "name": "",
          "type": "uint256"
        }
      ],
      "payable": false,
      "stateMutability": "view",
      "type": "function"
    },
    {
      "constant": false,
      "inputs": [],
      "name": "renounceOwnership",
      "outputs": [],
      "payable": false,
      "stateMutability": "nonpayable",
      "type": "function"
    },
    {
      "constant": true,
      "inputs": [],
      "name": "owner",
      "outputs": [
        {
          "name": "",
          "type": "address"
        }
      ],
      "payable": false,
      "stateMutability": "view",
      "type": "function"
    },
    {
      "constant": false,
      "inputs": [
        {
          "name": "_to",
          "type": "address"
        },
        {
          "name": "_value",
          "type": "uint256"
        }
      ],
      "name": "transfer",
      "outputs": [
        {
          "name": "",
          "type": "bool"
        }
      ],
      "payable": false,
      "stateMutability": "nonpayable",
      "type": "function"
    },
    {
      "constant": true,
      "inputs": [
        {
          "name": "token",
          "type": "address"
        }
      ],
      "name": "tokensToBeReturned",
      "outputs": [
        {
          "name": "",
          "type": "uint256"
        }
      ],
      "payable": false,
      "stateMutability": "view",
      "type": "function"
    },
    {
      "constant": true,
      "inputs": [],
      "name": "totalUpgraded",
      "outputs": [
        {
          "name": "",
          "type": "uint256"
        }
      ],
      "payable": false,
      "stateMutability": "view",
      "type": "function"
    },
    {
      "constant": false,
      "inputs": [
        {
          "name": "_spender",
          "type": "address"
        },
        {
          "name": "_addedValue",
          "type": "uint256"
        }
      ],
      "name": "increaseApproval",
      "outputs": [
        {
          "name": "",
          "type": "bool"
        }
      ],
      "payable": false,
      "stateMutability": "nonpayable",
      "type": "function"
    },
    {
      "constant": true,
      "inputs": [
        {
          "name": "_owner",
          "type": "address"
        },
        {
          "name": "_spender",
          "type": "address"
        }
      ],
      "name": "allowance",
      "outputs": [
        {
          "name": "",
          "type": "uint256"
        }
      ],
      "payable": false,
      "stateMutability": "view",
      "type": "function"
    },
    {
      "constant": false,
      "inputs": [
        {
          "name": "_newOwner",
          "type": "address"
        }
      ],
      "name": "transferOwnership",
      "outputs": [],
      "payable": false,
      "stateMutability": "nonpayable",
      "type": "function"
    },
    {
      "inputs": [],
      "payable": false,
      "stateMutability": "nonpayable",
      "type": "constructor"
    },
    {
      "anonymous": false,
      "inputs": [
        {
          "indexed": true,
          "name": "_from",
          "type": "address"
        },
        {
          "indexed": true,
          "name": "_to",
          "type": "address"
        },
        {
          "indexed": false,
          "name": "_value",
          "type": "uint256"
        }
      ],
      "name": "Upgrade",
      "type": "event"
    },
    {
      "anonymous": false,
      "inputs": [
        {
          "indexed": false,
          "name": "agent",
          "type": "address"
        }
      ],
      "name": "UpgradeAgentSet",
      "type": "event"
    },
    {
      "anonymous": false,
      "inputs": [
        {
          "indexed": true,
          "name": "previousOwner",
          "type": "address"
        }
      ],
      "name": "OwnershipRenounced",
      "type": "event"
    },
    {
      "anonymous": false,
      "inputs": [
        {
          "indexed": true,
          "name": "previousOwner",
          "type": "address"
        },
        {
          "indexed": true,
          "name": "newOwner",
          "type": "address"
        }
      ],
      "name": "OwnershipTransferred",
      "type": "event"
    },
    {
      "anonymous": false,
      "inputs": [
        {
          "indexed": true,
          "name": "owner",
          "type": "address"
        },
        {
          "indexed": true,
          "name": "spender",
          "type": "address"
        },
        {
          "indexed": false,
          "name": "value",
          "type": "uint256"
        }
      ],
      "name": "Approval",
      "type": "event"
    },
    {
      "anonymous": false,
      "inputs": [
        {
          "indexed": true,
          "name": "from",
          "type": "address"
        },
        {
          "indexed": true,
          "name": "to",
          "type": "address"
        },
        {
          "indexed": false,
          "name": "value",
          "type": "uint256"
        }
      ],
      "name": "Transfer",
      "type": "event"
    },
    {
      "constant": false,
      "inputs": [
        {
          "name": "value",
          "type": "uint256"
        }
      ],
      "name": "upgrade",
      "outputs": [],
      "payable": false,
      "stateMutability": "nonpayable",
      "type": "function"
    },
    {
      "constant": false,
      "inputs": [
        {
          "name": "agent",
          "type": "address"
        }
      ],
      "name": "setUpgradeAgent",
      "outputs": [],
      "payable": false,
      "stateMutability": "nonpayable",
      "type": "function"
    },
    {
      "constant": true,
      "inputs": [],
      "name": "getUpgradeState",
      "outputs": [
        {
          "name": "",
          "type": "uint8"
        }
      ],
      "payable": false,
      "stateMutability": "view",
      "type": "function"
    },
    {
      "constant": false,
      "inputs": [
        {
          "name": "master",
          "type": "address"
        }
      ],
      "name": "setUpgradeMaster",
      "outputs": [],
      "payable": false,
      "stateMutability": "nonpayable",
      "type": "function"
    },
    {
      "constant": true,
      "inputs": [],
      "name": "canUpgrade",
      "outputs": [
        {
          "name": "",
          "type": "bool"
        }
      ],
      "payable": false,
      "stateMutability": "pure",
      "type": "function"
    }
  ],
  "bytecode": "0x608060405234801561001057600080fd5b506003805433600160a060020a031991821681179092556004805490911690911790556111d6806100426000396000f3006080604052600436106101035763ffffffff60e060020a600035041663095ea7b3811461010857806316114acd1461014057806318160ddd1461016357806323b872dd1461018a57806345977d03146101b45780635de4ccb0146101cc578063600440cb146101fd578063661884631461021257806370a0823114610236578063715018a6146102575780638444b3911461026c5780638da5cb5b146102a55780639738968c146102ba578063a9059cbb146102cf578063c45d19db146102f3578063c752ff6214610314578063d73dd62314610329578063d7e7088a1461034d578063dd62ed3e1461036e578063f2fde38b14610395578063ffeb7d75146103b6575b600080fd5b34801561011457600080fd5b5061012c600160a060020a03600435166024356103d7565b604080519115158252519081900360200190f35b34801561014c57600080fd5b50610161600160a060020a036004351661043d565b005b34801561016f57600080fd5b506101786104f4565b60408051918252519081900360200190f35b34801561019657600080fd5b5061012c600160a060020a03600435811690602435166044356104fb565b3480156101c057600080fd5b50610161600435610670565b3480156101d857600080fd5b506101e161089d565b60408051600160a060020a039092168252519081900360200190f35b34801561020957600080fd5b506101e16108ac565b34801561021e57600080fd5b5061012c600160a060020a03600435166024356108bb565b34801561024257600080fd5b50610178600160a060020a03600435166109aa565b34801561026357600080fd5b506101616109c5565b34801561027857600080fd5b50610281610a33565b6040518082600481111561029157fe5b60ff16815260200191505060405180910390f35b3480156102b157600080fd5b506101e1610a7e565b3480156102c657600080fd5b5061012c610a8d565b3480156102db57600080fd5b5061012c600160a060020a0360043516602435610a92565b3480156102ff57600080fd5b50610178600160a060020a0360043516610b71565b34801561032057600080fd5b50610178610c07565b34801561033557600080fd5b5061012c600160a060020a0360043516602435610c0d565b34801561035957600080fd5b50610161600160a060020a0360043516610ca6565b34801561037a57600080fd5b50610178600160a060020a0360043581169060243516610fc8565b3480156103a157600080fd5b50610161600160a060020a0360043516610ff3565b3480156103c257600080fd5b50610161600160a060020a0360043516611016565b336000818152600260209081526040808320600160a060020a038716808552908352818420869055815186815291519394909390927f8c5be1e5ebec7d5bd14f71427d1e84f3dd0314c0f7b2291e5b200ac8c7c3b925928290030190a350600192915050565b600354600160a060020a0316331461045457600080fd5b600354600160a060020a038083169163a9059cbb911661047384610b71565b6040518363ffffffff1660e060020a0281526004018083600160a060020a0316600160a060020a0316815260200182815260200192505050602060405180830381600087803b1580156104c557600080fd5b505af11580156104d9573d6000803e3d6000fd5b505050506040513d60208110156104ef57600080fd5b505050565b6001545b90565b600160a060020a03831660009081526020819052604081205482111561052057600080fd5b600160a060020a038416600090815260026020908152604080832033845290915290205482111561055057600080fd5b600160a060020a038316151561056557600080fd5b600160a060020a03841660009081526020819052604090205461058e908363ffffffff61110716565b600160a060020a0380861660009081526020819052604080822093909355908516815220546105c3908363ffffffff61111916565b600160a060020a03808516600090815260208181526040808320949094559187168152600282528281203382529091522054610605908363ffffffff61110716565b600160a060020a03808616600081815260026020908152604080832033845282529182902094909455805186815290519287169391927fddf252ad1be2c89b69c2b068fc378daa952ba7f163c4a11628f55a4df523b3ef929181900390910190a35060019392505050565b60008115156106ef576040805160e560020a62461bcd02815260206004820152602160248201527f56616c756520706172616d65746572206d757374206265206e6f6e2d7a65726f60448201527f2e00000000000000000000000000000000000000000000000000000000000000606482015290519081900360840190fd5b6106f7610a33565b9050600381600481111561070757fe5b148061071e5750600481600481111561071c57fe5b145b1515610774576040805160e560020a62461bcd02815260206004820152601e60248201527f46756e6374696f6e2063616c6c656420696e2061206261642073746174650000604482015290519081900360640190fd5b33600090815260208190526040902054610794908363ffffffff61110716565b336000908152602081905260409020556001546107b7908363ffffffff61110716565b6001556006546107cd908363ffffffff61111916565b600655600554604080517f753e88e5000000000000000000000000000000000000000000000000000000008152336004820152602481018590529051600160a060020a039092169163753e88e59160448082019260009290919082900301818387803b15801561083c57600080fd5b505af1158015610850573d6000803e3d6000fd5b5050600554604080518681529051600160a060020a0390921693503392507f7e5c344a8141a805725cb476f76c6953b842222b967edd1f78ddb6e8b3f397ac919081900360200190a35050565b600554600160a060020a031681565b600454600160a060020a031681565b336000908152600260209081526040808320600160a060020a038616845290915281205480831061090f57336000908152600260209081526040808320600160a060020a0388168452909152812055610944565b61091f818463ffffffff61110716565b336000908152600260209081526040808320600160a060020a03891684529091529020555b336000818152600260209081526040808320600160a060020a0389168085529083529281902054815190815290519293927f8c5be1e5ebec7d5bd14f71427d1e84f3dd0314c0f7b2291e5b200ac8c7c3b925929181900390910190a35060019392505050565b600160a060020a031660009081526020819052604090205490565b600354600160a060020a031633146109dc57600080fd5b600354604051600160a060020a03909116907ff8df31144d9c2f0f6b59d69b8b98abd5459d07f2742c4df920b25aae33c6482090600090a26003805473ffffffffffffffffffffffffffffffffffffffff19169055565b6000610a3d610a8d565b1515610a4b575060016104f8565b600554600160a060020a03161515610a65575060026104f8565b6006541515610a76575060036104f8565b5060046104f8565b600354600160a060020a031681565b600190565b33600090815260208190526040812054821115610aae57600080fd5b600160a060020a0383161515610ac357600080fd5b33600090815260208190526040902054610ae3908363ffffffff61110716565b3360009081526020819052604080822092909255600160a060020a03851681522054610b15908363ffffffff61111916565b600160a060020a038416600081815260208181526040918290209390935580518581529051919233927fddf252ad1be2c89b69c2b068fc378daa952ba7f163c4a11628f55a4df523b3ef9281900390910190a350600192915050565b604080517f70a082310000000000000000000000000000000000000000000000000000000081523060048201529051600091600160a060020a038416916370a082319160248082019260209290919082900301818787803b158015610bd557600080fd5b505af1158015610be9573d6000803e3d6000fd5b505050506040513d6020811015610bff57600080fd5b505192915050565b60065481565b336000908152600260209081526040808320600160a060020a0386168452909152812054610c41908363ffffffff61111916565b336000818152600260209081526040808320600160a060020a0389168085529083529281902085905580519485525191937f8c5be1e5ebec7d5bd14f71427d1e84f3dd0314c0f7b2291e5b200ac8c7c3b925929081900390910190a350600192915050565b600454600160a060020a03163314610d08576040805160e560020a62461bcd02815260206004820152601660248201527f53656e646572206e6f7420617574686f72697a65642e00000000000000000000604482015290519081900360640190fd5b610d10610a8d565b1515610d66576040805160e560020a62461bcd02815260206004820152601460248201527f55706772616465206e6f7420656e61626c65642e000000000000000000000000604482015290519081900360640190fd5b6004610d70610a33565b6004811115610d7b57fe5b1415610dd1576040805160e560020a62461bcd02815260206004820152601a60248201527f55706467726164652068617320616c7265647920626567756e2e000000000000604482015290519081900360640190fd5b6005805473ffffffffffffffffffffffffffffffffffffffff1916600160a060020a038381169190911791829055604080517f61d3d7a6000000000000000000000000000000000000000000000000000000008152905192909116916361d3d7a6916004808201926020929091908290030181600087803b158015610e5557600080fd5b505af1158015610e69573d6000803e3d6000fd5b505050506040513d6020811015610e7f57600080fd5b50511515610efd576040805160e560020a62461bcd02815260206004820152602560248201527f4e6f7420616e2075706772616465204167656e74206f722062616420696e746560448201527f7266616365000000000000000000000000000000000000000000000000000000606482015290519081900360840190fd5b600154600560009054906101000a9004600160a060020a0316600160a060020a0316634b2ba0dd6040518163ffffffff1660e060020a028152600401602060405180830381600087803b158015610f5357600080fd5b505af1158015610f67573d6000803e3d6000fd5b505050506040513d6020811015610f7d57600080fd5b505114610f8657fe5b60055460408051600160a060020a039092168252517f7845d5aa74cc410e35571258d954f23b82276e160fe8c188fa80566580f279cc9181900360200190a150565b600160a060020a03918216600090815260026020908152604080832093909416825291909152205490565b600354600160a060020a0316331461100a57600080fd5b6110138161112c565b50565b600454600160a060020a03163314611078576040805160e560020a62461bcd02815260206004820152601660248201527f53656e646572206e6f7420617574686f72697a65642e00000000000000000000604482015290519081900360640190fd5b600160a060020a03811615156110d8576040805160e560020a62461bcd02815260206004820152601660248201527f4e6577206d61737465722063616e742062652030783000000000000000000000604482015290519081900360640190fd5b6004805473ffffffffffffffffffffffffffffffffffffffff1916600160a060020a0392909216919091179055565b60008282111561111357fe5b50900390565b8181018281101561112657fe5b92915050565b600160a060020a038116151561114157600080fd5b600354604051600160a060020a038084169216907f8be0079c531659141344cd1fd0a4f28419497f9722a3daafe3b4186f6b6457e090600090a36003805473ffffffffffffffffffffffffffffffffffffffff1916600160a060020a03929092169190911790555600a165627a7a72305820561ba185b2e126183274d870185decb31b5a193757d0a361df641fbe695b47090029",
  "source": "/**\n * This smart contract code is Copyright 2017 TokenMarket Ltd. For more information see https://tokenmarket.net\n *\n * Licensed under the Apache License, version 2.0: https://github.com/TokenMarketNet/ico/blob/master/LICENSE.txt\n */\n\npragma solidity ^0.4.24;\n\nimport \"openzeppelin-solidity/contracts/token/ERC20/ERC20.sol\";\nimport \"openzeppelin-solidity/contracts/token/ERC20/StandardToken.sol\";\nimport \"../upgrade/Recoverable.sol\";\nimport \"../upgrade/UpgradeAgent.sol\";\n\n/**\n * A token upgrade mechanism where users can opt-in amount of tokens to the next smart contract revision.\n *\n * First envisioned by Golem and Lunyr projects.\n */\ncontract UpgradeableToken is StandardToken, Recoverable {\n\n    /** Contract / person who can set the upgrade path. This can be the same as team multisig wallet, as what it is with its default value. */\n    address public upgradeMaster;\n\n    /** The next contract where the tokens will be migrated. */\n    UpgradeAgent public upgradeAgent;\n\n    /** How many tokens we have upgraded by now. */\n    uint256 public totalUpgraded;\n\n    /**\n    * Upgrade states.\n    *\n    * - NotAllowed: The child contract has not reached a condition where the upgrade can bgun\n    * - WaitingForAgent: Token allows upgrade, but we don't have a new agent yet\n    * - ReadyToUpgrade: The agent is set, but not a single token has been upgraded yet\n    * - Upgrading: Upgrade agent is set and the balance holders can upgrade their tokens\n    *\n    */\n    enum UpgradeState {Unknown, NotAllowed, WaitingForAgent, ReadyToUpgrade, Upgrading}\n\n    /**\n    * Somebody has upgraded some of his tokens.\n    */\n    event Upgrade(address indexed _from, address indexed _to, uint256 _value);\n\n    /**\n    * New upgrade agent available.\n    */\n    event UpgradeAgentSet(address agent);\n\n    /**\n    * Do not allow construction without upgrade master set.\n    */\n    constructor() public {\n        upgradeMaster = msg.sender;\n    }\n\n    /**\n    * @dev Throws if called by any account other than the upgradeMaster.\n    */\n    modifier onlyUpgradeMaster() {\n        require(msg.sender == upgradeMaster, \"Sender not authorized.\");\n        _;\n    }\n\n    /**\n    * Allow the token holder to upgrade some of their tokens to a new contract.\n    */\n    function upgrade(uint256 value) public {\n        // Validate input value.\n        require(value != 0, \"Value parameter must be non-zero.\");\n\n        UpgradeState state = getUpgradeState();\n        require(state == UpgradeState.ReadyToUpgrade || state == UpgradeState.Upgrading, \"Function called in a bad state\");\n\n        balances[msg.sender] = balances[msg.sender].sub(value);\n\n        // Take tokens out from circulation\n        totalSupply_ = totalSupply_.sub(value);\n        totalUpgraded = totalUpgraded.add(value);\n\n        // Upgrade agent reissues the tokens\n        upgradeAgent.upgradeFrom(msg.sender, value);\n        emit Upgrade(msg.sender, upgradeAgent, value);\n    }\n\n    /**\n    * Set an upgrade agent that handles\n    */\n    function setUpgradeAgent(address agent) external onlyUpgradeMaster {\n        // The token is not yet in a state that we could think upgrading\n        require(canUpgrade(), \"Upgrade not enabled.\");\n\n        // Upgrade has already begun for an agent\n        require(getUpgradeState() != UpgradeState.Upgrading, \"Updgrade has alredy begun.\");\n\n        upgradeAgent = UpgradeAgent(agent);\n\n        // Bad interface\n        require(upgradeAgent.isUpgradeAgent(), \"Not an upgrade Agent or bad interface\");\n        // Make sure that token supplies match in source and target\n        assert(upgradeAgent.originalSupply() == totalSupply_);\n\n        emit UpgradeAgentSet(upgradeAgent);\n    }\n\n    /**\n    * Get the state of the token upgrade.\n    */\n    function getUpgradeState() public view returns(UpgradeState) {\n        if(!canUpgrade()) return UpgradeState.NotAllowed;\n        else if(address(upgradeAgent) == 0x00) return UpgradeState.WaitingForAgent;\n        else if(totalUpgraded == 0) return UpgradeState.ReadyToUpgrade;\n        else return UpgradeState.Upgrading;\n    }\n\n    /**\n    * Change the upgrade master.\n    *\n    * This allows us to set a new owner for the upgrade mechanism.\n    */\n    function setUpgradeMaster(address master) public onlyUpgradeMaster {\n        require(master != 0x0, \"New master cant be 0x0\");\n        upgradeMaster = master;\n    }\n\n    /**\n    * Child contract can enable to provide the condition when the upgrade can begun.\n    */\n    function canUpgrade() public pure returns(bool) {\n        return true;\n    }\n\n}",
  "sourcePath": "/Users/igor.montella/workspace/go2chain/FoodNation/migrations/contracts/token/UpgradeableToken.sol",
  "compiler": {
    "name": "solc",
    "version": "0.4.24+commit.e67f0147.Emscripten.clang"
  },
  "schemaVersion": "2.0.1",
  "updatedAt": "2018-09-26T01:06:54.477Z"
}