{
  "contractName": "USDPrice",
  "abi": [
    {
      "constant": true,
      "inputs": [],
      "name": "updatedTime",
      "outputs": [
        {
          "name": "",
          "type": "uint256"
        }
      ],
      "payable": false,
      "stateMutability": "view",
      "type": "function"
    },
    {
      "constant": false,
      "inputs": [],
      "name": "renounceOwnership",
      "outputs": [],
      "payable": false,
      "stateMutability": "nonpayable",
      "type": "function"
    },
    {
      "constant": true,
      "inputs": [],
      "name": "ETHUSD",
      "outputs": [
        {
          "name": "",
          "type": "uint256"
        }
      ],
      "payable": false,
      "stateMutability": "view",
      "type": "function"
    },
    {
      "constant": true,
      "inputs": [],
      "name": "owner",
      "outputs": [
        {
          "name": "",
          "type": "address"
        }
      ],
      "payable": false,
      "stateMutability": "view",
      "type": "function"
    },
    {
      "constant": true,
      "inputs": [
        {
          "name": "",
          "type": "uint256"
        }
      ],
      "name": "priceHistory",
      "outputs": [
        {
          "name": "",
          "type": "uint256"
        }
      ],
      "payable": false,
      "stateMutability": "view",
      "type": "function"
    },
    {
      "constant": false,
      "inputs": [
        {
          "name": "_newOwner",
          "type": "address"
        }
      ],
      "name": "transferOwnership",
      "outputs": [],
      "payable": false,
      "stateMutability": "nonpayable",
      "type": "function"
    },
    {
      "inputs": [],
      "payable": false,
      "stateMutability": "nonpayable",
      "type": "constructor"
    },
    {
      "anonymous": false,
      "inputs": [
        {
          "indexed": false,
          "name": "price",
          "type": "uint256"
        }
      ],
      "name": "PriceUpdated",
      "type": "event"
    },
    {
      "anonymous": false,
      "inputs": [
        {
          "indexed": true,
          "name": "previousOwner",
          "type": "address"
        }
      ],
      "name": "OwnershipRenounced",
      "type": "event"
    },
    {
      "anonymous": false,
      "inputs": [
        {
          "indexed": true,
          "name": "previousOwner",
          "type": "address"
        },
        {
          "indexed": true,
          "name": "newOwner",
          "type": "address"
        }
      ],
      "name": "OwnershipTransferred",
      "type": "event"
    },
    {
      "constant": true,
      "inputs": [
        {
          "name": "time",
          "type": "uint256"
        }
      ],
      "name": "getHistoricPrice",
      "outputs": [
        {
          "name": "",
          "type": "uint256"
        }
      ],
      "payable": false,
      "stateMutability": "view",
      "type": "function"
    },
    {
      "constant": false,
      "inputs": [
        {
          "name": "price",
          "type": "uint256"
        }
      ],
      "name": "updatePrice",
      "outputs": [],
      "payable": false,
      "stateMutability": "nonpayable",
      "type": "function"
    },
    {
      "constant": true,
      "inputs": [
        {
          "name": "_weiAmount",
          "type": "uint256"
        }
      ],
      "name": "getPrice",
      "outputs": [
        {
          "name": "",
          "type": "uint256"
        }
      ],
      "payable": false,
      "stateMutability": "view",
      "type": "function"
    }
  ],
  "bytecode": "0x608060405234801561001057600080fd5b5060008054600160a060020a031916331790556103dc806100326000396000f3006080604052600436106100985763ffffffff7c01000000000000000000000000000000000000000000000000000000006000350416631c1935ce811461009d57806343bdfb72146100c7578063715018a6146100dc57806373db0844146100f35780638d6cc56d146101085780638da5cb5b14610120578063b27a048414610151578063e757223014610169578063f2fde38b14610181575b600080fd5b3480156100a957600080fd5b506100b56004356101a2565b60408051918252519081900360200190f35b3480156100d357600080fd5b506100b56101b4565b3480156100e857600080fd5b506100f16101ba565b005b3480156100ff57600080fd5b506100b5610226565b34801561011457600080fd5b506100f160043561022c565b34801561012c57600080fd5b506101356102a9565b60408051600160a060020a039092168252519081900360200190f35b34801561015d57600080fd5b506100b56004356102b8565b34801561017557600080fd5b506100b56004356102ca565b34801561018d57600080fd5b506100f1600160a060020a03600435166102e7565b60009081526003602052604090205490565b60025481565b600054600160a060020a031633146101d157600080fd5b60008054604051600160a060020a03909116917ff8df31144d9c2f0f6b59d69b8b98abd5459d07f2742c4df920b25aae33c6482091a26000805473ffffffffffffffffffffffffffffffffffffffff19169055565b60015481565b600054600160a060020a0316331461024357600080fd5b6000811161025057600080fd5b60018054600280546000908152600360209081526040918290209390935592849055429055815183815291517f66cbca4f3c64fecf1dcb9ce094abcf7f68c3450a1d4e3a8e917dd621edb4ebe09281900390910190a150565b600054600160a060020a031681565b60036020526000908152604090205481565b60006102e16001548361030a90919063ffffffff16565b92915050565b600054600160a060020a031633146102fe57600080fd5b61030781610333565b50565b600082151561031b575060006102e1565b5081810281838281151561032b57fe5b04146102e157fe5b600160a060020a038116151561034857600080fd5b60008054604051600160a060020a03808516939216917f8be0079c531659141344cd1fd0a4f28419497f9722a3daafe3b4186f6b6457e091a36000805473ffffffffffffffffffffffffffffffffffffffff1916600160a060020a03929092169190911790555600a165627a7a723058201b3e2fbc870fa3214850e42bf21b6c2b40c54fc080cb270d20a83ff8c5e5f9fa0029",
  "source": "pragma solidity ^0.4.24;\n\nimport \"openzeppelin-solidity/contracts/ownership/Ownable.sol\";\nimport \"openzeppelin-solidity/contracts/math/SafeMath.sol\";\n\n/**\n* @title USDPrice\n* @dev Contract that calculates the price of tokens in USD cents.\n* Note that this contracts needs to be updated\n*/\ncontract USDPrice is Ownable {\n\n    using SafeMath for uint256;\n\n    // PRICE of 1 ETHER in USD in cents\n    // So, if price is: $271.90, the value in variable will be: 27190\n    uint256 public ETHUSD;\n\n    // Time of Last Updated Price\n    uint256 public updatedTime;\n\n    // Historic price of ETH in USD in cents\n    mapping (uint256 => uint256) public priceHistory;\n\n    event PriceUpdated(uint256 price);\n\n    constructor() public {\n    }\n\n    function getHistoricPrice(uint256 time) public view returns (uint256) {\n        return priceHistory[time];\n    } \n\n    function updatePrice(uint256 price) public onlyOwner {\n        require(price > 0);\n\n        priceHistory[updatedTime] = ETHUSD;\n\n        ETHUSD = price;\n        // solium-disable-next-line security/no-block-members\n        updatedTime = block.timestamp;\n\n        emit PriceUpdated(ETHUSD);\n    }\n\n    /**\n    * @dev Override to extend the way in which ether is converted to USD.\n    * @param _weiAmount Value in wei to be converted into tokens\n    * @return The value of wei amount in USD cents\n    */\n    function getPrice(uint256 _weiAmount)\n        public view returns (uint256)\n    {\n        return _weiAmount.mul(ETHUSD);\n    }\n    \n}\n\n",
  "sourcePath": "/Users/igor.montella/workspace/go2chain/FoodNation/migrations/contracts/price/USDPrice.sol",
  "compiler": {
    "name": "solc",
    "version": "0.4.24+commit.e67f0147.Emscripten.clang"
  },
  "schemaVersion": "2.0.1",
  "updatedAt": "2018-09-03T22:24:53.390Z"
}