{
  "contractName": "USDPriceStrategy",
  "abi": [
    {
      "constant": true,
      "inputs": [],
      "name": "updatedTime",
      "outputs": [
        {
          "name": "",
          "type": "uint256"
        }
      ],
      "payable": false,
      "stateMutability": "view",
      "type": "function"
    },
    {
      "constant": false,
      "inputs": [],
      "name": "renounceOwnership",
      "outputs": [],
      "payable": false,
      "stateMutability": "nonpayable",
      "type": "function"
    },
    {
      "constant": true,
      "inputs": [],
      "name": "ETHUSD",
      "outputs": [
        {
          "name": "",
          "type": "uint256"
        }
      ],
      "payable": false,
      "stateMutability": "view",
      "type": "function"
    },
    {
      "constant": true,
      "inputs": [],
      "name": "owner",
      "outputs": [
        {
          "name": "",
          "type": "address"
        }
      ],
      "payable": false,
      "stateMutability": "view",
      "type": "function"
    },
    {
      "constant": true,
      "inputs": [
        {
          "name": "",
          "type": "uint256"
        }
      ],
      "name": "priceHistory",
      "outputs": [
        {
          "name": "",
          "type": "uint256"
        }
      ],
      "payable": false,
      "stateMutability": "view",
      "type": "function"
    },
    {
      "constant": false,
      "inputs": [
        {
          "name": "_newOwner",
          "type": "address"
        }
      ],
      "name": "transferOwnership",
      "outputs": [],
      "payable": false,
      "stateMutability": "nonpayable",
      "type": "function"
    },
    {
      "inputs": [],
      "payable": false,
      "stateMutability": "nonpayable",
      "type": "constructor"
    },
    {
      "anonymous": false,
      "inputs": [
        {
          "indexed": false,
          "name": "price",
          "type": "uint256"
        }
      ],
      "name": "PriceUpdated",
      "type": "event"
    },
    {
      "anonymous": false,
      "inputs": [
        {
          "indexed": true,
          "name": "previousOwner",
          "type": "address"
        }
      ],
      "name": "OwnershipRenounced",
      "type": "event"
    },
    {
      "anonymous": false,
      "inputs": [
        {
          "indexed": true,
          "name": "previousOwner",
          "type": "address"
        },
        {
          "indexed": true,
          "name": "newOwner",
          "type": "address"
        }
      ],
      "name": "OwnershipTransferred",
      "type": "event"
    },
    {
      "constant": true,
      "inputs": [
        {
          "name": "time",
          "type": "uint256"
        }
      ],
      "name": "getHistoricPrice",
      "outputs": [
        {
          "name": "",
          "type": "uint256"
        }
      ],
      "payable": false,
      "stateMutability": "view",
      "type": "function"
    },
    {
      "constant": false,
      "inputs": [
        {
          "name": "price",
          "type": "uint256"
        }
      ],
      "name": "updatePrice",
      "outputs": [],
      "payable": false,
      "stateMutability": "nonpayable",
      "type": "function"
    }
  ],
  "bytecode": "0x608060405234801561001057600080fd5b5060008054600160a060020a03191633179055610373806100326000396000f30060806040526004361061008d5763ffffffff7c01000000000000000000000000000000000000000000000000000000006000350416631c1935ce811461009257806343bdfb72146100bc578063715018a6146100d157806373db0844146100e85780638d6cc56d146100fd5780638da5cb5b14610115578063b27a048414610146578063f2fde38b1461015e575b600080fd5b34801561009e57600080fd5b506100aa60043561017f565b60408051918252519081900360200190f35b3480156100c857600080fd5b506100aa610191565b3480156100dd57600080fd5b506100e6610197565b005b3480156100f457600080fd5b506100aa610203565b34801561010957600080fd5b506100e6600435610209565b34801561012157600080fd5b5061012a610286565b60408051600160a060020a039092168252519081900360200190f35b34801561015257600080fd5b506100aa600435610295565b34801561016a57600080fd5b506100e6600160a060020a03600435166102a7565b60009081526003602052604090205490565b60025481565b600054600160a060020a031633146101ae57600080fd5b60008054604051600160a060020a03909116917ff8df31144d9c2f0f6b59d69b8b98abd5459d07f2742c4df920b25aae33c6482091a26000805473ffffffffffffffffffffffffffffffffffffffff19169055565b60015481565b600054600160a060020a0316331461022057600080fd5b6000811161022d57600080fd5b60018054600280546000908152600360209081526040918290209390935592849055429055815183815291517f66cbca4f3c64fecf1dcb9ce094abcf7f68c3450a1d4e3a8e917dd621edb4ebe09281900390910190a150565b600054600160a060020a031681565b60036020526000908152604090205481565b600054600160a060020a031633146102be57600080fd5b6102c7816102ca565b50565b600160a060020a03811615156102df57600080fd5b60008054604051600160a060020a03808516939216917f8be0079c531659141344cd1fd0a4f28419497f9722a3daafe3b4186f6b6457e091a36000805473ffffffffffffffffffffffffffffffffffffffff1916600160a060020a03929092169190911790555600a165627a7a723058205fd17bd56e1c758532c08fc5b77a4b2a79d77c971e8008cd2ec649c9bff295a20029",
  "source": "pragma solidity ^0.4.22;\n\nimport \"openzeppelin-solidity/contracts/ownership/Ownable.sol\";\nimport \"openzeppelin-solidity/contracts/math/SafeMath.sol\";\nimport \"../Crowdsale.sol\";\n/**\n* @title USDPriceStrategy\n* @dev Extension of Crowdsale contract that calculates the price of tokens in USD cents.\n* Note that this contracts needs to be updated\n* Once this contract is used, the rate of crowdsale needs to be in USD cents\n*/\ncontract USDPriceStrategy is Ownable {\n\n    using SafeMath for uint256;\n\n    // PRICE of 1 ETHER in USD in cents\n    // So, if price is: $271.90, the value in variable will be: 27190\n    uint256 public ETHUSD;\n\n    // Time of Last Updated Price\n    uint256 public updatedTime;\n\n    // Historic price of ETH in USD in cents\n    mapping (uint256 => uint256) public priceHistory;\n\n    event PriceUpdated(uint256 price);\n\n    constructor() public {\n    }\n\n    function getHistoricPrice(uint256 time) public view returns (uint256) {\n        return priceHistory[time];\n    } \n\n    function updatePrice(uint256 price) public onlyOwner {\n        require(price > 0);\n\n        priceHistory[updatedTime] = ETHUSD;\n\n        ETHUSD = price;\n        // solium-disable-next-line security/no-block-members\n        updatedTime = block.timestamp;\n\n        emit PriceUpdated(ETHUSD);\n    }\n\n    /**\n    * @dev Override to extend the way in which ether is converted to USD.\n    * @param _weiAmount Value in wei to be converted into tokens\n    * @return The value of wei amount in USD cents\n    */\n    function getPrice(uint256 _weiAmount)\n        internal view returns (uint256)\n    {\n        return _weiAmount.mul(ETHUSD);\n    }\n    \n}\n\n",
  "sourcePath": "/Users/igor.montella/workspace/go2chain/FoodNation/foodnation-contracts/contracts/crowdsale/price/USDPriceStrategy.sol",
  "compiler": {
    "name": "solc",
    "version": "0.4.24+commit.e67f0147.Emscripten.clang"
  },
  "schemaVersion": "2.0.1",
  "updatedAt": "2018-08-31T01:44:29.010Z"
}