{
  "contractName": "VestingFactory",
  "abi": [
    {
      "constant": false,
      "inputs": [],
      "name": "renounceOwnership",
      "outputs": [],
      "payable": false,
      "stateMutability": "nonpayable",
      "type": "function"
    },
    {
      "constant": true,
      "inputs": [],
      "name": "owner",
      "outputs": [
        {
          "name": "",
          "type": "address"
        }
      ],
      "payable": false,
      "stateMutability": "view",
      "type": "function"
    },
    {
      "constant": false,
      "inputs": [
        {
          "name": "_newOwner",
          "type": "address"
        }
      ],
      "name": "transferOwnership",
      "outputs": [],
      "payable": false,
      "stateMutability": "nonpayable",
      "type": "function"
    },
    {
      "inputs": [],
      "payable": false,
      "stateMutability": "nonpayable",
      "type": "constructor"
    },
    {
      "anonymous": false,
      "inputs": [
        {
          "indexed": true,
          "name": "previousOwner",
          "type": "address"
        }
      ],
      "name": "OwnershipRenounced",
      "type": "event"
    },
    {
      "anonymous": false,
      "inputs": [
        {
          "indexed": true,
          "name": "previousOwner",
          "type": "address"
        },
        {
          "indexed": true,
          "name": "newOwner",
          "type": "address"
        }
      ],
      "name": "OwnershipTransferred",
      "type": "event"
    },
    {
      "constant": false,
      "inputs": [
        {
          "name": "_name",
          "type": "string"
        },
        {
          "name": "_beneficiary",
          "type": "address"
        },
        {
          "name": "_start",
          "type": "uint256"
        },
        {
          "name": "_cliff",
          "type": "uint256"
        },
        {
          "name": "_duration",
          "type": "uint256"
        }
      ],
      "name": "newVesting",
      "outputs": [
        {
          "name": "",
          "type": "address"
        }
      ],
      "payable": false,
      "stateMutability": "nonpayable",
      "type": "function"
    }
  ],
  "bytecode": "0x608060405234801561001057600080fd5b5060008054600160a060020a03191633179055610f66806100326000396000f3006080604052600436106100615763ffffffff7c010000000000000000000000000000000000000000000000000000000060003504166309a3f5a78114610066578063715018a6146100f55780638da5cb5b1461010c578063f2fde38b14610121575b600080fd5b34801561007257600080fd5b506040805160206004803580820135601f81018490048402850184019095528484526100d994369492936024939284019190819084018382808284375094975050508335600160a060020a0316945050506020820135916040810135915060600135610142565b60408051600160a060020a039092168252519081900360200190f35b34801561010157600080fd5b5061010a61028f565b005b34801561011857600080fd5b506100d96102fb565b34801561012d57600080fd5b5061010a600160a060020a036004351661030a565b600080548190600160a060020a0316331461015c57600080fd5b8686868686600061016b6103aa565b808060200187600160a060020a0316600160a060020a0316815260200186815260200185815260200184815260200183151515158152602001828103825288818151815260200191508051906020019080838360005b838110156101d95781810151838201526020016101c1565b50505050905090810190601f1680156102065780820380516001836020036101000a031916815260200191505b50975050505050505050604051809103906000f08015801561022c573d6000803e3d6000fd5b506001805480820182556000919091527fb10e2d527612073b26eecdfd717e6a320cf44b4afac2b0732d9fcbe2b7fa0cf601805473ffffffffffffffffffffffffffffffffffffffff1916600160a060020a038316179055979650505050505050565b600054600160a060020a031633146102a657600080fd5b60008054604051600160a060020a03909116917ff8df31144d9c2f0f6b59d69b8b98abd5459d07f2742c4df920b25aae33c6482091a26000805473ffffffffffffffffffffffffffffffffffffffff19169055565b600054600160a060020a031681565b600054600160a060020a0316331461032157600080fd5b61032a8161032d565b50565b600160a060020a038116151561034257600080fd5b60008054604051600160a060020a03808516939216917f8be0079c531659141344cd1fd0a4f28419497f9722a3daafe3b4186f6b6457e091a36000805473ffffffffffffffffffffffffffffffffffffffff1916600160a060020a0392909216919091179055565b604051610b80806103bb833901905600608060405234801561001057600080fd5b50604051610b80380380610b8083398101604090815281516020830151918301516060840151608085015160a086015160008054600160a060020a03191633179055939095019491929091908484848484600160a060020a038516151561007657600080fd5b8183111561008357600080fd5b60018054600160a060020a031916600160a060020a0387161790556005805460ff191682151517905560048290556100c884846401000000006100f1810261083f1704565b6002555050506003555085516100e5906008906020890190610104565b5050505050505061019f565b818101828110156100fe57fe5b92915050565b828054600181600116156101000203166002900490600052602060002090601f016020900481019282601f1061014557805160ff1916838001178555610172565b82800160010185558215610172579182015b82811115610172578251825591602001919060010190610157565b5061017e929150610182565b5090565b61019c91905b8082111561017e5760008155600101610188565b90565b6109d2806101ae6000396000f3006080604052600436106100c15763ffffffff60e060020a60003504166306fdde0381146100c65780630fb5a6b41461015057806313d033c0146101775780631726cbc81461018c57806319165587146101ad578063384711cc146101d057806338af3eed146101f1578063715018a61461022257806374a8f10314610237578063872a7810146102585780638da5cb5b146102815780639852595c14610296578063be9a6555146102b7578063f2fde38b146102cc578063fa01dc06146102ed575b600080fd5b3480156100d257600080fd5b506100db61030e565b6040805160208082528351818301528351919283929083019185019080838360005b838110156101155781810151838201526020016100fd565b50505050905090810190601f1680156101425780820380516001836020036101000a031916815260200191505b509250505060405180910390f35b34801561015c57600080fd5b5061016561039c565b60408051918252519081900360200190f35b34801561018357600080fd5b506101656103a2565b34801561019857600080fd5b50610165600160a060020a03600435166103a8565b3480156101b957600080fd5b506101ce600160a060020a03600435166103e0565b005b3480156101dc57600080fd5b50610165600160a060020a036004351661048c565b3480156101fd57600080fd5b506102066105e3565b60408051600160a060020a039092168252519081900360200190f35b34801561022e57600080fd5b506101ce6105f2565b34801561024357600080fd5b506101ce600160a060020a036004351661065e565b34801561026457600080fd5b5061026d6107c5565b604080519115158252519081900360200190f35b34801561028d57600080fd5b506102066107ce565b3480156102a257600080fd5b50610165600160a060020a03600435166107dd565b3480156102c357600080fd5b506101656107ef565b3480156102d857600080fd5b506101ce600160a060020a03600435166107f5565b3480156102f957600080fd5b5061026d600160a060020a0360043516610818565b6008805460408051602060026001851615610100026000190190941693909304601f810184900484028201840190925281815292918301828280156103945780601f1061036957610100808354040283529160200191610394565b820191906000526020600020905b81548152906001019060200180831161037757829003601f168201915b505050505081565b60045481565b60025481565b600160a060020a0381166000908152600660205260408120546103da906103ce8461048c565b9063ffffffff61082d16565b92915050565b60006103eb826103a8565b9050600081116103fa57600080fd5b600160a060020a038216600090815260066020526040902054610423908263ffffffff61083f16565b600160a060020a038084166000818152600660205260409020929092556001546104559291168363ffffffff61084c16565b6040805182815290517ffb81f9b30d73d830c3544b34d827c08142579ee75710b490bab0b3995468c5659181900360200190a15050565b600080600083600160a060020a03166370a08231306040518263ffffffff1660e060020a0281526004018082600160a060020a0316600160a060020a03168152602001915050602060405180830381600087803b1580156104ec57600080fd5b505af1158015610500573d6000803e3d6000fd5b505050506040513d602081101561051657600080fd5b5051600160a060020a03851660009081526006602052604090205490925061054590839063ffffffff61083f16565b905060025442101561055a57600092506105dc565b60045460035461056f9163ffffffff61083f16565b421015806105955750600160a060020a03841660009081526007602052604090205460ff165b156105a2578092506105dc565b6105d96004546105cd6105c06003544261082d90919063ffffffff16565b849063ffffffff6108eb16565b9063ffffffff61091416565b92505b5050919050565b600154600160a060020a031681565b600054600160a060020a0316331461060957600080fd5b60008054604051600160a060020a03909116917ff8df31144d9c2f0f6b59d69b8b98abd5459d07f2742c4df920b25aae33c6482091a26000805473ffffffffffffffffffffffffffffffffffffffff19169055565b6000805481908190600160a060020a0316331461067a57600080fd5b60055460ff16151561068b57600080fd5b600160a060020a03841660009081526007602052604090205460ff16156106b157600080fd5b604080517f70a082310000000000000000000000000000000000000000000000000000000081523060048201529051600160a060020a038616916370a082319160248083019260209291908290030181600087803b15801561071257600080fd5b505af1158015610726573d6000803e3d6000fd5b505050506040513d602081101561073c57600080fd5b50519250610749846103a8565b915061075b838363ffffffff61082d16565b600160a060020a038086166000818152600760205260408120805460ff1916600117905554929350610796929091168363ffffffff61084c16565b6040517f44825a4b2df8acb19ce4e1afba9aa850c8b65cdb7942e2078f27d0b0960efee690600090a150505050565b60055460ff1681565b600054600160a060020a031681565b60066020526000908152604090205481565b60035481565b600054600160a060020a0316331461080c57600080fd5b61081581610929565b50565b60076020526000908152604090205460ff1681565b60008282111561083957fe5b50900390565b818101828110156103da57fe5b82600160a060020a031663a9059cbb83836040518363ffffffff1660e060020a0281526004018083600160a060020a0316600160a060020a0316815260200182815260200192505050602060405180830381600087803b1580156108af57600080fd5b505af11580156108c3573d6000803e3d6000fd5b505050506040513d60208110156108d957600080fd5b505115156108e657600080fd5b505050565b60008215156108fc575060006103da565b5081810281838281151561090c57fe5b04146103da57fe5b6000818381151561092157fe5b049392505050565b600160a060020a038116151561093e57600080fd5b60008054604051600160a060020a03808516939216917f8be0079c531659141344cd1fd0a4f28419497f9722a3daafe3b4186f6b6457e091a36000805473ffffffffffffffffffffffffffffffffffffffff1916600160a060020a03929092169190911790555600a165627a7a72305820e9cef9e07bd6a8aea097e75c3576ca6a0f7304a2506d1dd03632651e695cb0040029a165627a7a72305820ecea3e9f78e2260b5c5d12b9297fe8fb23d523b2dc8feea09e5403bdb325bdcb0029",
  "source": "pragma solidity ^0.4.22;\n\nimport \"openzeppelin-solidity/contracts/ownership/Ownable.sol\";\nimport \"./VestingToken.sol\";\n\ncontract VestingFactory is Ownable {\n\n    VestingToken[] vestings;\n\n    constructor() public {}\n\n    function newVesting(string _name, address _beneficiary, uint256 _start, uint256 _cliff, uint256 _duration) public onlyOwner returns (VestingToken)  {\n        VestingToken vesting = new VestingToken(_name, _beneficiary, _start, _cliff, _duration, false);\n        vestings.push(vesting);\n        return vesting;\n    }\n}",
  "sourcePath": "/Users/igor.montella/workspace/go2chain/FoodNation/smart_contracts/contracts/VestingFactory.sol",
  "compiler": {
    "name": "solc",
    "version": "0.4.24+commit.e67f0147.Emscripten.clang"
  },
  "schemaVersion": "2.0.1",
  "updatedAt": "2018-08-23T13:36:39.716Z"
}